:020000040800F2
:10000000E86C0020B9020008BD750008756F000893
:1000100007740008ED3600083BB30008000000003C
:10002000000000000000000000000000E7A400083D
:10003000274D00080000000047030008A5AA00089B
:10004000D30200088B820008D30200089D9F00089D
:10005000D3020008D3020008D3020008D30200082C
:10006000D3020008D3020008D3020008854A000822
:10007000D3020008D3020008D3020008D30200080C
:10008000D3020008D3020008D3020008D3020008FC
:1000900033B30008D3020008D3020008D3020008DB
:1000A000D3020008D3020008D3020008D3020008DC
:1000B000D3020008EDAB0008D3020008D302000809
:1000C000D3020008D3020008D3020008D3020008BC
:1000D000D30200081DB0000899B0000809B100085B
:1000E000D3020008D3020008D3020008D30200089C
:1000F000D3020008D3020008D3020008D30200088C
:10010000D3020008D3020008D3020008D30200087B
:1001100025AF0008A1AF0008D3020008D3020008F1
:10012000D3020008D3020008D3020008D30200085B
:1001300000F002F800F0B0F80AA090E8000C824449
:100140008344AAF10107DA4501D100F0A5F8AFF226
:10015000090EBAE80F0013F0010F18BFFB1A43F0A5
:10016000010318479CC50000BCC500000A444FF0BD
:10017000000C10F8013B13F0070408BF10F8014B06
:100180001D1108BF10F8015B641E05D010F8016B4B
:10019000641E01F8016BF9D113F0080F1EBF10F8AF
:1001A000014BAD1C0C1B09D16D1E58BF01F801CBD2
:1001B000FAD505E014F8016B01F8016B6D1EF9D555
:1001C0009142D6D37047000000230024002500266A
:1001D000103A28BF78C1FBD8520728BF30C148BFAA
:1001E0000B6070476E2900F0AE83702900F0E38148
:1001F00066290BF0C28665290BF0BF8667290BF0D4
:10020000BC866129AFF3008003681B0A28BF41F058
:100210008001692900F05481642900F05181752919
:1002200000F04E816F2900F0A784782900F0AF819B
:10023000E92900F04184E42900F03E84F52900F02A
:100240003B84EF2900F0A484F82900F0AE81036814
:10025000DB0928BF41F08001632900F0B0837329D6
:1002600000F0B583E32900F07887F32900F07D875B
:10027000002070471FB501F019F80400002000218C
:100280000BF040FC401C6060002000210BF024FCBF
:10029000E0601FBD10B510BD00F0DAFF1146FFF79A
:1002A000E9FF0BF02BFB01F005FB03B4FFF7F2FFB6
:1002B00003BC0BF021FA00000948804709480047B9
:1002C000FEE7FEE7FEE7FEE7FEE7FEE7FEE7FEE706
:1002D000FEE7FEE704480549054A064B7047000063
:1002E000C1AA000831010008E8660020E86C00207F
:1002F000E8680020E8680020EFF3108072B67047CD
:1003000080F310887047204C204D25604FF000048A
:1003100084F309881E4C4FF0010525701D4C4FF0E9
:100320008055256062B6FEE730B41A4C4FF0805518
:10033000256030BC704730B4164C4FF080552560B6
:1003400030BC704700BF72B6EFF3098028B1203887
:1003500080E8F00F10490968086000B50F48804731
:100360005DF804EB0E480F490A7802700A480E49FE
:100370000A680260106890E8F00F203080F3098866
:100380004EF0040E62B6704720ED00E00000FFFF63
:100390006200002004ED00E0680000201D7B0008E2
:1003A0005700002058000020700000207047000017
:1003B0000FB41CB5084B06AA7B446946009005980B
:1003C00000F0DBFA04460020694600F0E9FA204616
:1003D0001CBC5DF814FB0000E50500000FB40449E7
:1003E00010B503AA029800F0F7FA10BC5DF814FBF0
:1003F000240000200FB41CB5084B06AA7B446946B4
:100400000090059800F0B9FA04460020694600F013
:10041000C7FA20461CBC5DF814FB0000A1050000D3
:1004200070B5044685690068C10601D5302600E034
:100430002026C00707D070BDD4E90121304690477F
:10044000206A401C20626D1EF6D570BD70B5044652
:1004500085690078C00707D170BDD4E9012120204B
:100460009047206A401C20626D1EF6D570BD70B5A5
:100470000C460546012A05D02878800600D5EA6991
:10048000002302E0012305E05B1C934202D2E05C02
:100490000028F9D1A869E618C01AA861286A18448A
:1004A00028622846FFF7BCFF04E0D5E9012114F8D3
:1004B000010B9047B442F8D32846FFF7C7FF70BD41
:1004C0002DE9F0410646002410687529314616A52D
:1004D00010D000F0CDF9002802DA404213A507E061
:1004E00031688A0701D512A502E0490704D511A594
:1004F000012401E000F0C5F900210A2206F12407D9
:1005000009E0B0FBF2FCB0FBF2F302FB1C00303060
:1005100078541846491C0028F3D123462A46304611
:10052000BDE8F04100F0B6B9000000002D00000069
:100530002B00000020000000F0B40D4601880905E2
:1005400002D5214C7C4402E01F4C7C440E34002137
:1005500000F1240608E002F00F071209E75D42EA05
:1005600003721B097754491C52EA0307F3D102783E
:100570000023120704D5702D06D009B102231134CF
:100580002246F0BC00F086B901231034F8E770B5BC
:1005900004460D462146106800F073F902462946CC
:1005A0002046BDE870400023C6E7D21D22F00703B5
:1005B000D3E90023C0E70368126843F02003036017
:1005C0000823C3610023B7E724C000002DE9F05FD2
:1005D000894604464FF0000ADFF874B1FB44C0F8C6
:1005E00020A02046E1688847002874D0252806D03E
:1005F000D4E901219047206A401C2062F1E70026DF
:100600005F462046E16888472028054607DB312DF4
:1006100005D2781910F8200C08B10643F1E7B007AD
:1006200001D526F00406C4F81CA00027C4F818A0C1
:100630002A2D09D028460BF058F838B304EB870868
:10064000303DC8F8185019E059F8041B204604EB57
:1006500087029161E1688847012F054618D1E0695A
:10066000002820DA26F020061DE0D8F8180000EB5C
:10067000800005EB40003038C8F818002046E168DB
:10068000884705460BF031F80028EED1012F0AD03B
:100690002E2D08D12046E16888477F1C0546022F91
:1006A00046F02006C4DBA069002803DA404246F089
:1006B0000106A061F00701D026F010066C2D0BD0CA
:1006C000682D09D04C2D39D06A2D35D0742D35D0F8
:1006D0007A2D33D016E038E0E1682F46204688476F
:1006E000B842054609D16C2F26D04FF48060E168EE
:1006F000064320468847054604E06C2F1AD04FF485
:10070000807006430DB3A5F14100192802D82035A9
:1007100046F400664A462946204626604E46FFF7C4
:1007200061FD80B101280BD0F61D26F0070000F115
:10073000080956E74020E4E78020D8E70020D6E704
:1007400006F104094DE7284652E7206ABDE8F09F0C
:10075000B4BF0000032A40F2308010F0030C00F018
:10076000158011F8013BBCF1020F624498BF11F8EB
:1007700001CB00F8013B38BF11F8013BA2F10402A4
:1007800098BF00F801CB38BF00F8013B11F003031C
:1007900000F02580083AC0F0088051F8043B083A80
:1007A00051F804CBA0E80810F5E7121D5CBF51F822
:1007B000043B40F8043BAFF30080D20724BF11F89C
:1007C000013B11F801CB48BF11F8012B24BF00F801
:1007D000013B00F801CB48BF00F8012B704710B572
:1007E000203AC0F00B80B1E81850203AA0E8185029
:1007F000B1E81850A0E81850BFF4F5AF5FEA027CEA
:1008000024BFB1E81850A0E8185044BF18C918C058
:10081000BDE810405FEA827C24BF51F8043B40F8F9
:10082000043B08BF7047D20728BF31F8023B48BFDE
:1008300011F8012B28BF20F8023B48BF00F8012B1C
:10084000704702F0FF0343EA032242EA024200F04B
:10085000FBB9704770477047704710B500F014FA45
:10086000006810BD10B5044600F00EFA046010BD1B
:1008700009684A0501D540B27047C905FCD500B2E8
:10088000704709684A0501D5C0B27047C905FCD553
:1008900080B270472DE9F0470D46994692460446CE
:1008A00000F124080168880604D5E06921F01001F0
:1008B000216000E00120A84201DD471B00E0002785
:1008C000A1697A1902EB0900081AA0612078C00614
:1008D00002D42046FFF7A4FD002608E0D4E9012158
:1008E0001AF806009047206A401C761C20624E458C
:1008F000F4DB2078C0060AD52046FFF791FD06E01C
:10090000D4E9012130209047206A401C2062381E23
:10091000A7F10107F4DC07E0D4E9012118F805008C
:100920009047206A401C2062281EA5F10105F3DCD7
:100930002046FFF78BFD2078000602D50220BDE897
:10094000F0870120FBE711680268006A530501D5B2
:1009500008700AE0D30501D5088006E0130603D528
:10096000C217C1E9000200E00860012070470000E2
:1009700001694A1C02610878704700B58FB0CDE963
:1009800001310021059105497944CDE90310114653
:100990006846FFF71BFE0FB000BD0000E5FFFFFF3C
:1009A0000A6802F8010B0A60704710B5436913B179
:1009B000AFF3008001E0FFF75AFD012010BD12786F
:1009C00000F124010A7000224A700122EDE711684B
:1009D0004FF0FF32E9E70000074B70B50D467B444E
:1009E000FFF7CBFF0446284600F0E3FB10B14FF0C1
:1009F000FF3070BD204670BDA3AD00002DE9FF5F44
:100A000015468A460446DFF8AC80F8440027D8E94A
:100A100000103E46CDE9001010E03AF816106A4684
:100A200002A800F0CAFB411C07D02178890603D533
:100A3000E269391891420DD80744761C2078800667
:100A400002D5E069B84205DDAE42E6DB3AF81600B1
:100A50000028E2D1A069C01BA0612046FFF7E0FC9E
:100A6000D8E90010CDE90010002017E03AF818107E
:100A70006A4602A800F0A1FBB0F1FF3F81460BD00F
:100A800000250DF1080B05E0D4E901211BF8050054
:100A900090476D1C4D45F7D308F10100B0428046E8
:100AA000E4DB206A384420622046FFF7CFFCBDE833
:100AB000FF9F00009ABB00002DE9F0418046D21D47
:100AC00022F007020025D2E90002F52915A614D06C
:100AD000011E72F1000106DA0023D0EB030063EB84
:100AE000020211A608E0D8F800108B0701D50FA666
:100AF00002E0490701D50EA601251146002408F1A0
:100B0000240704E000F0C4F830323A55641C50EA7F
:100B10000102F7D12B46324621464046BDE8F0415E
:100B2000FFF7B8BE000000002D0000002B00000001
:100B30002000000030B4002100F1240408E002F09D
:100B40000705D208303542EA4372DB086554491C78
:100B500052EA0305F3D10468002310A2250708D543
:100B600004F020040C4304D0C46901230CA2641EC9
:100B7000C46130BCFFF78EBE10B504462146106834
:100B8000FFF77FFE02462046BDE810400023D1E774
:100B9000D21D22F00701D1E90023CBE700000000BD
:100BA000300000000FB4002300B589B00CA90091FB
:100BB0000B99CB60204B7B440693204B7B440793DF
:100BC00004236FF00042CDE901321D4A7A446B469E
:100BD0000892024600200BF032FA09B05DF814FBCF
:100BE00070B506464FF0FF3015460C46324686B0CB
:100BF0000091CDE9010169460020049004A8FFF7A7
:100C0000D1FF03460498211825B108B10A4600E037
:100C100022462A6000280DD0002B02DD0098884271
:100C200008D03246081B69460094CDE9010404A8A7
:100C3000FFF7B8FF06B070BDB9050000D105000090
:100C40004B0100004FF000020429C0F0128010F0A8
:100C5000030C00F0D482CCF1040CBCF1020F18BFDD
:100C600000F8012BA8BF20F8022BA1EB0C0100F02B
:100C7000C6BA5FEAC17C24BF00F8012B00F8012B43
:100C800048BF00F8012B7047004870478866002075
:100C900030B5B0F10A024FEA900E71F100034EEA4E
:100CA000817EB0EB0E0061EB91014FEA101E4EEA1F
:100CB000017E10EB0E0041EB11114FEA102E4EEAAF
:100CC000016E10EB0E0041EB11214FEA104E4EEA7F
:100CD000014E10EB0E0041EB1141401841F10001B3
:100CE0004FEAD00040EA41704FEAD10110EB800595
:100CF0004FEA810444EA907444EB01046D1944EB1B
:100D00000404521BA3414FF0000348BF0A3200D530
:100D100030BD401C41F1000130BD10B5044600F06B
:100D2000BDFA0068005D00F0010010BD70472DE9BC
:100D3000FF4F0C461E464FF0FF378BB0D2E9000143
:100D4000DDF860800A908A46C1F30A5505B93D4630
:100D5000002108464FF00000BAF1000F00F44000F7
:100D600005DA00EB80004FF4400101EA50004FEA41
:100D70009059B9F1010F00DDB9460A9850EA4A00CE
:100D80000ED044F61050A5F2FF3545432F14B8F1AC
:100D9000000F1ED07542291E1EDDC9F100021CE0A5
:100DA000B8F1010F4FF0000001D0302103E0F24311
:100DB00005E02154401CB042FBDB304600220021FC
:100DC00021540B99C1F80880C1E900200FB0BDE89B
:100DD000F08FBD1B6D1CDEE74A4600DA694206A8AB
:100DE00000F0FAFC06AB93E8070003AB83E80700CA
:100DF00050460A9900F0EBFF8DE80700A0F500507F
:100E00001F3800900398002D09DD42F21F014A4669
:100E1000084403A90390684601F075FA08E0A0F5BC
:100E200000504A461F3803A90390684601F093FA20
:100E30008DE807000004000C03D04FF0FF3041089C
:100E400000E01046B8F1000F03D0002200921546D2
:100E50001EE0751E05D4FFF71BFF303262556D1E74
:100E6000F9D5B3460122084302D000227F1C04E0DA
:100E70002078302801D100227F1E002A099786D0D1
:100E80001DE0112D07DAFFF703FF303262556D1CAC
:100E900050EA0102F5D1084302D00098C8B10EE033
:100EA0000021681E05E0235C625C63542254401EEE
:100EB000491C8142F7DBAB46A81B401E099000206D
:100EC00004F80B000B98099AC0F80880C0E9002BC1
:100ED0007CE711264FF0000859E72DE9F04F8846CE
:100EE0000446D21D22F0070191B0D1E90001CDE9FD
:100EF0000A010AF080FB02460B98C00F01D02D209A
:100F000007E02068810701D52B2002E0202101EABB
:100F1000C000032A099001D0072A05DB0346414699
:100F2000204600F0C7F90BE12078800601D5E06982
:100F300000E00620B8F1650F814606D0B8F1660FD3
:100F400018D0B8F1670F70D131E00020B9F1110F5E
:100F5000009001DB112301E009F101030AAA01A9B4
:100F60000CA8FFF7E4FEDDE90C70002609F101058D
:100F7000834647E001204B4600904FF000470AAA05
:100F800001A90CA8FFF7D3FEDDE90DB00C995D4671
:100F9000002610B909F101000D18B9EB050003D4C2
:100FA000C0F1FF3609F10105A5EB09002BE0B9F10D
:100FB000010F01DA4FF001090020B9F1110F009083
:100FC000484601DD112300E003460AAA01A90CA846
:100FD000FFF7ADFEDDE90C704D4600268346207814
:100FE00000070AD4AB4500DA5D4601A8012D04DDF7
:100FF000411911F8011C302907D04F4502DA17F1C9
:10100000040F04DA012082460FE06D1EEEE7002F88
:1010100002DCED1B3E4403E0781CA84200DD7D1C91
:10102000B81B00F1010A4FF000472078000703D4F5
:10103000AA4501DB4FF0FF3A0021B7F1004F0DF157
:1010400043088DF8431024D002202B23002F01DA0F
:101050007F422D230A21021EA0F1010000DC5FB1B6
:1010600097FBF1FC97FBF1F201FB1C7C17460CF19E
:10107000300C08F801CDEEE7A8F1010003702188DB
:10108000090501D5452100E06521A0F1010800F81E
:10109000011C09980FA9A1EB0807FF1D00B1012051
:1010A000411901EBEA70A1693844081A401EA06199
:1010B0002078C00602D42046FFF7B2F9099828B17B
:1010C000D4E901219047206A401C20622078C006A4
:1010D00022D52046FFF7A4F91EE0002E04DBB3451D
:1010E00002DD01A8805D00E03020D4E901219047B5
:1010F000206A401C2062761CAAF101005FEA000A07
:101100000AD100F0D3F8C0680168405CD4E901213D
:101110009047206A401C2062281EA5F10105DCDCF6
:1011200007E0D4E9012118F8010B9047206A401C20
:101130002062381EA7F10107F3DC2046FFF786F98D
:10114000032011B043E610B5436913B1AFF300803B
:1011500001E0FFF753FC012010BD128800F12401CB
:1011600082840022C2840122EDE711684FF0FF3231
:10117000E9E7426842B1016811F8013B23B1521E10
:10118000C0E90012184670470121C160881E7047EF
:1011900042685AB1C368016843B983688B4205D07D
:1011A000491E521CC0E90012002070474FF0FF306A
:1011B0007047007B00F08000704770B516460C4603
:1011C000054600F06BF8036893F80101012806D08A
:1011D000FF2C0FD8185D68B101202C7070BDD3F8BA
:1011E00007013246214603F2071303442846BDE8AF
:1011F000704018474FF0FF3070BD4FF0000200B54F
:10120000134694469646203922BFA0E80C50A0E829
:101210000C50B1F12001BFF4F7AF090728BFA0E8D7
:101220000C5048BF0CC05DF804EB890028BF40F8A3
:10123000042B08BF704748BF20F8022B11F0804FE5
:1012400018BF00F8012B70470048704788660020DF
:101250007546FFF7F9FFAE4605006946534620F094
:101260000700854618B020B5FFF734F8BDE82040E8
:101270004FF000064FF000074FF000084FF0000B52
:1012800021F00701AC46ACE8C009ACE8C009ACE805
:10129000C009ACE8C0098D467047000010B500F0E9
:1012A00005F8001D10BD00BF5DA800000048704794
:1012B000A86600202DE9F0411F4604460326016878
:1012C000072A01F4006004DB08B116A505E016A5A5
:1012D00003E008B115A500E015A521F0100020607D
:1012E000A069C01EA0610FB1401EA0612046FFF79B
:1012F00097F84FB1D4E9012138469047206A401C45
:101300002062C01C206206E0206AFAE7D4E90121CD
:1013100015F8010B9047761EF8D22046FFF796F895
:10132000BDE8F0814E414E006E616E00494E4600B0
:10133000696E66002DE9FF4F064689B00878FF28E0
:1013400006D0491C2D2805D000244FF0000908E0E4
:1013500000200CE00124F8E709EB8903491C00EBAD
:1013600043090878FF28F7D114B1C9F1000081467C
:10137000107800252C46AA4629462D2801D02B2876
:1013800004D1521C2D2813D0002082468B461078A1
:10139000FF280FD04FF0000C0A21521CA5FB01784A
:1013A00004FB018105FB0C11C5194BEB0104EEE7B1
:1013B0000120EAE7002108464FF00000BAF1000FD3
:1013C00002D000EB80004008C0F38158B8F1010F53
:1013D00001DD4FF0FF380C9809EB000755EA0400D7
:1013E00009D04FF0020917F5FA7F0BDA4FEACA70FD
:1013F000C6E900B012E04FEACA70C6E900B00DB00D
:10140000BDE8F08FB7F5FA7F0DDDF0487844D0E9FC
:101410000010C6E9001040EACA707060FFF734FCA3
:10142000C0F80090EBE7391E02DAC8F1000200E0D4
:10143000424600DA794206A800F0CEF906AB93E8FE
:10144000070003AB83E8070044F23E005BEA0401B7
:101450000090584604D144F21E012C465D4600918E
:10146000210C0904014306D10099240444EA1544DF
:101470002D041039009104F07F41014306D10099F9
:10148000240244EA15642D020839009104F07041E9
:10149000014306D10099240144EA15742D01091F66
:1014A000009104F04041014306D10099A40044EAB0
:1014B0009574AD00891E009104F00041084304D1E9
:1014C00000986D196441401E009042466846002F06
:1014D000CDE9014503A902DD00F051FF01E000F074
:1014E00026FFBAF1000F04460D4601D084F00044F7
:1014F00040F2FF7724F00040284303D0C4F30A50A1
:10150000B84212D1FFF7C0FBC0F80090C4F30A50F4
:10151000B8420AD1AE487844D0E90010C6E90010BC
:1015200004F000410843706069E7C6E9005466E7CB
:101530002DE9FF4F1F464FF0000A4FF0FF38454698
:1015400091B0D7E90146CDF83CA0FFF7AFFEC068E7
:101550000168405C1090B96912986D1C8847396A1F
:10156000814688470028F6D1B9F1FF3F0AD0002E06
:1015700024F4D06411DDB9F12B0F08D0B9F12D0F8F
:101580000BD102E0404615B03AE744F48064B969F3
:1015900012986D1C8847761E8146600504A901D506
:1015A0002D2000E02B20002E01F1010B0DF1300861
:1015B0008DF810003FDDB9F1690F08D0B9F1490F7E
:1015C00005D0B9F16E0F02D0B9F14E0F1CD13B46D8
:1015D00001A8009580E85002DDE912126FF00200C8
:1015E0000AF031FDC11CCED10EE0B96912986D1C14
:1015F000884781461398761E44F4007405600F985E
:10160000401C002E0F9016DDB9F1300FEDD0B9F16E
:10161000780F02D0B9F1580F0DD10F9801280AD1D7
:101620003B46CDE90054DDE91212001F02960AF094
:1016300008FDC11CA7D1109989453ED144F0800412
:1016400006E01399681CAAF1010A44F400740860CA
:10165000B9696D1C1298761E884730288146F0D0F3
:101660002BE01099894505D1200603D4761E44F05D
:10167000800418E048460AF038F808B3761E0DF1E9
:1016800023018B4544F4007408D2A9F130000BF813
:10169000010B200607D5AAF1010003E0200602D4C1
:1016A0000AF101008246A00502D51399681C086062
:1016B000B96912986D1C88478146002ED1DC53E031
:1016C000002E51DDB9F1650F02D0B9F1450F4BD1B4
:1016D000A00549D5B9696D1C1298761E24F4407492
:1016E0008847002E81460CDD2B2804D0B9F12D0F40
:1016F00007D144F48074B96912986D1C8847761E2E
:101700008146E00501D52D2100E02B2108F8011BC1
:10171000CDF8008021E0761E0DF13901884544F4B2
:1017200000740CD2A9F1300010F0FF0088F800001E
:1017300002D10099884509D908F1010806E0E005C1
:1017400001D5244801E042F20F708246B96912982F
:101750006D1C8847814613980560002E04DD4846BD
:1017600009F0C3FF0028D6D1F96912988847FF20F5
:1017700053468BF8000088F8000000200A900B9078
:1017800004AA0CA90AA8FFF7D5FDA00502D46FF0A2
:101790000100F8E614F0240F0AD0E00714D13868ED
:1017A000DDE90A12031D3B600068C0E900120BE08E
:1017B0000AA9684609F042FFE00705D13868009A97
:1017C000011D3960006802602846DCE610B30000A5
:1017D00006B20000F1D8FFFF2DE9F047814616461A
:1017E0008AB0334878440DC88DE80D0030487844FD
:1017F000801C03AC0DC884E80D0041F69B30084402
:10180000372190FBF1F290FBF1F5A5F1800501FB8A
:1018100012041B3C02D56442012000E00020DFF8E6
:1018200090A080460027FA44AAF1BE0A0DE0E00726
:1018300009D03246684607EB47010AEB810100F008
:101840008AFD8DE8070064107F1C002CEFD1184F33
:101850007F44AC3F18E0E80714D007EB04100DF10B
:10186000180A90E80E008AE80E00C068F04201D124
:1018700098190890324606A903A800F06CFD03AB46
:1018800083E807006D10641C002DE4D132466946E0
:10189000B8F1000F03A802D000F035FD01E000F020
:1018A0005AFDC9E90001C9F808200AB0BDE8F0876F
:1018B00044AE00000446AFF300802046FEF7F5FC7E
:1018C0004FF0013C50F8042B51F8043B9A4221D1CF
:1018D000A2EB0C03934313EACC1317D150F8042B5B
:1018E00051F8043B9A4215D1A2EB0C03934313EA3F
:1018F000CC130BD150F8042B51F8043B9A4209D178
:10190000A2EB0C03934313EACC13DBD04FF000009F
:10191000704700BFD01A01BAB1FA81F101F0180185
:1019200022FA01F0CB40C1F12001DBB2C0B2C01AF3
:101930002CFA01F3D11A914311EAC311E6D1704791
:101940002DE9FF4F1F464FF03C0987B04FF0004292
:10195000DDE9141001F10108DDF858A002EA405059
:101960000390002004908346054604460590B9691B
:10197000461E08988847AAF1010A0290BAF1000FA2
:1019800037DD02982E2815D0102100F012FA002819
:101990002ADB4FF0010B0499014316D0B9F1000F77
:1019A0000BDB4A46C11700F0F1F905430C43A9F1DE
:1019B000040905E00120059007E008B145F00105A4
:1019C00001200490059800B9361DB969089808F1FE
:1019D00001088847BBF1000FAAF1010A0290CDD09F
:1019E0000999C1F80080C9E70298702808D05028EA
:1019F00006D0F96908988847BBF1000F14D04FE072
:101A0000002002900120BBF1000F049009D0B969B9
:101A1000089808F101088847AAF10109B9F1000FF7
:101A200007DCF969089888476FF001000BB0BDE842
:101A3000F08F2B2804D02D280CD14FF0FF300490CC
:101A4000B969089808F101088847A9F10109B9F1B5
:101A5000000FE6DD411CE4D00A2100F0AAF90028BD
:101A6000DFDB029908F1010801EB810100EB410085
:101A70000290B969089888470A2100F09AF9099AF2
:101A8000A9F10109B9F1000FC2F8008001DD0028B9
:101A9000E7DAF969089888470499029800FB01661B
:101AA00055EA040004D004F04041090002D006E0E9
:101AB000039898E0A40044EA9574AD00B61E04F0C3
:101AC0000041080002D16D196441761E159810F08E
:101AD000240F03D04FF00B095C4803E04FF02809B6
:101AE0006FF07D008246564507DAAAEB060189446D
:101AF000B9F1410F01DD4FF0410901200021A9F1A9
:101B0000010200F043F9024628400B4621400843F9
:101B100001D0012100E00021501E029143F1FF316C
:101B200028402140084301D0012000E00020029914
:101B3000834651EA0B014FD0002108464FF00000C8
:101B4000039900F4400039B100EB80004FF44001EC
:101B500000EBD07001EA60008015012802DD4FF033
:101B6000FF3000E013D0401C36D0029860B3BBF1C8
:101B7000000F0CD14A460120002100F007F928404F
:101B80002140084301D0012000E00020E0B1012005
:101B90004A46002100F0FAF8034640190A4661411E
:101BA0002D1A8C4111D3B9F1400F09DD159810F0B1
:101BB000240F02D0AAF1340603E0AAF1170600E0D0
:101BC000761C00254FF0004406E05B1E42F1FF3218
:101BD00020EA030521EA0204CAF10100B04206DA54
:101BE0001B49039808430190002000900EE0039ADF
:101BF000C4F3D321E80A0A43164940EA44500A4391
:101C00003146CDE90002684609F064FD159810F0F0
:101C1000240F0BD01598C00715D13868DDE90012E4
:101C2000031D3B600068C0E900120CE002A8694691
:101C300009F004FD1598C00705D13868029A011D06
:101C40003960006802604046F0E6000002FCFFFFD9
:101C50000000F07F0000F03F2DE9FF4F92461D4647
:101C600085B04FF00041DDE9124BDDE914727F1EB3
:101C700001EA4B50414940F0FF4940EA0108002188
:101C800022F020004928049102D04E2828D04CE0B0
:101C90003BA0012607C88DE80700A9690698641CC7
:101CA00088477F1E014606D41DF8060018B121F0B2
:101CB000200181420BD0E96906988847032E34D071
:101CC000082E32D06FF0010009B0BDE8F08F761C0D
:101CD000032E01D0082EE0D1601CCAF80000DCE71A
:101CE000A9690698641C88477F1E2AD420F020002A
:101CF000412826D1A9690698641C88477F1E20D4F4
:101D000020F020004E281CD1A9690698641C884741
:101D10007F1E48F4002849F48009CAF8004001D425
:101D2000282806D0E969069888475FEACB7012D068
:101D300022E0A9690698641C88477F1E01D4002808
:101D400003DAE96906988847BCE72928F1D1641CC1
:101D5000CAF80040E9E71BF0240F07D0286804996F
:101D6000031D2B600068C0E9001805E02868021D0B
:101D70002A600068C0F800902046A5E70000F07FC8
:101D8000494E46494E49545900000000B2F1200323
:101D90000AD5C2F1200301FA02F120FA03F300FA96
:101DA00002F041EA0301704700FA03F14FF000002E
:101DB00070473A2800D2303820F02002412A01D35F
:101DC000A2F13700884201D34FF0FF3070475FEA3D
:101DD000400C08BF91F0000F4FEA8C234FEAC1225C
:101DE00043EA51514FEA1C5018BF00F5F0404FEA4A
:101DF000300018BF41F000415FEA6C5C00F02980C0
:101E0000BCF1FF3F08BF40F080407047130C06BF95
:101E100012044FF0100C4FF0000C130E04BF12020E
:101E20000CF1080C130F04BF12010CF1040C930FFA
:101E300004BF92000CF1020CD30F04BF52000CF14E
:101E4000010C11464FF00002A0F11F00A0EB0C00A6
:101E5000704711F0004F08BF704731F000413FF468
:101E6000D5AF0B0C06BF09044FF0100C4FF0000C5F
:101E70000B0E04BF09020CF1080C0B0F04BF090183
:101E80000CF1040C8B0F04BF89000CF1020CCB0F7A
:101E900004BF49000CF1010CCCF12003A0EB0C00B5
:101EA00022FA03F302FA0CF241EA030100F1010005
:101EB000704720F07F4C80EA030023F07F47ACEBB3
:101EC000070303F57C5300F0004003F1FF032DE905
:101ED00080494FEA154B09B44FEA144325EA0B4EEB
:101EE00024EA03480FF2042606EB132749083E783C
:101EF0005FEA320203FB0667C7F5000707FB06F639
:101F00004FEA54374FEAD64606F1020607FB066C45
:101F1000CCF1005C4FEA1C472CEA074C07FB06F4A7
:101F20000CFB06F504EB15464FEA961634BF00206D
:101F30004FF000404FEAD13706FB07FC4FEA1C4C3C
:101F40000CFB0BF7D21B03FB0CF761EB07010CFB3F
:101F50000EF7B0EB074072EB17420CFB08F734BFEB
:101F6000A2EB0742B2EB074261EB17414FEA0C4488
:101F70004FEA910706FB07FC4FEA1C4C0CFB0BF7E2
:101F8000B0EBC74072EB573203FB0CF734BFA2EB48
:101F9000C742B2EBC74261EB57310CFB0EF7B0EB17
:101FA000C70072EB57720CFB08F734BFA2EBC702F5
:101FB000B2EBC70261EB5771039F4FEA816141EABF
:101FC000921104EBCC044FEAD1374FEA826206FB50
:101FD00007FC42EA90124FEA80604FEA1C4C0CFB6F
:101FE0000BF7D21B03FB0CF761EB07010CFB0EF7A1
:101FF000B0EB074072EB17420CFB08F734BFA2EBC3
:102000000742B2EB074261EB17414FEA8C554FEAAA
:10201000910704EB9C2406FB07FC4FEA1C4C0CFBCD
:102020000BF7B0EBC74072EB573203FB0CF734BF32
:10203000A2EBC742B2EBC74261EB57310CFB0EF784
:10204000B0EBC70072EB57720CFB08F734BFA2EB82
:10205000C702B2EBC70261EB577115EB4C254FEA93
:10206000816141EA92114FEA82624FEAD13742EA36
:10207000901206FB07FC44F100044FEA80604FEA2F
:102080001C4C0CFB0BF7D21B03FB0CF761EB07019D
:102090000CFB0EF7B0EB074072EB17420CFB08F796
:1020A00034BFA2EB0742B2EB074261EB174115EBDD
:1020B0001C154FEA813141EA92414FEA823242EAED
:1020C00090424FEA80304FEA0C7644F1000448EA2F
:1020D00003434EEA0B484FF0000EB2EB080C71EBD5
:1020E000030724BF624639464EEB0E0E4FF0000B3D
:1020F0000018524149414BEB0B0BB2EB080C71EB52
:1021000003077BF1000B24BF624639464EEB0E0EEF
:102110004FF0000B0018524149414BEB0B0BB2EB57
:10212000080C71EB03077BF1000B24BF62463946B4
:102130004EEB0E0E51EA020718BF46F0010616EBF1
:102140000E7655F1000254F1000103D5BDE8890176
:10215000BDE80088BDE88901BDE80048B6195241D4
:1021600041EB0101A3F10103704780807F7E7D7CFC
:102170007B7A7978777676757473727171706F6E19
:102180006E6D6C6C6B6A6A696868676666656464C4
:10219000636362616160605F5F5E5E5D5D5C5C5B4E
:1021A0005B5A5A59595858575756565555555454BD
:1021B000535352525251515050504F4F4F4E4E4D1B
:1021C0004D4D4C4C4C4B4B4B4A4A4A494949484867
:1021D00048474747474646464545454444444443A7
:1021E00043434342424242414141000046EA0646DF
:1021F000A3F570534FEA164646EA42564FEAD222FA
:1022000042EA415210B54FEAD121A3F1010300F097
:1022100017F820F0004000F1010C00F0004701EB3E
:1022200000501146BCF5006F40EA070000D210BD17
:1022300002484FF0000140EA070010BD0000F07FA7
:10224000002B26D4770021D01CB54FEA370703B402
:102250004FF010004FF010014FF000000FBCBDE830
:1022600010400BF1010BBBF1010F08BF5FEA17072C
:1022700022BF12F1010211F101014FF0004143F1BF
:10228000000300F0004043EA00007047F9D357080C
:10229000DAE746EA064613F1400F4FEA16461FDD1D
:1022A00013F1200FDFBF16430A46002120335B42A3
:1022B000C8D0C3F1200746EA064602FA07F74FEAFC
:1022C000164646EA0706C3F1200722FA03F201FA8E
:1022D00007F721FA03F14FF0000342EA0702B1E7E2
:1022E00046EA020646EA06464FEA164646EA01066E
:1022F000BCBF46EA0646360C4FF000034FF0000222
:102300004FF000019EE72DE9C048934630B491E8B4
:10231000380007C831EA400C48BF34EA430C03D503
:10232000FFF7C7FDFFF78CFFF0BCBDE800882DE983
:10233000C048934630B491E8380007C831EA400CF1
:1023400048BF34EA430C03D5FFF7B3FDFFF74EFF58
:10235000F0BCBDE800882DE9C048934630B491E850
:10236000380007C810F0804F08BF13F0804F03D12A
:1023700000F019F8FFF764FFF0BCBDE800882DE914
:10238000C048934630B491E8380007C810F0804F39
:1023900008BF13F0804F03D100F005F8FFF726FFC8
:1023A000F0BCBDE8008820F07F4780EA030023F0FE
:1023B0007F4C07EB0C03A3F57C5300F00040A3F126
:1023C000FE0392F0000F00F0B38095F0000F00F0D4
:1023D00077802DE901494FEA11404FEA144621EA7E
:1023E000004800FB06FC24EA064708FB06F607FB4C
:1023F00008F800FB07F718EB06484CEB164C4FEAC1
:10240000124B18EB07484FEA15464CEB174022EAEF
:102410000B4E0BFB06FC25EA06470EFB06F607FBF8
:102420000EFE0BFB07F71EEB064E4CEB164C4FF067
:1024300000061EEB074E4CEB174B18EB0B0840F158
:10244000000018EB0E0B58EB000840F100008F1A4B
:102450004FF000013CBFC943661B14BFB5EB040C31
:1024600000213CBFC943F61B4FEA17444EEA8E0ECB
:1024700027EA04454FEA1C4704FB07622CEA074C95
:1024800005FB07F70CFB05F604FB0CFC16EB0746F7
:1024900042EB174216EB0C4642EB1C421BEB0606C6
:1024A00058EB0202414146EA9E0601D5BDE801898A
:1024B000B619524141EB0101A3F10103BDE80189C5
:1024C0004FEA14454FEA114724EA054621EA074C32
:1024D00005FB07F406FB07F70CFB06F105FB0CFCFC
:1024E00011EB074144EB17444FEA124711EB0C4143
:1024F00044EB1C4422EA074C05FB07F206FB07F7F6
:102500000CFB06F605FB0CFC16EB074642EB1742EC
:1025100016EB0C4642EB1C456A1854F1000148BF0B
:102520007047B619524141EB0101A3F10103704715
:1025300095F0000F37D04FEA11424FEA144721EAD5
:10254000024624EA074C02FB07F106FB07F70CFBE7
:1025500006F402FB0CFC14EB074441EB17414FEA75
:10256000154714EB0C4441EB1C4125EA074C02FBD8
:1025700007F506FB07F70CFB06F602FB0CFC16EB57
:10258000074645EB174516EB0C4645EB1C42121966
:1025900051F1000148BF7047B619524141EB0101AA
:1025A000A3F1010370474FEA14454FEA114724EAAB
:1025B000054621EA074C05FB07F106FB07F70CFB74
:1025C00006F24FF0000605FB0CFC12EB074241EB54
:1025D000174112EB0C4251EB1C4148BF7047921857
:1025E00041EB0101A3F10103704721B1826842F080
:1025F0000102826003E0826822F00102826070477B
:1026000021B1826842F48072826003E0826822F421
:10261000807282607047014600208A6802F00402DE
:102620000AB1012000E000207047014600208A68BE
:1026300002F008020AB1012000E00020704700000B
:1026400030B502460020002350680F4C20400D7921
:102650000C6844EA05242043506090680B4C2040ED
:10266000D1E902542C434D7944EA4504204390605B
:10267000D06A20F470000C7C641EE4B2234340EA6C
:102680000350D06230BD0000FFFEF0FFFDF7F1FF08
:10269000F0B504460D4600200021092D11DDE0684B
:1026A000A5F10A0606EB4607072606FA07F1884356
:1026B000A5F10A0606EB460603FA06F10843E060B8
:1026C0000CE0206905EB4507072606FA07F1884369
:1026D00005EB450603FA06F108432061072A0FDAE5
:1026E000606B561E06EB86071F2606FA07F1884325
:1026F000561E06EB860605FA06F10843606322E0E3
:102700000D2A0FDA206BD61F06EB86071F2606FA66
:1027100007F18843D61F06EB860605FA06F1084343
:10272000206310E0E06AA2F10D0606EB86071F2683
:1027300006FA07F18843A2F10D0606EB860605FAB4
:1027400006F10843E062F0BD816841F00801816054
:10275000704721B1826842F4A002826003E082687F
:1027600022F4A00282607047816841F00401816018
:102770007047000000B587B00121480207F010FB48
:102780000920ADF8040000208DF8070001A92148B8
:1027900003F078F90020029001208DF80C008DF8EC
:1027A0000D004FF4602004900020059002208DF869
:1027B000180002A91848FFF743FF072301220A2146
:1027C0001548FFF765FF072302220D211248FFF786
:1027D0005FFF01211048FFF713FF01210E48FFF7AB
:1027E00004FF0D48FFF7B0FF00BF0B48FFF71DFFC8
:1027F0000028FAD10848FFF7B7FF00BF0648FFF7E7
:102800000AFF0028FAD101210348FFF7A2FF07B011
:1028100000BD0000001001400024014070B50646D4
:102820000C46154625B10121054880F8D31003E078
:102830000221034880F8D310204607F007FC70BD42
:10284000D40000202DE9FE4304460D46174611A290
:1028500007CA8DE807000221114880F87F10A7B150
:102860000021684608F0D8F880462B4622464146AB
:10287000684608F0E1F8C6B2002E06DDA05D3128FA
:1028800003D10121064880F87F10284607F0DEFBBF
:10289000BDE8FE832B43474154543A20000000001A
:1028A000D400002070B506460C46154625B101211E
:1028B000054880F8271103E00221034880F827111A
:1028C000204607F0C3FB70BDD400002070B506465B
:1028D0000C46154625B10121054880F88B1003E010
:1028E0000221034880F88B10204607F0AFFB70BD33
:1028F000D400002070B506460C46154625B10121CE
:10290000054880F82B1003E00221034880F82B10C3
:10291000204607F09BFB70BDD400002070B5064632
:102920000C46154625B10121054880F84B1103E0FE
:102930000221034880F84B11204607F087FB70BD49
:10294000D40000207CB505460C4616460EA103C9EE
:10295000CDE9000126B101210D4880F833110FE0C7
:1029600023462A460721684608F066F8002803DD5A
:102970000121074880F833110221054880F83311FE
:10298000204607F063FB7CBD414C52454144590051
:10299000D400002070B506460C46154625B101212D
:1029A000054880F8571103E00221034880F85711C9
:1029B000204607F04BFB70BDD400002070B50646E2
:1029C0000C46154625B10121094880F83F110AE05F
:1029D00008A0FDF703FD2146304604F0DFFC02218C
:1029E000034880F83F11204607F030FB70BD00001F
:1029F000D400002041545F43495053454E445F5436
:102A000043505F494E444558203D206661696C0043
:102A100070B506460C46154625B10121054880F8DB
:102A2000631103E00221034880F86311204607F098
:102A30000DFB70BDD400002070B506460C4615464F
:102A400025B10121054880F8F71003E00221034871
:102A500080F8F710204607F0F9FA70BDD400002086
:102A600070B506460C46154625B10121054880F88B
:102A7000C71003E00221034880F8C710204607F082
:102A8000E5FA70BDD400002070B506460C46154628
:102A900025B10121054880F8A31003E00221034875
:102AA00080F8A310204607F0D1FA70BDD4000020B2
:102AB0002DE9FC4105460C4616460DA103C9CDE99A
:102AC000000186B101210C4880F8AF100021684652
:102AD00007F0A2FF804623462A464146684607F093
:102AE000ABFFC7B200BF204607F0B0FABDE8FC81DB
:102AF000434D474C3A200000D400002070B50646F4
:102B00000C46154625B10121054880F8BB1003E0AD
:102B10000221034880F8BB10204607F097FA70BDE9
:102B2000D400002070B506460C46154625B101219B
:102B3000054880F8371003E00221034880F8371079
:102B4000204607F083FA70BDD400002070B5064619
:102B50000C46154625B10121054880F8431003E0D5
:102B60000221034880F84310204607F06FFA70BD39
:102B7000D400002070B506460C46154625B101214B
:102B8000054880F84F1003E00221034880F84F10F9
:102B9000204607F05BFA70BDD40000202DE9FC410F
:102BA00004460E46174614A103C9CDE900010221CF
:102BB000134880F87310CFB10021684607F02CFF4E
:102BC0008046334622464146684607F035FFC5B287
:102BD000002D0BDDA81C205C312803D0A81C205C34
:102BE000352803D10121064880F87310304607F0DC
:102BF0002DFABDE8FC8100002B435245473A2000E6
:102C0000D40000202DE9FC4704460F46914626A13A
:102C100003C9CDE900010221254880F86710B9F108
:102C2000000F3BD00021684607F0F6FE82463B4687
:102C300022465146684607F0FFFEC5B2002D2DDD45
:102C40004FF00008681C205C2C280AD16019012173
:102C500004F0B5F9B8B1605D3038C6B24FF0010884
:102C600011E06019022104F0AAF960B1605DA0F1E1
:102C7000300606EB86004600681C205C3038304485
:102C8000C6B24FF00108B8F1000F03D01F2E01DCCF
:102C9000084806730121064880F86710384607F097
:102CA000D5F9BDE8FC8700002B4353513A200000C2
:102CB000D4000020703E002070B506460C46154634
:102CC00025B10121054880F8031103E002210348E2
:102CD00080F80311204607F0B9F970BDD400002038
:102CE00070B506460C4615461DB101210448C17455
:102CF00002E002210248C174204607F0A7F970BD26
:102D0000D400002070B506460C46154625B10121B9
:102D1000054880F8871103E00221034880F88711F5
:102D2000204607F093F970BDD400002070B5064628
:102D30000C46154625B10121054880F87B1103E0BA
:102D40000221034880F87B11204607F07FF970BD0F
:102D5000D40000202DE9FC4104460D46164619A179
:102D600003C9CDE900012B4622460821684607F039
:102D700063FE0746002F15DD7EB1E05D312804D1EA
:102D80000321124880F8AB1116E0E05D302813D122
:102D900004210E4880F8AB110EE002210B4880F8A8
:102DA000AB1109E026B10121084880F8AB1103E01E
:102DB0000221064880F8AB11284607F047F9BDE824
:102DC000FC8100002B45475053433A20D40000209B
:102DD00070B506460C46154625B10121054880F818
:102DE0002F1203E00221034880F82F12204607F03B
:102DF0002DF970BDD40000202DE9F04FADF2FC5D3F
:102E000004460F464FF00008C2468BA207CA0DF5D4
:102E1000BE6307C30020CDF8EC0500250026039013
:102E2000029081460221874880F83B1200210DF56F
:102E3000BE6007F0F1FD3B462246014601900DF5CC
:102E4000BE6007F0F9FD0646002E7DDD03E008F1C7
:102E5000010000F0FF0806EB0800205C302804DBCE
:102E600006EB0800205C3928F1DD0FE005EB85005A
:102E70004FF6FF7101EA400506EB0A00205C30388E
:102E8000284485B20AF1010000F0FF0AC245EDDBDB
:102E900006EB0800801C80B202900298284408309B
:102EA0001FFA80F940F2DC50814502DCB5F5806FF5
:102EB00006DD384607F0CAF80DF2FC5DBDE8F08F7C
:102EC00009F10B00874229DA4FF0000B19E0642367
:102ED00000221146104604F05FFE40F2DC5104A8C7
:102EE00004F0E6F9039009F10B010398884204DD30
:102EF0000120CDF8EC0504AC08E00BF101001FFA4D
:102F000080FB5048B0F838025845E0DC00BFDDF8DF
:102F1000EC0518B9039807F099F8CDE7029AA118C3
:102F2000494AB2F8C820494BD0182A4604F060FA42
:102F3000454880682844444988600846B0F8C8007D
:102F40002844A1F8C80000E070E049F24C10404964
:102F500048603D48B0F8C8308268084641683D483E
:102F6000FDF73CFA3848B0F8C800B0F5006F1FDB39
:102F7000354989680122C2EBD121374A02EBC120D1
:102F80004FF40062314901F02DFD2F48B0F8C80020
:102F9000A0F500602C49A1F8C8000846B0F8C800A8
:102FA00030B10846B0F8C8202C49284804F020FA6F
:102FB0002548806826494968884218D1012121485E
:102FC00080F83B122048B0F8C80078B31E49B1F829
:102FD000C8208968C90A204B03EBC1201B4901F0B6
:102FE00001FD00201849A1F8C80088601EE01648BD
:102FF000806817494968884203D9039807F026F882
:103000005AE70021164807F007FD0190A7EB0900D9
:1030100083B204EB09021248019907F00DFD064640
:10302000002E03DD0521074880F83B12384607F0E3
:103030000DF800BF40E700002B4654504745543A76
:1030400020322C00D4000020AC5F0020DC3E0020A9
:103050007066002044C6000800000208DC4600201C
:1030600099C4000870B506460C46154625B10121E5
:10307000054880F8171203E00221034880F8171270
:10308000204606F0E3FF70BDD400002070B5064670
:103090000C46154625B10121054880F8231203E0AE
:1030A0000221034880F82312204606F0CFFF70BDAE
:1030B000D400002070B506460C46154625B1012106
:1030C000054880F8F31103E00221034880F8F3116A
:1030D000204606F0BBFF70BDD400002070B5064648
:1030E0000C46154625B10121054880F80B1203E076
:1030F0000221034880F80B12204606F0A7FF70BD9E
:10310000D400002070B506460C46154625B10121B5
:10311000054880F8471203E00221034880F847126F
:10312000204606F093FF70BDD400002070B506461F
:103130000C46154625B10121054880F8E71103E04A
:103140000221034880F8E711204606F07FFF70BD9A
:10315000D40000202DE9FF5F04460F46924600266A
:10316000B04622A30FCB8DE80F00B14602212348C1
:1031700080F85312BAF1000F33D00021684607F0EF
:103180004BFC83463B4622465946684607F054FCB2
:10319000C5B2002D25DD01E0701CC6B2A819205C67
:1031A000302803DBA819205C3928F5DD0CE009EB99
:1031B00089004FEA400905EB0800205C3038814463
:1031C00008F1010000F0FF08B045F0DB0C48C0F842
:1031D000049041680BA0FDF701F90121074880F830
:1031E0005312384606F032FFBDE8FF9F2B4654507D
:1031F00053495A453A20312C302C0000D40000208D
:10320000706600200D0A20626F6F745F73747275B0
:1032100063742E70726F6772616D5F746F74616C2E
:103220005F73697A65203D202564200D0A00000047
:1032300070B506460C46154625B10121054880F8B3
:10324000DB1103E00221034880F8DB11204606F081
:10325000FDFE70BDD400002070B506460C46154634
:1032600025B10121054880F8FF1103E00221034840
:1032700080F8FF11204606F0E9FE70BDD400002062
:1032800070B506460C4615461DB101200449C871AB
:1032900002E002200249C871204606F0D7FE70BD48
:1032A000D400002070B506460C46154625B1012114
:1032B000054880F86F1103E00221034880F86F1180
:1032C000204606F0C3FE70BDD40000202DE9F04F6B
:1032D00087B004460F46924635A207CA02AB07C321
:1032E0000221364880F89710BAF1000F59D000211A
:1032F00002A807F091FB3B4622460146009002A837
:1033000007F09AFBC5B2002D42DD4FF000092E46B2
:103310003BE0A05D2C2805D14846411C01F0FF0987
:1033200006A90E54B9F1020F2DDB2548007D0228B5
:1033300024D19DF819009DF81810401A401E00F085
:10334000FF0B9DF81800401BC0B205909DF81810A7
:10335000491C08190022594601F018FB0190601918
:103360000122059901F012FB8046B8F1000F05D04B
:103370001449019808600846C0F8048001210F48EC
:1033800080F8971003E0701CC6B2BE42C1DB08E0B3
:103390000C48C07C00F0010018B90121074880F8F2
:1033A0009710384606F052FE07B0BDE8F08F0000D7
:1033B0002B4754504F533A2000000000D400002007
:1033C000965F0020943E00202DE9FC4704460E46FF
:1033D000904616A103C9CDE900010221154880F8E5
:1033E0005B10B8F1000F1CD00021684607F014FBF9
:1033F0008146334622464946684607F01DFBC5B262
:10340000002D0EDD60190F2103F0D9FD074647B1ED
:1034100061190F22084803F0EBFF0121054880F8ED
:103420005B10304606F012FEBDE8FC87494D454969
:103430003A200000D40000207D3E002070B50646F2
:103440000C4615461DB101210448C17702E0022156
:103450000248C177204606F0F9FD70BDD400002077
:10346000FEB504460D46164618A207CA8DE80700A9
:103470002B4622460A21684607F0DEFA0746002F4F
:1034800015DD7EB1E05D312804D10321124880F8BA
:103490009F1116E0E05D302813D104210E4880F81A
:1034A0009F110EE002210C4880F89F1109E026B11F
:1034B0000121094880F89F1103E00221064880F8A5
:1034C0009F11284606F0C2FDFEBD00002B4D47505F
:1034D0005345504F3A200000D4000020FEB504466A
:1034E0000D46164618A207CA8DE807002B4622464D
:1034F0000921684607F0A0FA0746002F15DD7EB1C6
:10350000E05D312804D10321124880F8931116E0C0
:10351000E05D302813D104210E4880F893110EE0AD
:1035200002210C4880F8931109E026B101210948D5
:1035300080F8931103E00221064880F89311284691
:1035400006F084FDFEBD00002B4D47505354533A06
:1035500020000000D400002070B506460C46154639
:1035600025B10121054880F81B1103E00221034821
:1035700080F81B11204606F069FD70BDD4000020C4
:1035800070B506460C46154625B10121054880F860
:103590000F1103E00221034880F80F11204606F0C6
:1035A00055FD70BDD400002070B506460C4615468A
:1035B00025B10121054880F8EB1003E00221034802
:1035C00080F8EB10204606F041FD70BDD4000020CD
:1035D00070B506460C46154625B10121054880F810
:1035E000B71103E00221034880F8B711204606F026
:1035F0002DFD70BDD400002070B506460C46154662
:1036000025B10121054880F8C31103E002210348D8
:1036100080F8C311204606F019FD70BDD4000020CB
:1036200070B506460C46154625B10121054880F8BF
:10363000CF1103E00221034880F8CF11204606F0A5
:1036400005FD70BDD400002070B506460C46154639
:1036500025B10121054880F8DF1003E0022103486D
:1036600080F8DF10204606F0F1FC70BDD400002089
:1036700010B50020124981F8220007F075F80120EA
:103680001049C874002010498870104908704870AB
:103690004FF6FF700E498881012009490870487073
:1036A00088700020C870012008710A490870002045
:1036B00048700120084908704870887010BD0000EB
:1036C000703E0020943E002046030020CC55002090
:1036D000965F00208C0000202C03002010B50120F4
:1036E00006F06EFB002006F06BFB10BD03F0C6FF7A
:1036F00000BFFEE710B50020044908700720044908
:10370000087003F085FEFFF7B3FF10BD2C03002007
:103710008C00002000201649497801B9704720B17B
:1037200001280DD002281FD115E01249097829B1CE
:103730000121114A11700021517016E0012000BFD3
:103740000C49497829B102210B4A11701721517097
:103750000BE0022000BF0749897819B10321064A0E
:10376000117002E0032000BF00BF00BF00BFD5E71B
:103770002C030020703E00208C0000207CB5044605
:10378000182513480190A01C90FBF5F105FB1100D2
:10379000401CC0B28DF8060004F0010058B10D487D
:1037A000006800900098C00800900C20DDE900122D
:1037B00000F08AFB0BE00748001D006800900098AD
:1037C000C00800900C20DDE9002100F07DFB7CBDED
:1037D000F3D10118A06600407CB5044603251348C8
:1037E0000190A01C90FBF5F105FB11001930C0B24F
:1037F0008DF8060004F0010058B10D4800680090F3
:103800000098C00800900D20DDE9002100F05CFB6D
:103810000BE00748001F006800900098C008009067
:103820000D20DDE9001200F04FFB7CBDF3D13D1807
:10383000AC6600401CB5744800780A2820DD0020E2
:10384000714908707148006801900198C0080190A2
:103850009DF80600801C182190FBF1F201FB12007C
:10386000C0B28DF806006948001D006800900098FD
:10387000C00800900C20DDE9002100F025FB12E0DB
:103880006248006862490968884205D15E4800784C
:10389000401C5D49087006E000205B4908705B48E9
:1038A00000685B4908605B4800780A2820DD00203A
:1038B000584908705548006801900198C008019067
:1038C0005248001D006800900098C00800909DF8C4
:1038D0000200801C182190FBF1F201FB1200C0B223
:1038E0008DF802000C20DDE9002100F0EDFA14E073
:1038F0004648001D006848490968884205D1454886
:103900000078401C4349087007E0002041490870D6
:103910003E48001D006840490860404800780A2879
:1039200021DD00203D4908703848083000680190CA
:103930000198C00801909DF80600801C032190FBAF
:10394000F1F201FB1200C0B28DF806002F480C30D6
:10395000006800900098C00800900D20DDE900216B
:1039600000F0B2FA14E02948083000682C490968D0
:10397000884205D129480078401C2849087007E092
:103980000020264908702148083000682449086052
:10399000244800780A2821DD0020224908701B48AD
:1039A0000830006801900198C008019017480C3059
:1039B000006800900098C00800909DF80200801CEC
:1039C000032190FBF1F201FB1200C0B28DF802005E
:1039D0000D20DDE9002100F077FA14E00B48001D0E
:1039E000006811490968884205D10E480078401CDA
:1039F0000C49087007E000200A4908700348001DC0
:103A00000068094908601CBD5C030020A0660040F6
:103A10004C0300205D030020500300205E030020C3
:103A2000540300205F0300205803002010B5044613
:103A30000B48844209D10121480606F0A1F9002172
:103A40004FF0007006F09CF908E00121880606F0AE
:103A500097F900214FF0806006F092F910BD000048
:103A60000064004010B50021837A012202FA03F1BC
:103A70003D4A126842F001023B4B1A603A4A1C323E
:103A800012688A43384B1C331A60027BCAB9364A23
:103A90000C3212688A43344B0C331A604288C38854
:103AA00042EA0343304A4032847A42F83430028892
:103AB000838842EA03432C4A4032847A02EBC402F0
:103AC0005360027B012A19D1274A0C3212680A433B
:103AD000254B0C331A604288038842EA0343224A8A
:103AE0004032847A42F83430C288838842EA034301
:103AF0001D4A4032847A02EBC4025360C27A3AB95A
:103B0000194A121D12688A43174B1B1D1A6006E0E2
:103B1000154A121D12680A43134B1B1D1A600289B5
:103B200032B9114A143212688A430F4B14331A60A7
:103B30000289012A06D10C4A143212680A430A4B40
:103B400014331A60427B012A06D1074A1C321268DC
:103B50000A43054B1C331A60034A126822F0010223
:103B6000014B1A6010BD0000006600401AB14369A5
:103B70000B43436102E043698B434361704730B5B7
:103B8000024600200023146824F002041460146824
:103B900044F00104146000E05B1C546804F001046C
:103BA0001CB94FF6FF74A342F6D1546804F0010427
:103BB0000CB900206CE08C79012C04D1146844F01D
:103BC0008004146003E0146824F080041460CC794D
:103BD000012C04D1146844F04004146003E014681C
:103BE00024F0400414600C7A012C04D1146844F0D1
:103BF0002004146003E0146824F0200414604C7A5C
:103C0000012C04D1146844F01004146003E014681B
:103C100024F0100414608C7A012C04D1146844F050
:103C20000804146003E0146824F008041460CC7ADB
:103C3000012C04D1146844F00404146003E01468F7
:103C400024F0040414608C78A407CD7844EA056459
:103C50000D7944EA05444D7944EA05540D886D1EFA
:103C60002C43D461146824F001041460002300E0A4
:103C70005B1C546804F001041CB14FF6FF74A342AE
:103C8000F6D1546804F001040CB1002000E00120DA
:103C900030BD10B500F5D87303EB01131B6803F0BA
:103CA00004031372137A53B900F5D87303EB0113AD
:103CB0001B6840F2FF7404EA5353136009E000F5F7
:103CC000D87303EB01131B686FF0604404EAD3035D
:103CD000536000F5D87303EB01131B6803F0020374
:103CE000537200F5D87303EB01135B6803F00F0305
:103CF000937200F5D87303EB01135B681B0AD3744E
:103D000000F5D87303EB01139B68D37200F5D873E9
:103D100003EB01139B681C0A147300F5D87303EBC3
:103D200001139B681C0C547300F5D87303EB01134B
:103D30009B681B0E937300F5D87303EB0113DB68CC
:103D4000D37300F5D87303EB0113DB681C0A1474FA
:103D500000F5D87303EB0113DB681C0C547400F5F9
:103D6000D87303EB0113DB681B0E937421B9C3688E
:103D700043F02003C36003E0036943F020030361C1
:103D800010BD00218171C171017241728172C172D5
:103D90008170C170032101710221417101210180F3
:103DA000704710B502460020936803F08063B3F1BA
:103DB000806F00D110E0936803F00063B3F1006FEF
:103DC00001D1012008E0936803F08053B3F1805FD4
:103DD00001D1022000E00420042874D002F5C07351
:103DE00003EB00131B6803F0010402F5C07303EB3F
:103DF00000131C600B7A7BB94B7A0C8843EA44535E
:103E000002F5C07404EB00142468234302F5C07467
:103E100004EB0014236010E00B7A4C6843EAC403FF
:103E20004C7A234302F5C07404EB00142468234346
:103E300002F5C07404EB001423608B7A03F00F03C7
:103E40008B7202F5C07303EB00135B6823F00F0461
:103E500002F5C07303EB00135C6002F5C07303EB63
:103E600000135B688C7A234302F5C07404EB0014E2
:103E700063608B7B1C064B7B44EA03440B7B44EA68
:103E80000323CC7A234302F5C07404EB0014A3602F
:103E90008B7C1C064B7C44EA03440B7C44EA0323E2
:103EA000CC7B234302F5C07404EB0014E36002F5FD
:103EB000C07303EB00131B6843F0010402F5C073E9
:103EC00003EB00131C6010BD2DE9FF4107460D46B2
:103ED00016468DF80A7001208DF80B008DF80C0045
:103EE0002C46E40044F00404200CADF80000A0B21D
:103EF000ADF802003446E40044F00404200CADF8B0
:103F00000400A0B2ADF806000020ADF808000120C2
:103F10008DF80D006846FFF7A5FDBDE8FF810000A4
:103F200000B58BB04FF40060ADF8280048208DF844
:103F30002B000AA94F4801F0A5FD4FF48050ADF8C1
:103F4000280003208DF82A0018208DF82B000AA9DC
:103F5000484801F097FD0121480605F001FF02A83D
:103F600005F034FF4448FFF761FD07A8FFF709FF9C
:103F700000208DF8220001208DF8230000208DF80C
:103F800024008DF825008DF826008DF827008DF887
:103F90001E008DF81F000C208DF8200001208DF8E8
:103FA000210036490498B0FBF1F080B2ADF81C0056
:103FB00007A93148FFF7E3FD08B90BB000BD304A4F
:103FC00030490020FFF780FF2F4A30490120FFF7DA
:103FD0007BFF2F4A2F490220FFF776FF2E4A2F49F9
:103FE0000320FFF771FF2E4A2E490420FFF76CFFD4
:103FF0002D4A2E490520FFF767FF2D4A2D4906203F
:10400000FFF762FF2C4A2D490720FFF75DFF2C4A7E
:104010002C490820FFF758FF2B4A2C490920FFF7AD
:1040200053FF2B4A2249FD390A20FFF74DFF294A49
:1040300029490B20FFF748FF284A29490C20FFF7A0
:1040400043FF284A28490D20FFF73EFF01220221A5
:104050000948FFF78BFD14208DF8040007208DF828
:10406000060001208DF8070001A803F0ADFA00BF9B
:10407000A3E70000000801400064004000093D0083
:104080009E29F8189E28F8189E2CF8189E2BF818D0
:104090009E2EF8189E2DF818D004F1189E15F810D1
:1040A000D006F118D005F118D008F118D007F11892
:1040B0008028FF18D009F1188021FF188020FF18F0
:1040C000802FFF188022FF188324FF188325FF18F4
:1040D0008310FF18FB01F1188305FF18F3D118189E
:1040E000F3D10118F3D13F18F3D13D1810B50446B0
:1040F0000F4890F88C0150B901200D4981F88C01CE
:1041000041030C4801F054FDFFF70AFF10BD00F019
:1041100011FC074890F88D01FF2805D000F0CEF87B
:10412000FF20034981F88D01FFF784FB00BFEDE715
:10413000085E0020000C014030B585B0FF256A46BE
:1041400000215048FFF7A5FD9DF80A0008280ED170
:10415000019C4D4820404C49884213D14B48844231
:1041600006D34B48844203D8200C401EC5B270E0F1
:10417000484884426DD3484884426AD8200C401E87
:10418000C5B266E0454A0198811A90424BD01BDCCB
:10419000434AA0EB020190423DD00BDC4149084468
:1041A00080B34149084400283FD0A0F2D520002820
:1041B0004DD12EE0B1F5807F2FD0B1F5007F2ED00C
:1041C000B1F5407F43D12CE0384A881A914217D08C
:1041D00009DC3748084468B1B0F5807F0CD0B0F5F1
:1041E000407F34D10AE0B0F5807F0CD0B0F5007F7D
:1041F0002DD10AE01B252BE01C2529E01D2527E0F9
:104200001E2525E003E01F2522E0202520E02125B2
:104210001EE022251CE023251AE0242518E0252590
:1042200016E0262514E0272512E09DF80B00012852
:1042300001D128250AE09DF80B00022801D129258B
:1042400004E09DF80B00032800D12A2500E000BF00
:1042500000BF18484555A0F5B07090F88D01FF28B3
:1042600002D1154880F88D51FF2D00D108E0124988
:1042700001EBC50008220DF10B0103F0B9F800BFF6
:1042800005B030BD00640040F3D10018F3D101182F
:10429000F3D11818F3D13D18F3D13F18D009F11814
:1042A000D005F11862EA07EFA31307F8CE22070042
:1042B00032E1F8FF685F0020085E002010B586B08C
:1042C0000024FEE2FE48005DFF2855D0FC48045D56
:1042D000FF210155002C50DB172C4EDCA0F5B070EF
:1042E00010F834008DF80000F64800EBC400407868
:1042F0008DF80100BDF80000A100F34A22F811007A
:10430000F04800EBC40080788DF80000ED4800EB29
:10431000C400C0788DF80100BDF80000012101EB58
:10432000840122F81100E74800EBC40000798DF801
:104330000000E44800EBC40040798DF80100BDF8AE
:104340000000022101EB840122F81100DD4800EB9E
:10435000C40080798DF80000DA4800EBC400C07911
:104360008DF80100BDF80000032101EB840122F863
:1043700011002046FFF702FAA1E2182C11DB1A2CDB
:104380000FDCD24800EBC400CE4901EBC4010A683F
:10439000026049684160A4F11801C8B2FFF71CFA35
:1043A0008DE2282C3CDB2A2C3ADCC64890F84001F0
:1043B0000128E1D1C34890F848010228DCD1C14866
:1043C00090F850010328D7D1F120BE4981F840016F
:1043D000F22081F84801F32081F8500101F24110E8
:1043E000016801918188ADF8081080798DF80A0084
:1043F000B34817380168CDF80B108188ADF80F105D
:1044000080798DF81100AF48B0F85111ADF8121055
:1044100090F853018DF8140001A805F00DFC4EE250
:10442000A4F11B000D286ED2DFE800F007335BA17A
:10443000A2CCF4F2F1F0EFEEED00A24890F8D80033
:10444000A34908709F4890F8D90048709D4890F89B
:10445000DA008DF800009B4890F8DB008DF8010031
:10446000BDF800004880974890F8DC000871954836
:1044700090F8DD004871934890F8DE008DF8000058
:10448000904890F8DF008DF80100BDF80000C8806A
:1044900014E28C4890F8E0008D490872894890F841
:1044A000E1004872874890F8E2008872854890F8E9
:1044B000E300C872834890F8E4000873814890F8DC
:1044C000E50048737F4890F8E6008DF800007D48CD
:1044D00090F8E7008DF80100BDF800007D494881A3
:1044E000ECE1784890F8E8007B490871754890F84D
:1044F000E90048710846007930B9002008608871E9
:10450000C871087232E0D8E17348007901280CD1F3
:104510006C4890F8EE00714908606A4890F8EF0026
:10452000486000208860C86020E06B48007902285D
:104530000CD1644890F8EC0068490860614890F834
:10454000ED00486000208860C8600FE06248007994
:1045500003280BD15B4890F8EA006049086059488D
:1045600090F8EB00486000208860C860A6E1A5E1F3
:10457000544890F8F8005A498875524890F8F90064
:10458000584908704F4890F8FA008DF800004D48DF
:1045900090F8FB008DF80100BDF800004880494804
:1045A00090F8FC008DF80000464890F8FD008DF86A
:1045B0000100BDF800008880424890F8FE0048499C
:1045C000C8757BE13F4890F80001474908703D48B5
:1045D00090F801018DF800003A4890F802018DF83A
:1045E0000100BDF800004880364890F803018DF8BE
:1045F0000000344890F804018DF80100BDF8000077
:104600003849C8805AE135E10CE1E2E0B5E0AAE0C2
:1046100020E0FFE72B4890F80A012E49C87329488B
:1046200090F80B018DF80000264890F80C018DF8E9
:104630000100BDF80000C880224890F80D018DF8F7
:104640000000204890F80E018DF80100BDF8000030
:10465000088133E11B4890F8100100F00F008DF83D
:1046600000009DF80000012808DB9DF800000328E9
:1046700004DC9DF80000174908730DE09DF8000068
:104680000E2803D09DF800000F2805D19DF80000EA
:1046900040F0F0000F4908730A4890F81001000933
:1046A0008DF800009DF8000001281FDB9DF8000038
:1046B00003281BDC9DF800000649887324E00000F5
:1046C000685F0020085E00207C5100203C520020E2
:1046D000C052002080520020D05200204C510020B7
:1046E00066520020DC520020420300209DF80000AA
:1046F0000E2803D09DF800000F2805D19DF800007A
:1047000040F0F00071498873714890F811018DF8FC
:1047100000006F4890F812018DF80100BDF800000C
:104720006A4988806A4890F813018DF8000068484B
:1047300090F814018DF80100654890F815018DF886
:104740000200634890F816018DF803000098086095
:104750000846817B5FA0FBF741FE5C48016867A0CB
:10476000FBF73CFEAAE05A4890F81C015749087430
:10477000574890F81D014874A0E0554890F8200172
:1047800068490870524890F821014870504890F8E4
:10479000220188704E4890F823018DF800004C48A3
:1047A00090F824018DF80100BDF800008880484889
:1047B00090F825018DF80000454890F826018DF805
:1047C0000100BDF80000C880414890F82701C8707A
:1047D00074E03F4890F82801524908703C4890F82E
:1047E00029018DF800003A4890F82A018DF801005F
:1047F000BDF800000881364890F82B018DF80000C4
:10480000334890F82C018DF80100BDF80000488174
:104810002F4890F82D012D4988742D4890F82E01CD
:10482000C8744BE02A4890F830013F490871284885
:1048300090F831018DF80000254890F832018DF88C
:104840000100234890F833018DF80200204890F8C9
:1048500034018DF80300009808601D4890F8350178
:1048600048711B4890F83601C871194890F8370113
:10487000087223E0164890F838012C490860144863
:1048800090F839014860124890F83A018860104861
:1048900090F83B01C8600E4890F83C01244908603C
:1048A0000B4890F83D014860094890F83E01886047
:1048B000074890F83F01C86000E000BF00BF601CDF
:1048C000C4B22B2C7FF7FEAC06B010BD8052002086
:1048D000085E002020675F70726F766568696365A7
:1048E0005F756E696F6E2E4974656D2E6D6F6465B0
:1048F000203D202564200D0A0000000020675F7025
:10490000726F7665686963655F756E696F6E2E4953
:1049100074656D2E6D696C65616765203D20256449
:10492000200D0A0094520020D05200205C5100203B
:104930006C5100201CB504A103C9CDE90001044954
:10494000684600F007F81CBDFD20000000000000D4
:104950007856341230B585B004460D4601950420D2
:104960008DF8080000208DF8090008208DF80A0055
:10497000082221460DF10B0002F03AFD694602487B
:10498000FFF70FFA05B030BD006400402DE9FE4F7F
:1049900081460C4693464FF0000A00BF2146484628
:1049A00002F0F4FA10B90020BDE8FE8F2246494615
:1049B0006846FBF7CFFE00200DF80400684606F0BD
:1049C0009EFE05460E460022054B2846314607F05E
:1049D0009BF9074607F02EF982465046E4E70000AF
:1049E00080842E412DE9F05F0446884616464FF03C
:1049F00004090025AA464FF0010BB4F1006F03D360
:104A0000A0191E49884202D30120BDE8F09F00F0A2
:104A100009FC254604EB060A1948854213D20FE02B
:104A2000284605F05DFD401C48B1284600F07AFBA1
:104A30008146B9F1040F03D04FF0000B02E02D1DA9
:104A40005545EDD300BF4746B9F1040F0CD108E03E
:104A50002046396800F0B0FB042800D003E0241D94
:104A60003F1D5445F4D300BF00F09CFBBBF1010F88
:104A700001D10020C9E70120C7E7000000000808B5
:104A80000000FF1F10B502F0F9FD022000F00EF942
:104A9000002840D0022000F049F820480068204952
:104AA000098808441D490860084640681C4949882F
:104AB00008441A4948601B480078401C194908708E
:104AC00008460078052826DB002008701348006897
:104AD0000521B0FBF1F0114908600846006840F27A
:104AE0002F114843000B0D490860084600880E4905
:104AF00008800A4840680521B0FBF1F0074948608A
:104B00000846406800EB4000C0F3132048600846A8
:104B100080880549488002F0C3FD10BD00000020D8
:104B200084000020080000208800002000F0805150
:104B300011B10349086001E0024948607047000074
:104B4000040402400000024021B1026842F0010268
:104B5000026004E002684FF6FE731A40026070477C
:104B600001684FF6FE721140016000210160416052
:104B70008160C1604B49884208D14A490839496877
:104B800041F00F01474A083A51608AE04549143123
:104B9000884208D143490839496841F0F001414A47
:104BA000083A51607DE03F492831884208D13D49AB
:104BB0000839496841F470613A4A083A516070E036
:104BC00038493C31884208D136490839496841F4AE
:104BD0007041344A083A516063E0324950318842AA
:104BE00008D130490839496841F470212D4A083A02
:104BF000516056E02B496431884208D1294908396F
:104C0000496841F47001274A083A516049E0254952
:104C10007831884208D123490839496841F07061E8
:104C2000204A083A51603CE01F49884206D1011FE2
:104C3000096841F00F01021F116032E01A49143176
:104C4000884208D11849091F096841F0F001164A45
:104C5000121F116025E014492831884208D11249F9
:104C6000091F096841F470610F4A121F116018E0B2
:104C70000D493C31884208D10B49091F096841F4AC
:104C80007041094A121F11600BE0074950318842F8
:104C900007D10549091F096841F47021024A121F12
:104CA00011607047080002400804024001460020DD
:104CB000002201F0805313B1054B1A6801E0054B47
:104CC0001A6802EA01030BB1012000E000207047DE
:104CD00000040240000002401AB103680B43036065
:104CE00002E003688B430360704710B5002202683E
:104CF00047F6F0739A430C6A8B6823430C6923438D
:104D00004C6923438C692343CC6923434C6A234376
:104D10008C6A23431A430260CB6843600B6883604C
:104D20004B68C36010BD10B502F0A8FC02F0B8FCDF
:104D300010BD000000B58DB00121084605F000F857
:104D40001948FFF70DFF19480290194803900020F9
:104D500004900220059000200690802007904000DB
:104D600008908000099020200A9000020B900020FB
:104D70000C9002A90C48FFF7B8FF01210A48FFF781
:104D8000E3FE012202210848FFF7A6FF0B208DF861
:104D9000040004208DF8060001208DF8070001A80A
:104DA00002F012FC0DB000BD080002404C2401408E
:104DB000840000200149086070470000140401408D
:104DC000002123498279002A3AD00A4612680368F2
:104DD0009A430B461A600A1D126803689A430B1D1A
:104DE0001A60027911440A6803681A430A60184A73
:104DF0000832126803689A43154B08331A601A1D6B
:104E0000126803689A43124B0C331A604279102AD5
:104E10000ED11A1F126803681A430D4B08331A602B
:104E20001A1D126803681A43094B0C331A600DE00F
:104E30000749427911440A6803681A430A6005E089
:104E4000027911440A6803689A430A6070470000B7
:104E5000000401400021016001710C214171002119
:104E60008171704710B53248007800B910BD02F06A
:104E7000CFFA3048407D00B1F8E72F48007818B1EC
:104E800000202E494870F1E701202C49487028483D
:104E9000807818B128480079002836D1264890F843
:104EA0002200012800D0E1E701F090FA18B124A017
:104EB000FBF794FADAE72048C07830B101281CD01B
:104EC00002280AD003281ED113E0FEF723FC032892
:104ED00002D102201849C87016E01E48007810B9A7
:104EE00001201C49087000201B4908701349887074
:104EF0000AE006201849087006E018A0FBF76EFAD1
:104F0000FEF7F8FB00E000BF0FE0094880780128B9
:104F10000BD10948007940B107480079022804D034
:104F200008200D4908701E20487000BF9EE7000051
:104F30002C030020965F0020703E002046030020D6
:104F4000B8A8D6FAB6A8CEBBB4F2BFAACAA7B0DC3E
:104F5000200D0A00CC5500208C0000200D0A204CAA
:104F60003231382073656E6420646174612066613B
:104F7000696C2C77652077696C6C20726573657439
:104F8000206C323138206D6F64756C650D0A00003D
:104F900070B504464FF40000B0EB043F01DA002086
:104FA00070BD250305F0FCFC05F0F0FC10210C4859
:104FB00000F0FCFD202005F03FFAC5F3074005F0A6
:104FC0003BFAC5F3072005F037FAE8B205F034FAEA
:104FD0001021034800F0ECFD05F0D8FC0120DFE7CC
:104FE0000008014000B587B0012141F2040004F03F
:104FF000D7FEE020ADF8180018208DF81B00032024
:105000008DF81A0006A91B4800F03CFD1020ADF8F1
:1050100018008DF81B0006A9164800F033FD10217A
:10502000144800F0C5FD0020ADF804004FF4827074
:10503000ADF806000020ADF80800ADF80A00ADF8A4
:105040000C004FF40070ADF80E000820ADF8100011
:105050000020ADF812000720ADF8140001A90648A1
:1050600005F020FA0121044805F002FA012007B0FA
:1050700000BD000000080140003001402DE9F04172
:1050800004460E4617461021104800F08FFD0320FD
:1050900005F0D2F9C4F3074005F0CEF9C4F30720B8
:1050A00005F0CAF9E0B205F0C7F9002505E0FF20D8
:1050B00005F0C2F97055681C85B2BD42F7DB1021BE
:1050C000024800F075FD0120BDE8F08100080140B4
:1050D0002DE9F04106460F4614463019B0F5000F91
:1050E00002D30020BDE8F081F0B2C0F58075AC427B
:1050F00000DC254612E02A463146384605F060FCC1
:10510000AC4200D10BE02F442E44601B84B2B4F5B6
:10511000807F02DD4FF4807500E02546EBE700BF9D
:105120000120DFE730B5044604254FF4302000F0BD
:1051300085F80546042D17D10C48006940F002009F
:105140000A49086108464461006940F0400008616E
:105150004FF4302000F072F805460448006941F62B
:10516000FD71084001490861284630BD0020024019
:1051700004200B49C96801F0010109B101200EE0CA
:105180000749C96801F0040109B1022007E0044998
:10519000C96801F0100109B1032000E00420704744
:1051A000002002400348006940F080000149086186
:1051B000704700000020024078B506460C460425E2
:1051C00000200090E80200F039F80546042D24D1B3
:1051D0001348006940F00100114908613480E80279
:1051E00000F02CF80546042D10D1B01C0090200CC6
:1051F00000990880E80200F021F805460848006997
:1052000041F6FE7108400649086106E0044800695D
:1052100041F6FE71084002490861284678BD000049
:105220000020024002480349486003484860704734
:105230002301674500200240AB89EFCD00B502464F
:105240000423FFF795FF034603E0FFF791FF0346B2
:10525000521E012B01D1002AF7D102B905231846AD
:1052600000BD000010B501F089FE0348006880F41D
:1052700080700149086010BD0C1401402DE9F04117
:10528000044600260027FBF737F80746FFF7EAFF3A
:10529000FFF7C8FF04F10060FFF744FF0546FFF782
:1052A00081FFFFF7DFFF3846FBF72AF8042D00D116
:1052B00001263046BDE8F08130B50346002003F1F9
:1052C000006400BF04E025780D54641C451CA8B29E
:1052D0009042F8DB30BD2DE9F05F06460F46904660
:1052E0004FF0000B4FF0010A06F100643D46FBF75A
:1052F00003F88346FFF7B6FFFFF794FF4FF000096E
:105300000EE020462968FFF757FF20682968884289
:1053100002D04FF0000A05E0241D2D1D09F10409FB
:10532000C145EED300BFFFF73DFFFFF79BFF584697
:10533000FAF7E6FF5046BDE8F09F00002DE9F84F70
:1053400081460E464FF0000B4D4600216FA005F040
:1053500063FB0246294600906CA002F037F800B9C2
:10536000D1E0002169A005F057FB0544002167A0AA
:1053700005F052FB301A86B200240BE00E2C00DB45
:10538000C1E0285D3A2800D106E0295D6148015559
:10539000601CC4B2B442F1DB00BF0D222046611C88
:1053A000CCB25C490A5400220846611C4254254490
:1053B000301B86B200240CE00E2C00DBA3E0285D3D
:1053C000402800D107E0295D524810300155601C8B
:1053D000C4B2B442F0DB00BF0D222046611CCCB247
:1053E0004C4910310A5400220846611C425425449D
:1053F000301B86B2E8782E2808D1E8792E2805D10E
:10540000E87A2E2802D1E87B3A2800D07BE00024FD
:105410001BE0002140480155884611E008EB84005C
:10542000285C00F00F013C48005D00EB800001EBC0
:105430004000C1B23848015508F1010000F0FF08F2
:10544000B8F1030FEADB601CC4B2042CE1DB1035B9
:10545000A6F1100086B22878322805D16878312864
:1054600002D1A8782F2800D04DE0002029490C391E
:1054700081F8A906152127480C3880F8AA16F01ED5
:1054800086B2ED1C701EC4B20BE0285D2F2806D139
:10549000701E001BC7B2281900F1010A03E0601E4C
:1054A000C4B2002CF1DC00BF00201A490C3981F88D
:1054B0006C0094B1601C3E2800DB24E0621C29468D
:1054C0001448603001F094FF0D2212486030611CD6
:1054D00042540022A11C425401E0F7B2AA460FB187
:1054E0003E2F00DB0FE03A4651460A48203001F0DB
:1054F0007FFF0D2107482030C1550022791C4254FE
:105500004FF0010B00BF5846BDE8F88F6674703A43
:105510002F2F0000B85F0020576600203EB509A17C
:1055200003C9CDE90101002101A805F075FA04467F
:105530000220064B224601A90090262001F024FEFD
:105540003EBD0000302C310D0000000075C4000885
:1055500038B502240220084B0022114600900A2090
:1055600001F012FE054890F87F00012801D10124C6
:1055700000E00024204638BD75C40008D400002097
:1055800038B502240220084B002211460090092061
:1055900001F0FAFD054890F87300012801D10124BB
:1055A00000E00024204638BD75C40008D400002067
:1055B0000120704730B591B002242022124909A879
:1055C000FBF70DF920221049203101A8FBF707F95C
:1055D000002101A805F020FA054601AB072209A920
:1055E00000902F2001F0D0FD084890F83B020128E0
:1055F00001D1012405E0054890F83B02022800D1C2
:105600000024204611B030BD2CC50008D400002075
:1056100038B502240220084B0022114600902920B0
:1056200001F0B2FD054890F8F301012801D10124F1
:1056300000E00024204638BD75C40008D4000020D6
:1056400038B502240220084B0022114600902B207E
:1056500001F09AFD054890F80B02012801D10124C0
:1056600000E00024204638BD75C40008D4000020A6
:1056700038B502240220084B002211460090302049
:1056800001F082FD054890F84702012801D101246C
:1056900000E00024204638BD75C40008D400002076
:1056A00038B502240220084B002211460090282021
:1056B00001F06AFD054890F8E701012801D10124B5
:1056C00000E00024204638BD75C40008D400002046
:1056D0001FB502240BA207CA01AB07C30A2001AB06
:1056E000002211460090312001F04EFD084890F84C
:1056F0005302012801D1012400E00024204604B017
:1057000010BD00002B46545053495A453A20000022
:10571000D400002038B502240220084B0022114694
:105720000090272001F030FD054890F8DB010128AA
:1057300001D1012400E00024204638BD75C40008D2
:10574000D400002038B502240220084B0022114664
:1057500000902A2001F018FD054890F8FF0101286B
:1057600001D1012400E00024204638BD75C40008A2
:10577000D400002010B502247948007808B9052427
:10578000E4E0774890F8C2061B286ED2DFE800F00C
:105790000EDBDBDBDBDBDBDBDBDBDBDBDB1F2C3933
:1057A0004653606E7B8895AFC3A2D3000D206C4931
:1057B00081F8C206002081F8C600A1F8B806A1F859
:1057C000C800886081F8C10666494860BCE0FFF700
:1057D000EFFE0446012C04D10E20614981F8C20677
:1057E00001E004B9B2E0AFE0FFF7CAFE0446012CC5
:1057F00004D10F205A4981F8C20601E004B9A5E09E
:10580000A2E0FFF7A5FE0446012C04D11020544964
:1058100081F8C20601E004B998E095E000F0A4F830
:105820000446012C04D111204D4981F8C20601E043
:1058300004B98BE088E0FFF76DFF0446012C04D12A
:105840001220474981F8C20601E004B97EE07BE0FE
:10585000FFF726FF0446012C04D11320404981F8AC
:10586000C20601E004B971E06EE06CE0FFF7D0FE23
:105870000446012C04D11420394981F8C20601E004
:1058800004B963E060E0FFF75DFF0446012C04D13A
:105890001520334981F8C20601E004B956E053E00F
:1058A000FFF7CEFE0446012C04D116202C4981F8C6
:1058B000C20601E004B949E046E000F097F804466A
:1058C000012C04D11720264981F8C20601E004B951
:1058D0003CE039E0FFF7FCFE0446012C04D1172020
:1058E0001F4981F8C20601E004B92FE02CE0FFF760
:1058F00061FE0446012C04D11820194981F8C20622
:1059000008E0022C04D11720154981F8C20601E0F5
:1059100004B91BE018E0FFF7ABFE0446012C07D1E9
:105920001A200F4981F8C206012081F8C10601E062
:1059300004B90BE008E0FFF7F1FD0020084981F809
:10594000C206087000E000BF00BF00BF34B91A20D3
:10595000034981F8C206012081F8C600204610BD27
:10596000AC5F00207066002038B5002402201A4B7E
:1059700015221A490090262001F006FC184890F8DC
:10598000CF01012801D1012401E0204638BD0220C9
:10599000114B122213490090262001F0F5FB10480C
:1059A00090F8CF01012801D1012401E02046EDE764
:1059B0000220094B04220C490090262001F0E4FB50
:1059C000074890F8CF01012801D1012401E02046C9
:1059D000DCE72046DAE7000075C4000875C300085C
:1059E000D40000208BC300089EC3000810B58AB005
:1059F000002420221F4902A8FAF7F1FE02201E4BC4
:105A00000022114600902C2001F0BEFB1B4890F8AC
:105A10001702012801D1012402E020460AB010BD7E
:105A200000240220144B0022114600902D2001F08A
:105A3000ABFB124890F82302012801D1012401E0B8
:105A40002046EBE7FFF744FE044600240B200C4BF6
:105A50000022114600902E2001F096FB074890F896
:105A60002F02012801D1012401E02046D6E720467B
:105A7000D4E700000CC5000875C40008D40000205D
:105A800099C400082DE9F0410246002500260020B7
:105A900000230024002791F803C00CF00F0591F8B3
:105AA00003C00CF0100CBCF1000F03D091F802C041
:105AB0004CEA050591F800C0BCF1000F31D0146824
:105AC00000202BE04FF0010C0CFA00F3B1F800C0FD
:105AD0000CEA03069E4220D183004FF00F0C0CFA13
