:020000040800F2
:10000000F0640020B9020008017600080D6F0008B6
:100010004B7400085535000823B5000800000000A7
:1000200000000000000000000000000043A60008DF
:10003000434C0008000000004703000815AC00080E
:10004000D3020008CF820008D3020008F9A00008FC
:10005000D3020008D3020008D3020008D30200082C
:10006000D3020008D3020008D3020008A149000807
:10007000D3020008D3020008D3020008D30200080C
:10008000D3020008D3020008D3020008D3020008FC
:100090001BB50008D3020008D3020008D3020008F1
:1000A000D3020008D3020008D3020008D3020008DC
:1000B000D3020008E1AD0008D3020008D302000813
:1000C000D3020008D3020008D3020008D3020008BC
:1000D000D302000805B2000881B20008F1B200089E
:1000E000D3020008D3020008D3020008D30200089C
:1000F000D3020008D3020008D3020008D30200088C
:10010000D3020008D3020008D3020008D30200087B
:100110000DB1000889B10008D3020008D30200081D
:10012000D3020008D3020008D3020008D30200085B
:1001300000F002F800F0B0F80AA090E8000C824449
:100140008344AAF10107DA4501D100F0A5F8AFF226
:10015000090EBAE80F0013F0010F18BFFB1A43F0A5
:1001600001031847C0C80000E0C800000A444FF06F
:10017000000C10F8013B13F0070408BF10F8014B06
:100180001D1108BF10F8015B641E05D010F8016B4B
:10019000641E01F8016BF9D113F0080F1EBF10F8AF
:1001A000014BAD1C0C1B09D16D1E58BF01F801CBD2
:1001B000FAD505E014F8016B01F8016B6D1EF9D555
:1001C0009142D6D37047000000230024002500266A
:1001D000103A28BF78C1FBD8520728BF30C148BFAA
:1001E0000B6070476E2900F0AE83702900F0E38148
:1001F00066290CF0A48065290CF0A18067290CF019
:100200009E806129AFF3008003681B0A28BF41F07C
:100210008001692900F05481642900F05181752919
:1002200000F04E816F2900F0A784782900F0AF819B
:10023000E92900F04184E42900F03E84F52900F02A
:100240003B84EF2900F0A484F82900F0AE81036814
:10025000DB0928BF41F08001632900F0B0837329D6
:1002600000F0B583E32900F07887F32900F07D875B
:10027000002070471FB501F019F80400002000218C
:100280000BF022FE401C6060002000210BF006FEF7
:10029000E0601FBD10B510BD00F0DAFF1146FFF79A
:1002A000E9FF0BF01FFC01F005FB03B4FFF7F2FFC1
:1002B00003BC0BF015FB00000948804709480047C4
:1002C000FEE7FEE7FEE7FEE7FEE7FEE7FEE7FEE706
:1002D000FEE7FEE704480549054A064B7047000063
:1002E00031AC000831010008F05E0020F06400200D
:1002F000F0600020F0600020EFF3108072B67047CD
:1003000080F310887047204C204D25604FF000048A
:1003100084F309881E4C4FF0010525701D4C4FF0E9
:100320008055256062B6FEE730B41A4C4FF0805518
:10033000256030BC704730B4164C4FF080552560B6
:1003400030BC704700BF72B6EFF3098028B1203887
:1003500080E8F00F10490968086000B50F48804731
:100360005DF804EB0E480F490A7802700A480E49FE
:100370000A680260106890E8F00F203080F3098866
:100380004EF0040E62B6704720ED00E00000FFFF63
:100390006200002004ED00E068000020617B00089E
:1003A0005700002058000020700000207047000017
:1003B0000FB41CB5084B06AA7B446946009005980B
:1003C00000F0DBFA04460020694600F0E9FA204616
:1003D0001CBC5DF814FB0000E50500000FB40449E7
:1003E00010B503AA029800F0F7FA10BC5DF814FBF0
:1003F000240000200FB41CB5084B06AA7B446946B4
:100400000090059800F0B9FA04460020694600F013
:10041000C7FA20461CBC5DF814FB0000A1050000D3
:1004200070B5044685690068C10601D5302600E034
:100430002026C00707D070BDD4E90121304690477F
:10044000206A401C20626D1EF6D570BD70B5044652
:1004500085690078C00707D170BDD4E9012120204B
:100460009047206A401C20626D1EF6D570BD70B5A5
:100470000C460546012A05D02878800600D5EA6991
:10048000002302E0012305E05B1C934202D2E05C02
:100490000028F9D1A869E618C01AA861286A18448A
:1004A00028622846FFF7BCFF04E0D5E9012114F8D3
:1004B000010B9047B442F8D32846FFF7C7FF70BD41
:1004C0002DE9F0410646002410687529314616A52D
:1004D00010D000F0CDF9002802DA404213A507E061
:1004E00031688A0701D512A502E0490704D511A594
:1004F000012401E000F0C5F900210A2206F12407D9
:1005000009E0B0FBF2FCB0FBF2F302FB1C00303060
:1005100078541846491C0028F3D123462A46304611
:10052000BDE8F04100F0B6B9000000002D00000069
:100530002B00000020000000F0B40D4601880905E2
:1005400002D5214C7C4402E01F4C7C440E34002137
:1005500000F1240608E002F00F071209E75D42EA05
:1005600003721B097754491C52EA0307F3D102783E
:100570000023120704D5702D06D009B102231134CF
:100580002246F0BC00F086B901231034F8E770B5BC
:1005900004460D462146106800F073F902462946CC
:1005A0002046BDE870400023C6E7D21D22F00703B5
:1005B000D3E90023C0E70368126843F02003036017
:1005C0000823C3610023B7E702C300002DE9F05FF1
:1005D000894604464FF0000ADFF874B1FB44C0F8C6
:1005E00020A02046E1688847002874D0252806D03E
:1005F000D4E901219047206A401C2062F1E70026DF
:100600005F462046E16888472028054607DB312DF4
:1006100005D2781910F8200C08B10643F1E7B007AD
:1006200001D526F00406C4F81CA00027C4F818A0C1
:100630002A2D09D028460BF04CF938B304EB870873
:10064000303DC8F8185019E059F8041B204604EB57
:1006500087029161E1688847012F054618D1E0695A
:10066000002820DA26F020061DE0D8F8180000EB5C
:10067000800005EB40003038C8F818002046E168DB
:10068000884705460BF025F90028EED1012F0AD046
:100690002E2D08D12046E16888477F1C0546022F91
:1006A00046F02006C4DBA069002803DA404246F089
:1006B0000106A061F00701D026F010066C2D0BD0CA
:1006C000682D09D04C2D39D06A2D35D0742D35D0F8
:1006D0007A2D33D016E038E0E1682F46204688476F
:1006E000B842054609D16C2F26D04FF48060E168EE
:1006F000064320468847054604E06C2F1AD04FF485
:10070000807006430DB3A5F14100192802D82035A9
:1007100046F400664A462946204626604E46FFF7C4
:1007200061FD80B101280BD0F61D26F0070000F115
:10073000080956E74020E4E78020D8E70020D6E704
:1007400006F104094DE7284652E7206ABDE8F09F0C
:1007500092C20000032A40F2308010F0030C00F037
:10076000158011F8013BBCF1020F624498BF11F8EB
:1007700001CB00F8013B38BF11F8013BA2F10402A4
:1007800098BF00F801CB38BF00F8013B11F003031C
:1007900000F02580083AC0F0088051F8043B083A80
:1007A00051F804CBA0E80810F5E7121D5CBF51F822
:1007B000043B40F8043BAFF30080D20724BF11F89C
:1007C000013B11F801CB48BF11F8012B24BF00F801
:1007D000013B00F801CB48BF00F8012B704710B572
:1007E000203AC0F00B80B1E81850203AA0E8185029
:1007F000B1E81850A0E81850BFF4F5AF5FEA027CEA
:1008000024BFB1E81850A0E8185044BF18C918C058
:10081000BDE810405FEA827C24BF51F8043B40F8F9
:10082000043B08BF7047D20728BF31F8023B48BFDE
:1008300011F8012B28BF20F8023B48BF00F8012B1C
:10084000704702F0FF0343EA032242EA024200F04B
:10085000FBB9704770477047704710B500F014FA45
:10086000006810BD10B5044600F00EFA046010BD1B
:1008700009684A0501D540B27047C905FCD500B2E8
:10088000704709684A0501D5C0B27047C905FCD553
:1008900080B270472DE9F0470D46994692460446CE
:1008A00000F124080168880604D5E06921F01001F0
:1008B000216000E00120A84201DD471B00E0002785
:1008C000A1697A1902EB0900081AA0612078C00614
:1008D00002D42046FFF7A4FD002608E0D4E9012158
:1008E0001AF806009047206A401C761C20624E458C
:1008F000F4DB2078C0060AD52046FFF791FD06E01C
:10090000D4E9012130209047206A401C2062381E23
:10091000A7F10107F4DC07E0D4E9012118F805008C
:100920009047206A401C2062281EA5F10105F3DCD7
:100930002046FFF78BFD2078000602D50220BDE897
:10094000F0870120FBE711680268006A530501D5B2
:1009500008700AE0D30501D5088006E0130603D528
:10096000C217C1E9000200E00860012070470000E2
:1009700001694A1C02610878704700B58FB0CDE963
:1009800001310021059105497944CDE90310114653
:100990006846FFF71BFE0FB000BD0000E5FFFFFF3C
:1009A0000A6802F8010B0A60704710B5436913B179
:1009B000AFF3008001E0FFF75AFD012010BD12786F
:1009C00000F124010A7000224A700122EDE711684B
:1009D0004FF0FF32E9E70000074B70B50D467B444E
:1009E000FFF7CBFF0446284600F0E3FB10B14FF0C1
:1009F000FF3070BD204670BD8BAF00002DE9FF5F5A
:100A000015468A460446DFF8AC80F8440027D8E94A
:100A100000103E46CDE9001010E03AF816106A4684
:100A200002A800F0CAFB411C07D02178890603D533
:100A3000E269391891420DD80744761C2078800667
:100A400002D5E069B84205DDAE42E6DB3AF81600B1
:100A50000028E2D1A069C01BA0612046FFF7E0FC9E
:100A6000D8E90010CDE90010002017E03AF818107E
:100A70006A4602A800F0A1FBB0F1FF3F81460BD00F
:100A800000250DF1080B05E0D4E901211BF8050054
:100A900090476D1C4D45F7D308F10100B0428046E8
:100AA000E4DB206A384420622046FFF7CFFCBDE833
:100AB000FF9F000076BE00002DE9F0418046D21D68
:100AC00022F007020025D2E90002F52915A614D06C
:100AD000011E72F1000106DA0023D0EB030063EB84
:100AE000020211A608E0D8F800108B0701D50FA666
:100AF00002E0490701D50EA601251146002408F1A0
:100B0000240704E000F0C4F830323A55641C50EA7F
:100B10000102F7D12B46324621464046BDE8F0415E
:100B2000FFF7B8BE000000002D0000002B00000001
:100B30002000000030B4002100F1240408E002F09D
:100B40000705D208303542EA4372DB086554491C78
:100B500052EA0305F3D10468002310A2250708D543
:100B600004F020040C4304D0C46901230CA2641EC9
:100B7000C46130BCFFF78EBE10B504462146106834
:100B8000FFF77FFE02462046BDE810400023D1E774
:100B9000D21D22F00701D1E90023CBE700000000BD
:100BA000300000000FB4002300B589B00CA90091FB
:100BB0000B99CB60204B7B440693204B7B440793DF
:100BC00004236FF00042CDE901321D4A7A446B469E
:100BD0000892024600200BF014FC09B05DF814FBEB
:100BE00070B506464FF0FF3015460C46324686B0CB
:100BF0000091CDE9010169460020049004A8FFF7A7
:100C0000D1FF03460498211825B108B10A4600E037
:100C100022462A6000280DD0002B02DD0098884271
:100C200008D03246081B69460094CDE9010404A8A7
:100C3000FFF7B8FF06B070BDB9050000D105000090
:100C40004B0100004FF000020429C0F0128010F0A8
:100C5000030C00F0D482CCF1040CBCF1020F18BFDD
:100C600000F8012BA8BF20F8022BA1EB0C0100F02B
:100C7000C6BA5FEAC17C24BF00F8012B00F8012B43
:100C800048BF00F8012B704700487047905E002075
:100C900030B5B0F10A024FEA900E71F100034EEA4E
:100CA000817EB0EB0E0061EB91014FEA101E4EEA1F
:100CB000017E10EB0E0041EB11114FEA102E4EEAAF
:100CC000016E10EB0E0041EB11214FEA104E4EEA7F
:100CD000014E10EB0E0041EB1141401841F10001B3
:100CE0004FEAD00040EA41704FEAD10110EB800595
:100CF0004FEA810444EA907444EB01046D1944EB1B
:100D00000404521BA3414FF0000348BF0A3200D530
:100D100030BD401C41F1000130BD10B5044600F06B
:100D2000BDFA0068005D00F0010010BD70472DE9BC
:100D3000FF4F0C461E464FF0FF378BB0D2E9000143
:100D4000DDF860800A908A46C1F30A5505B93D4630
:100D5000002108464FF00000BAF1000F00F44000F7
:100D600005DA00EB80004FF4400101EA50004FEA41
:100D70009059B9F1010F00DDB9460A9850EA4A00CE
:100D80000ED044F61050A5F2FF3545432F14B8F1AC
:100D9000000F1ED07542291E1EDDC9F100021CE0A5
:100DA000B8F1010F4FF0000001D0302103E0F24311
:100DB00005E02154401CB042FBDB304600220021FC
:100DC00021540B99C1F80880C1E900200FB0BDE89B
:100DD000F08FBD1B6D1CDEE74A4600DA694206A8AB
:100DE00000F0FAFC06AB93E8070003AB83E80700CA
:100DF00050460A9900F0EBFF8DE80700A0F500507F
:100E00001F3800900398002D09DD42F21F014A4669
:100E1000084403A90390684601F075FA08E0A0F5BC
:100E200000504A461F3803A90390684601F093FA20
:100E30008DE807000004000C03D04FF0FF3041089C
:100E400000E01046B8F1000F03D0002200921546D2
:100E50001EE0751E05D4FFF71BFF303262556D1E74
:100E6000F9D5B3460122084302D000227F1C04E0DA
:100E70002078302801D100227F1E002A099786D0D1
:100E80001DE0112D07DAFFF703FF303262556D1CAC
:100E900050EA0102F5D1084302D00098C8B10EE033
:100EA0000021681E05E0235C625C63542254401EEE
:100EB000491C8142F7DBAB46A81B401E099000206D
:100EC00004F80B000B98099AC0F80880C0E9002BC1
:100ED0007CE711264FF0000859E72DE9F04F8846CE
:100EE0000446D21D22F0070191B0D1E90001CDE9FD
:100EF0000A010AF074FC02460B98C00F01D02D20A5
:100F000007E02068810701D52B2002E0202101EABB
:100F1000C000032A099001D0072A05DB0346414699
:100F2000204600F0C7F90BE12078800601D5E06982
:100F300000E00620B8F1650F814606D0B8F1660FD3
:100F400018D0B8F1670F70D131E00020B9F1110F5E
:100F5000009001DB112301E009F101030AAA01A9B4
:100F60000CA8FFF7E4FEDDE90C70002609F101058D
:100F7000834647E001204B4600904FF000470AAA05
:100F800001A90CA8FFF7D3FEDDE90DB00C995D4671
:100F9000002610B909F101000D18B9EB050003D4C2
:100FA000C0F1FF3609F10105A5EB09002BE0B9F10D
:100FB000010F01DA4FF001090020B9F1110F009083
:100FC000484601DD112300E003460AAA01A90CA846
:100FD000FFF7ADFEDDE90C704D4600268346207814
:100FE00000070AD4AB4500DA5D4601A8012D04DDF7
:100FF000411911F8011C302907D04F4502DA17F1C9
:10100000040F04DA012082460FE06D1EEEE7002F88
:1010100002DCED1B3E4403E0781CA84200DD7D1C91
:10102000B81B00F1010A4FF000472078000703D4F5
:10103000AA4501DB4FF0FF3A0021B7F1004F0DF157
:1010400043088DF8431024D002202B23002F01DA0F
:101050007F422D230A21021EA0F1010000DC5FB1B6
:1010600097FBF1FC97FBF1F201FB1C7C17460CF19E
:10107000300C08F801CDEEE7A8F1010003702188DB
:10108000090501D5452100E06521A0F1010800F81E
:10109000011C09980FA9A1EB0807FF1D00B1012051
:1010A000411901EBEA70A1693844081A401EA06199
:1010B0002078C00602D42046FFF7B2F9099828B17B
:1010C000D4E901219047206A401C20622078C006A4
:1010D00022D52046FFF7A4F91EE0002E04DBB3451D
:1010E00002DD01A8805D00E03020D4E901219047B5
:1010F000206A401C2062761CAAF101005FEA000A07
:101100000AD100F0D3F8C0680168405CD4E901213D
:101110009047206A401C2062281EA5F10105DCDCF6
:1011200007E0D4E9012118F8010B9047206A401C20
:101130002062381EA7F10107F3DC2046FFF786F98D
:10114000032011B043E610B5436913B1AFF300803B
:1011500001E0FFF753FC012010BD128800F12401CB
:1011600082840022C2840122EDE711684FF0FF3231
:10117000E9E7426842B1016811F8013B23B1521E10
:10118000C0E90012184670470121C160881E7047EF
:1011900042685AB1C368016843B983688B4205D07D
:1011A000491E521CC0E90012002070474FF0FF306A
:1011B0007047007B00F08000704770B516460C4603
:1011C000054600F06BF8036893F80101012806D08A
:1011D000FF2C0FD8185D68B101202C7070BDD3F8BA
:1011E00007013246214603F2071303442846BDE8AF
:1011F000704018474FF0FF3070BD4FF0000200B54F
:10120000134694469646203922BFA0E80C50A0E829
:101210000C50B1F12001BFF4F7AF090728BFA0E8D7
:101220000C5048BF0CC05DF804EB890028BF40F8A3
:10123000042B08BF704748BF20F8022B11F0804FE5
:1012400018BF00F8012B704700487047905E0020DF
:101250007546FFF7F9FFAE4605006946534620F094
:101260000700854618B020B5FFF734F8BDE82040E8
:101270004FF000064FF000074FF000084FF0000B52
:1012800021F00701AC46ACE8C009ACE8C009ACE805
:10129000C009ACE8C0098D467047000010B500F0E9
:1012A00005F8001D10BD00BF21AC000000487047CC
:1012B000B05E00202DE9F0411F4604460326016878
:1012C000072A01F4006004DB08B116A505E016A5A5
:1012D00003E008B115A500E015A521F0100020607D
:1012E000A069C01EA0610FB1401EA0612046FFF79B
:1012F00097F84FB1D4E9012138469047206A401C45
:101300002062C01C206206E0206AFAE7D4E90121CD
:1013100015F8010B9047761EF8D22046FFF796F895
:10132000BDE8F0814E414E006E616E00494E4600B0
:10133000696E66002DE9FF4F064689B00878FF28E0
:1013400006D0491C2D2805D000244FF0000908E0E4
:1013500000200CE00124F8E709EB8903491C00EBAD
:1013600043090878FF28F7D114B1C9F1000081467C
:10137000107800252C46AA4629462D2801D02B2876
:1013800004D1521C2D2813D0002082468B461078A1
:10139000FF280FD04FF0000C0A21521CA5FB01784A
:1013A00004FB018105FB0C11C5194BEB0104EEE7B1
:1013B0000120EAE7002108464FF00000BAF1000FD3
:1013C00002D000EB80004008C0F38158B8F1010F53
:1013D00001DD4FF0FF380C9809EB000755EA0400D7
:1013E00009D04FF0020917F5FA7F0BDA4FEACA70FD
:1013F000C6E900B012E04FEACA70C6E900B00DB00D
:10140000BDE8F08FB7F5FA7F0DDDF0487844D0E9FC
:101410000010C6E9001040EACA707060FFF734FCA3
:10142000C0F80090EBE7391E02DAC8F1000200E0D4
:10143000424600DA794206A800F0CEF906AB93E8FE
:10144000070003AB83E8070044F23E005BEA0401B7
:101450000090584604D144F21E012C465D4600918E
:10146000210C0904014306D10099240444EA1544DF
:101470002D041039009104F07F41014306D10099F9
:10148000240244EA15642D020839009104F07041E9
:10149000014306D10099240144EA15742D01091F66
:1014A000009104F04041014306D10099A40044EAB0
:1014B0009574AD00891E009104F00041084304D1E9
:1014C00000986D196441401E009042466846002F06
:1014D000CDE9014503A902DD00F051FF01E000F074
:1014E00026FFBAF1000F04460D4601D084F00044F7
:1014F00040F2FF7724F00040284303D0C4F30A50A1
:10150000B84212D1FFF7C0FBC0F80090C4F30A50F4
:10151000B8420AD1AE487844D0E90010C6E90010BC
:1015200004F000410843706069E7C6E9005466E7CB
:101530002DE9FF4F1F464FF0000A4FF0FF38454698
:1015400091B0D7E90146CDF83CA0FFF7AFFEC068E7
:101550000168405C1090B96912986D1C8847396A1F
:10156000814688470028F6D1B9F1FF3F0AD0002E06
:1015700024F4D06411DDB9F12B0F08D0B9F12D0F8F
:101580000BD102E0404615B03AE744F48064B969F3
:1015900012986D1C8847761E8146600504A901D506
:1015A0002D2000E02B20002E01F1010B0DF1300861
:1015B0008DF810003FDDB9F1690F08D0B9F1490F7E
:1015C00005D0B9F16E0F02D0B9F14E0F1CD13B46D8
:1015D00001A8009580E85002DDE912126FF00200C8
:1015E0000AF013FFC11CCED10EE0B96912986D1C30
:1015F000884781461398761E44F4007405600F985E
:10160000401C002E0F9016DDB9F1300FEDD0B9F16E
:10161000780F02D0B9F1580F0DD10F9801280AD1D7
:101620003B46CDE90054DDE91212001F02960AF094
:10163000EAFEC11CA7D1109989453ED144F080042F
:1016400006E01399681CAAF1010A44F400740860CA
:10165000B9696D1C1298761E884730288146F0D0F3
:101660002BE01099894505D1200603D4761E44F05D
:10167000800418E048460AF02CF908B3761E0DF1F4
:1016800023018B4544F4007408D2A9F130000BF813
:10169000010B200607D5AAF1010003E0200602D4C1
:1016A0000AF101008246A00502D51399681C086062
:1016B000B96912986D1C88478146002ED1DC53E031
:1016C000002E51DDB9F1650F02D0B9F1450F4BD1B4
:1016D000A00549D5B9696D1C1298761E24F4407492
:1016E0008847002E81460CDD2B2804D0B9F12D0F40
:1016F00007D144F48074B96912986D1C8847761E2E
:101700008146E00501D52D2100E02B2108F8011BC1
:10171000CDF8008021E0761E0DF13901884544F4B2
:1017200000740CD2A9F1300010F0FF0088F800001E
:1017300002D10099884509D908F1010806E0E005C1
:1017400001D5244801E042F20F708246B96912982F
:101750006D1C8847814613980560002E04DD4846BD
:101760000AF0B7F80028D6D1F96912988847FF2007
:1017700053468BF8000088F8000000200A900B9078
:1017800004AA0CA90AA8FFF7D5FDA00502D46FF0A2
:101790000100F8E614F0240F0AD0E00714D13868ED
:1017A000DDE90A12031D3B600068C0E900120BE08E
:1017B0000AA968460AF036F8E00705D13868009AA9
:1017C000011D3960006802602846DCE634B600007E
:1017D0002AB50000F1D8FFFF2DE9F04781461646F3
:1017E0008AB0334878440DC88DE80D0030487844FD
:1017F000801C03AC0DC884E80D0041F69B30084402
:10180000372190FBF1F290FBF1F5A5F1800501FB8A
:1018100012041B3C02D56442012000E00020DFF8E6
:1018200090A080460027FA44AAF1BE0A0DE0E00726
:1018300009D03246684607EB47010AEB810100F008
:101840008AFD8DE8070064107F1C002CEFD1184F33
:101850007F44AC3F18E0E80714D007EB04100DF10B
:10186000180A90E80E008AE80E00C068F04201D124
:1018700098190890324606A903A800F06CFD03AB46
:1018800083E807006D10641C002DE4D132466946E0
:10189000B8F1000F03A802D000F035FD01E000F020
:1018A0005AFDC9E90001C9F808200AB0BDE8F0876F
:1018B00020B100000446AFF300802046FEF7F5FC9F
:1018C0004FF0013C50F8042B51F8043B9A4221D1CF
:1018D000A2EB0C03934313EACC1317D150F8042B5B
:1018E00051F8043B9A4215D1A2EB0C03934313EA3F
:1018F000CC130BD150F8042B51F8043B9A4209D178
:10190000A2EB0C03934313EACC13DBD04FF000009F
:10191000704700BFD01A01BAB1FA81F101F0180185
:1019200022FA01F0CB40C1F12001DBB2C0B2C01AF3
:101930002CFA01F3D11A914311EAC311E6D1704791
:101940002DE9FF4F1F464FF03C0987B04FF0004292
:10195000DDE9141001F10108DDF858A002EA405059
:101960000390002004908346054604460590B9691B
:10197000461E08988847AAF1010A0290BAF1000FA2
:1019800037DD02982E2815D0102100F012FA002819
:101990002ADB4FF0010B0499014316D0B9F1000F77
:1019A0000BDB4A46C11700F0F1F905430C43A9F1DE
:1019B000040905E00120059007E008B145F00105A4
:1019C00001200490059800B9361DB969089808F1FE
:1019D00001088847BBF1000FAAF1010A0290CDD09F
:1019E0000999C1F80080C9E70298702808D05028EA
:1019F00006D0F96908988847BBF1000F14D04FE072
:101A0000002002900120BBF1000F049009D0B969B9
:101A1000089808F101088847AAF10109B9F1000FF7
:101A200007DCF969089888476FF001000BB0BDE842
:101A3000F08F2B2804D02D280CD14FF0FF300490CC
:101A4000B969089808F101088847A9F10109B9F1B5
:101A5000000FE6DD411CE4D00A2100F0AAF90028BD
:101A6000DFDB029908F1010801EB810100EB410085
:101A70000290B969089888470A2100F09AF9099AF2
:101A8000A9F10109B9F1000FC2F8008001DD0028B9
:101A9000E7DAF969089888470499029800FB01661B
:101AA00055EA040004D004F04041090002D006E0E9
:101AB000039898E0A40044EA9574AD00B61E04F0C3
:101AC0000041080002D16D196441761E159810F08E
:101AD000240F03D04FF00B095C4803E04FF02809B6
:101AE0006FF07D008246564507DAAAEB060189446D
:101AF000B9F1410F01DD4FF0410901200021A9F1A9
:101B0000010200F043F9024628400B4621400843F9
:101B100001D0012100E00021501E029143F1FF316C
:101B200028402140084301D0012000E00020029914
:101B3000834651EA0B014FD0002108464FF00000C8
:101B4000039900F4400039B100EB80004FF44001EC
:101B500000EBD07001EA60008015012802DD4FF033
:101B6000FF3000E013D0401C36D0029860B3BBF1C8
:101B7000000F0CD14A460120002100F007F928404F
:101B80002140084301D0012000E00020E0B1012005
:101B90004A46002100F0FAF8034640190A4661411E
:101BA0002D1A8C4111D3B9F1400F09DD159810F0B1
:101BB000240F02D0AAF1340603E0AAF1170600E0D0
:101BC000761C00254FF0004406E05B1E42F1FF3218
:101BD00020EA030521EA0204CAF10100B04206DA54
:101BE0001B49039808430190002000900EE0039ADF
:101BF000C4F3D321E80A0A43164940EA44500A4391
:101C00003146CDE90002684609F058FE159810F0FB
:101C1000240F0BD01598C00715D13868DDE90012E4
:101C2000031D3B600068C0E900120CE002A8694691
:101C300009F0F8FD1598C00705D13868029A011D12
:101C40003960006802604046F0E6000002FCFFFFD9
:101C50000000F07F0000F03F2DE9FF4F92461D4647
:101C600085B04FF00041DDE9124BDDE914727F1EB3
:101C700001EA4B50414940F0FF4940EA0108002188
:101C800022F020004928049102D04E2828D04CE0B0
:101C90003BA0012607C88DE80700A9690698641CC7
:101CA00088477F1E014606D41DF8060018B121F0B2
:101CB000200181420BD0E96906988847032E34D071
:101CC000082E32D06FF0010009B0BDE8F08F761C0D
:101CD000032E01D0082EE0D1601CCAF80000DCE71A
:101CE000A9690698641C88477F1E2AD420F020002A
:101CF000412826D1A9690698641C88477F1E20D4F4
:101D000020F020004E281CD1A9690698641C884741
:101D10007F1E48F4002849F48009CAF8004001D425
:101D2000282806D0E969069888475FEACB7012D068
:101D300022E0A9690698641C88477F1E01D4002808
:101D400003DAE96906988847BCE72928F1D1641CC1
:101D5000CAF80040E9E71BF0240F07D0286804996F
:101D6000031D2B600068C0E9001805E02868021D0B
:101D70002A600068C0F800902046A5E70000F07FC8
:101D8000494E46494E49545900000000B2F1200323
:101D90000AD5C2F1200301FA02F120FA03F300FA96
:101DA00002F041EA0301704700FA03F14FF000002E
:101DB00070473A2800D2303820F02002412A01D35F
:101DC000A2F13700884201D34FF0FF3070475FEA3D
:101DD000400C08BF91F0000F4FEA8C234FEAC1225C
:101DE00043EA51514FEA1C5018BF00F5F0404FEA4A
:101DF000300018BF41F000415FEA6C5C00F02980C0
:101E0000BCF1FF3F08BF40F080407047130C06BF95
:101E100012044FF0100C4FF0000C130E04BF12020E
:101E20000CF1080C130F04BF12010CF1040C930FFA
:101E300004BF92000CF1020CD30F04BF52000CF14E
:101E4000010C11464FF00002A0F11F00A0EB0C00A6
:101E5000704711F0004F08BF704731F000413FF468
:101E6000D5AF0B0C06BF09044FF0100C4FF0000C5F
:101E70000B0E04BF09020CF1080C0B0F04BF090183
:101E80000CF1040C8B0F04BF89000CF1020CCB0F7A
:101E900004BF49000CF1010CCCF12003A0EB0C00B5
:101EA00022FA03F302FA0CF241EA030100F1010005
:101EB000704720F07F4C80EA030023F07F47ACEBB3
:101EC000070303F57C5300F0004003F1FF032DE905
:101ED00080494FEA154B09B44FEA144325EA0B4EEB
:101EE00024EA03480FF2042606EB132749083E783C
:101EF0005FEA320203FB0667C7F5000707FB06F639
:101F00004FEA54374FEAD64606F1020607FB066C45
:101F1000CCF1005C4FEA1C472CEA074C07FB06F4A7
:101F20000CFB06F504EB15464FEA961634BF00206D
:101F30004FF000404FEAD13706FB07FC4FEA1C4C3C
:101F40000CFB0BF7D21B03FB0CF761EB07010CFB3F
:101F50000EF7B0EB074072EB17420CFB08F734BFEB
:101F6000A2EB0742B2EB074261EB17414FEA0C4488
:101F70004FEA910706FB07FC4FEA1C4C0CFB0BF7E2
:101F8000B0EBC74072EB573203FB0CF734BFA2EB48
:101F9000C742B2EBC74261EB57310CFB0EF7B0EB17
:101FA000C70072EB57720CFB08F734BFA2EBC702F5
:101FB000B2EBC70261EB5771039F4FEA816141EABF
:101FC000921104EBCC044FEAD1374FEA826206FB50
:101FD00007FC42EA90124FEA80604FEA1C4C0CFB6F
:101FE0000BF7D21B03FB0CF761EB07010CFB0EF7A1
:101FF000B0EB074072EB17420CFB08F734BFA2EBC3
:102000000742B2EB074261EB17414FEA8C554FEAAA
:10201000910704EB9C2406FB07FC4FEA1C4C0CFBCD
:102020000BF7B0EBC74072EB573203FB0CF734BF32
:10203000A2EBC742B2EBC74261EB57310CFB0EF784
:10204000B0EBC70072EB57720CFB08F734BFA2EB82
:10205000C702B2EBC70261EB577115EB4C254FEA93
:10206000816141EA92114FEA82624FEAD13742EA36
:10207000901206FB07FC44F100044FEA80604FEA2F
:102080001C4C0CFB0BF7D21B03FB0CF761EB07019D
:102090000CFB0EF7B0EB074072EB17420CFB08F796
:1020A00034BFA2EB0742B2EB074261EB174115EBDD
:1020B0001C154FEA813141EA92414FEA823242EAED
:1020C00090424FEA80304FEA0C7644F1000448EA2F
:1020D00003434EEA0B484FF0000EB2EB080C71EBD5
:1020E000030724BF624639464EEB0E0E4FF0000B3D
:1020F0000018524149414BEB0B0BB2EB080C71EB52
:1021000003077BF1000B24BF624639464EEB0E0EEF
:102110004FF0000B0018524149414BEB0B0BB2EB57
:10212000080C71EB03077BF1000B24BF62463946B4
:102130004EEB0E0E51EA020718BF46F0010616EBF1
:102140000E7655F1000254F1000103D5BDE8890176
:10215000BDE80088BDE88901BDE80048B6195241D4
:1021600041EB0101A3F10103704780807F7E7D7CFC
:102170007B7A7978777676757473727171706F6E19
:102180006E6D6C6C6B6A6A696868676666656464C4
:10219000636362616160605F5F5E5E5D5D5C5C5B4E
:1021A0005B5A5A59595858575756565555555454BD
:1021B000535352525251515050504F4F4F4E4E4D1B
:1021C0004D4D4C4C4C4B4B4B4A4A4A494949484867
:1021D00048474747474646464545454444444443A7
:1021E00043434342424242414141000046EA0646DF
:1021F000A3F570534FEA164646EA42564FEAD222FA
:1022000042EA415210B54FEAD121A3F1010300F097
:1022100017F820F0004000F1010C00F0004701EB3E
:1022200000501146BCF5006F40EA070000D210BD17
:1022300002484FF0000140EA070010BD0000F07FA7
:10224000002B26D4770021D01CB54FEA370703B402
:102250004FF010004FF010014FF000000FBCBDE830
:1022600010400BF1010BBBF1010F08BF5FEA17072C
:1022700022BF12F1010211F101014FF0004143F1BF
:10228000000300F0004043EA00007047F9D357080C
:10229000DAE746EA064613F1400F4FEA16461FDD1D
:1022A00013F1200FDFBF16430A46002120335B42A3
:1022B000C8D0C3F1200746EA064602FA07F74FEAFC
:1022C000164646EA0706C3F1200722FA03F201FA8E
:1022D00007F721FA03F14FF0000342EA0702B1E7E2
:1022E00046EA020646EA06464FEA164646EA01066E
:1022F000BCBF46EA0646360C4FF000034FF0000222
:102300004FF000019EE72DE9C048934630B491E8B4
:10231000380007C831EA400C48BF34EA430C03D503
:10232000FFF7C7FDFFF78CFFF0BCBDE800882DE983
:10233000C048934630B491E8380007C831EA400CF1
:1023400048BF34EA430C03D5FFF7B3FDFFF74EFF58
:10235000F0BCBDE800882DE9C048934630B491E850
:10236000380007C810F0804F08BF13F0804F03D12A
:1023700000F019F8FFF764FFF0BCBDE800882DE914
:10238000C048934630B491E8380007C810F0804F39
:1023900008BF13F0804F03D100F005F8FFF726FFC8
:1023A000F0BCBDE8008820F07F4780EA030023F0FE
:1023B0007F4C07EB0C03A3F57C5300F00040A3F126
:1023C000FE0392F0000F00F0B38095F0000F00F0D4
:1023D00077802DE901494FEA11404FEA144621EA7E
:1023E000004800FB06FC24EA064708FB06F607FB4C
:1023F00008F800FB07F718EB06484CEB164C4FEAC1
:10240000124B18EB07484FEA15464CEB174022EAEF
:102410000B4E0BFB06FC25EA06470EFB06F607FBF8
:102420000EFE0BFB07F71EEB064E4CEB164C4FF067
:1024300000061EEB074E4CEB174B18EB0B0840F158
:10244000000018EB0E0B58EB000840F100008F1A4B
:102450004FF000013CBFC943661B14BFB5EB040C31
:1024600000213CBFC943F61B4FEA17444EEA8E0ECB
:1024700027EA04454FEA1C4704FB07622CEA074C95
:1024800005FB07F70CFB05F604FB0CFC16EB0746F7
:1024900042EB174216EB0C4642EB1C421BEB0606C6
:1024A00058EB0202414146EA9E0601D5BDE801898A
:1024B000B619524141EB0101A3F10103BDE80189C5
:1024C0004FEA14454FEA114724EA054621EA074C32
:1024D00005FB07F406FB07F70CFB06F105FB0CFCFC
:1024E00011EB074144EB17444FEA124711EB0C4143
:1024F00044EB1C4422EA074C05FB07F206FB07F7F6
:102500000CFB06F605FB0CFC16EB074642EB1742EC
:1025100016EB0C4642EB1C456A1854F1000148BF0B
:102520007047B619524141EB0101A3F10103704715
:1025300095F0000F37D04FEA11424FEA144721EAD5
:10254000024624EA074C02FB07F106FB07F70CFBE7
:1025500006F402FB0CFC14EB074441EB17414FEA75
:10256000154714EB0C4441EB1C4125EA074C02FBD8
:1025700007F506FB07F70CFB06F602FB0CFC16EB57
:10258000074645EB174516EB0C4645EB1C42121966
:1025900051F1000148BF7047B619524141EB0101AA
:1025A000A3F1010370474FEA14454FEA114724EAAB
:1025B000054621EA074C05FB07F106FB07F70CFB74
:1025C00006F24FF0000605FB0CFC12EB074241EB54
:1025D000174112EB0C4251EB1C4148BF7047921857
:1025E00041EB0101A3F101037047000070B50646FD
:1025F0000C46154625B10121054880F8D31003E0AB
:102600000221034880F8D310204607F0CDFD70BDAD
:10261000D40000202DE9FE4304460D46174611A2C2
:1026200007CA8DE807000221114880F87F10A7B182
:102630000021684608F0A8FA80462B46224641460B
:10264000684608F0B1FAC6B2002E06DDA05D31285A
:1026500003D10121064880F87F10284607F0A4FD29
:10266000BDE8FE832B43474154543A20000000004C
:10267000D400002070B506460C46154625B1012150
:10268000054880F8271103E00221034880F827114C
:10269000204607F089FD70BDD400002070B50646C5
:1026A0000C46154625B10121054880F88B1003E042
:1026B0000221034880F88B10204607F075FD70BD9D
:1026C000D400002070B506460C46154625B1012100
:1026D000054880F82B1003E00221034880F82B10F6
:1026E000204607F061FD70BDD400002070B506469D
:1026F0000C46154625B10121054880F84B1103E031
:102700000221034880F84B11204607F04DFD70BDB3
:10271000D40000207CB505460C4616460EA103C920
:10272000CDE9000126B101210D4880F833110FE0F9
:1027300023462A460721684608F036FA002803DDBA
:102740000121074880F833110221054880F8331130
:10275000204607F029FD7CBD414C524541445900BB
:10276000D400002070B506460C46154625B101215F
:10277000054880F8571103E00221034880F85711FB
:10278000204607F011FD70BDD400002070B506464C
:102790000C46154625B10121094880F83F110AE091
:1027A00008A0FDF71BFE2146304604F02BFE022157
:1027B000034880F83F11204607F0F6FC70BD00008A
:1027C000D400002041545F43495053454E445F5468
:1027D00043505F494E444558203D206661696C0076
:1027E00070B506460C46154625B10121054880F80E
:1027F000631103E00221034880F86311204607F0CB
:10280000D3FC70BDD400002070B506460C461546BA
:1028100025B10121054880F8F71003E002210348A3
:1028200080F8F710204607F0BFFC70BDD4000020F0
:1028300070B506460C46154625B10121054880F8BD
:10284000C71003E00221034880F8C710204607F0B4
:10285000ABFC70BDD400002070B506460C46154692
:1028600025B10121054880F8A31003E002210348A7
:1028700080F8A310204607F097FC70BDD40000201C
:102880002DE9FC4105460C4616460DA103C9CDE9CC
:10289000000186B101210C4880F8AF100021684684
:1028A00008F072F9804623462A464146684608F0F9
:1028B0007BF9C7B200BF204607F076FCBDE8FC817B
:1028C000434D474C3A200000D400002070B5064626
:1028D0000C46154625B10121054880F8BB1003E0E0
:1028E0000221034880F8BB10204607F05DFC70BD54
:1028F000D400002070B506460C46154625B10121CE
:10290000054880F8371003E00221034880F83710AB
:10291000204607F049FC70BDD400002070B5064683
:102920000C46154625B10121054880F8431003E007
:102930000221034880F84310204607F035FC70BDA3
:10294000D400002070B506460C46154625B101217D
:10295000054880F84F1003E00221034880F84F102B
:10296000204607F021FC70BDD40000202DE9FC4179
:1029700004460E46174614A103C9CDE90001022101
:10298000134880F87310CFB10021684608F0FCF8B6
:102990008046334622464146684608F005F9C5B2EE
:1029A000002D0BDDA81C205C312803D0A81C205C66
:1029B000352803D10121064880F87310304607F00E
:1029C000F3FBBDE8FC8100002B435245473A200051
:1029D000D40000202DE9FC4704460F46914626A16D
:1029E00003C9CDE900010221254880F86710B9F13B
:1029F000000F3BD00021684608F0C6F882463B46EF
:102A000022465146684608F0CFF8C5B2002D2DDDAC
:102A10004FF00008681C205C2C280AD160190121A5
:102A200004F099FAB8B1605D3038C6B24FF00108D1
:102A300011E06019022104F08EFA60B1605DA0F12E
:102A4000300606EB86004600681C205C30383044B7
:102A5000C6B24FF00108B8F1000F03D01F2E01DC01
:102A6000084806730121064880F86710384607F0C9
:102A70009BFBBDE8FC8700002B4353513A2000002C
:102A8000D40000207836002070B506460C46154666
:102A900025B10121054880F8031103E00221034814
:102AA00080F80311204607F07FFB70BDD4000020A2
:102AB00070B506460C4615461DB101210448C17487
:102AC00002E002210248C174204607F06DFB70BD90
:102AD000D400002070B506460C46154625B10121EC
:102AE000054880F8871103E00221034880F8871128
:102AF000204607F059FB70BDD400002070B5064693
:102B00000C46154625B10121054880F87B1103E0EC
:102B10000221034880F87B11204607F045FB70BD79
:102B2000D40000202DE9FC4104460D46164619A1AB
:102B300003C9CDE900012B4622460821684608F06A
:102B400033F80746002F15DD7EB1E05D312804D152
:102B50000321124880F8AB1116E0E05D302813D154
:102B600004210E4880F8AB110EE002210B4880F8DA
:102B7000AB1109E026B10121084880F8AB1103E050
:102B80000221064880F8AB11284607F00DFBBDE88E
:102B9000FC8100002B45475053433A20D4000020CD
:102BA00070B506460C46154625B10121054880F84A
:102BB0002F1203E00221034880F82F12204607F06D
:102BC000F3FA70BDD40000202DE9F04FADF2FC5DAA
:102BD000054688460024A2460020CDF8E4050026DC
:102BE00081460190009000272B222146641C0DF5A0
:102BF000BD60425446222146641C42545422214660
:102C0000641C425450222146641C425447222146EF
:102C1000641C425445222146641C425454222146DD
:102C2000641C42543A222046611CCCB20DF5BD61B1
:102C30000A5420222046611CCCB20DF5BD610A5415
:102C400032222046611CCCB20DF5BD610A542C2203
:102C50002046611CCCB20DF5BD610A54002220460D
:102C6000611CCCB20DF5BD610A54002402219048CC
:102C700080F83B1243462A460B210DF5BD6007F054
:102C800093FF8146B9F1000F7DDD01E0601CC4B205
:102C900009EB0400285C302804DB09EB0400285C05
:102CA0003928F3DD0FE006EB86004FF6FF7101EAED
:102CB000400609EB0A00285C3038304486B20AF13D
:102CC000010000F0FF0AA245EDDB06B9E7E009EBE1
:102CD0000400801C80B2009000983044083087B215
:102CE00040F2DC50874202DCB6F5806F06DD4046DC
:102CF00007F05AFA0DF2FC5DBDE8F08F07F10B000A
:102D0000804529DA4FF0000B19E0642300221146B8
:102D1000104604F063FF40F2DC5102A804F014FBFB
:102D2000019007F10B010198884204DD0120CDF8E4
:102D3000E40502AD08E00BF101001FFA80FB5C48DE
:102D4000B0F838025845E0DC00BFDDF8E40518B9FA
:102D5000019807F029FACDE7009AA918554AB2F868
:102D6000C820554BD018324604F064FB51488068A7
:102D70003044504988600846B0F8C8003044A1F893
:102D8000C800084600E08EE0B0F8C83082684B48C2
:102D900041684B48FDF722FB4648B0F8C800B0F543
:102DA000006F1FDB434989680122C2EBD121454AEC
:102DB00002EBC1204FF400623F4901F0A1FD3D4804
:102DC000B0F8C800A0F500603A49A1F8C80008466C
:102DD000B0F8C80030B10846B0F8C8203A493648C3
:102DE00004F028FB3348806834494968884232D16E
:102DF00020208DF8F00531208DF8F1052C208DF87C
:102E0000F20530208DF8F30500208DF8F405A8EBCD
:102E1000070083B2EA190C210DF5BD6007F0C4FE6E
:102E2000002840DD0121224880F83B122148B0F8FB
:102E3000C800C0B31F49B1F8C8208968C90A214B2E
:102E400003EBC1201C4901F05BFD00201949A1F8EA
:102E5000C800886027E01748806818494968884298
:102E600003D9019807F0A0F944E731208DF8F00567
:102E70002C208DF8F10531208DF8F20500208DF819
:102E8000F305A8EB070083B2EA190B210DF5BD602D
:102E900007F08AFE8146B9F1000F04DD00BF05216D
:102EA000034880F83B12404607F07EF900BF21E757
:102EB000D4000020B4570020E4360020785E0020C3
:102EC00020C9000800000208E43E002070B5064654
:102ED0000C46154625B10121054880F8171203E07C
:102EE0000221034880F81712204607F05DF970BDF3
:102EF000D400002070B506460C46154625B10121C8
:102F0000054880F8231203E00221034880F82312C9
:102F1000204607F049F970BDD400002070B5064680
:102F20000C46154625B10121054880F8F31103E050
:102F30000221034880F8F311204607F035F970BDEF
:102F4000D400002070B506460C46154625B1012177
:102F5000054880F80B1203E00221034880F80B12A9
:102F6000204607F021F970BDD400002070B5064658
:102F70000C46154625B10121054880F8471203E0AB
:102F80000221034880F84712204607F00DF970BD72
:102F9000D400002070B506460C46154625B1012127
:102FA000054880F8E71103E00221034880F8E711A3
:102FB000204607F0F9F870BDD40000202DE9FF5F2E
:102FC00004460F4692460026B04622A30FCB8DE85A
:102FD0000F00B1460221234880F85312BAF1000FC6
:102FE00033D00021684607F0CFFD83463B4622469A
:102FF0005946684607F0D8FDC5B2002D25DD01E031
:10300000701CC6B2A819205C302803DBA819205C0C
:103010003928F5DD0CE009EB89004FEA400905EBA2
:103020000800205C3038814408F1010000F0FF08FE
:10303000B045F0DB0C48C0F8049041680BA0FDF7E8
:10304000CDF90121074880F85312384607F0ACF853
:10305000BDE8FF9F2B46545053495A453A20312C26
:10306000302C0000D4000020785E00200D0A206281
:103070006F6F745F7374727563742E70726F6772A2
:10308000616D5F746F74616C5F73697A65203D2058
:103090002564200D0A00000070B506460C46154652
:1030A00025B10121054880F8DB1103E00221034826
:1030B00080F8DB11204607F077F870BDD4000020BF
:1030C00070B506460C46154625B10121054880F825
:1030D000FF1103E00221034880F8FF11204607F0AA
:1030E00063F870BDD400002070B506460C46154646
:1030F0001DB101200449C87102E002200249C871D3
:10310000204607F051F870BDD400002070B5064687
:103110000C46154625B10121054880F86F1103E0E2
:103120000221034880F86F11204607F03DF870BD7A
:10313000D40000202DE9F04F87B004460F46924698
:1031400035A207CA02AB07C30221364880F89710A0
:10315000BAF1000F59D0002102A807F015FD3B4637
:1031600022460146009002A807F01EFDC5B2002DC0
:1031700042DD4FF000092E463BE0A05D2C2805D132
:103180004846411C01F0FF0906A90E54B9F1020F8F
:103190002DDB2548007D022824D19DF819009DF8DB
:1031A0001810401A401E00F0FF0B9DF81800401B3D
:1031B000C0B205909DF81810491C08190022594604
:1031C00001F072FB019060190122059901F06CFB7E
:1031D0008046B8F1000F05D01449019808600846F0
:1031E000C0F8048001210F4880F8971003E0701C9C
:1031F000C6B2BE42C1DB08E00C48C07C00F0010052
:1032000018B90121074880F89710384606F0CCFF1E
:1032100007B0BDE8F08F00002B4754504F533A20C1
:1032200000000000D40000209E5700209C360020A3
:103230002DE9FC4704460E46904616A103C9CDE988
:1032400000010221154880F85B10B8F1000F1CD076
:103250000021684607F098FC8146334622464946DD
:10326000684607F0A1FCC5B2002D0EDD60190F21E4
:1032700003F071FE074647B161190F22084804F0B8
:10328000D9F80121054880F85B10304606F08CFF24
:10329000BDE8FC87494D45493A200000D400002094
:1032A0008536002070B506460C4615461DB1012135
:1032B0000448C17702E002210248C177204606F0A7
:1032C00073FF70BDD4000020FEB504460D461646BF
:1032D00018A207CA8DE807002B4622460A21684635
:1032E00007F062FC0746002F15DD7EB1E05D312856
:1032F00004D10321124880F89F1116E0E05D3028C8
:1033000013D104210E4880F89F110EE002210C48D1
:1033100080F89F1109E026B10121094880F89F112A
:1033200003E00221064880F89F11284606F03CFF82
:10333000FEBD00002B4D47505345504F3A20000032
:10334000D4000020FEB504460D46164618A207CA52
:103350008DE807002B4622460921684607F024FC29
:103360000746002F15DD7EB1E05D312804D1032131
:10337000124880F8931116E0E05D302813D1042143
:103380000E4880F893110EE002210C4880F893114A
:1033900009E026B10121094880F8931103E00221D8
:1033A000064880F89311284606F0FEFEFEBD000098
:1033B0002B4D47505354533A20000000D4000020B6
:1033C00070B506460C46154625B10121054880F822
:1033D0001B1103E00221034880F81B11204606F070
:1033E000E3FE70BDD400002070B506460C461546BD
:1033F00025B10121054880F80F1103E0022103489F
:1034000080F80F11204606F0CFFE70BDD4000020DA
:1034100070B506460C46154625B10121054880F8D1
:10342000EB1003E00221034880F8EB10204606F081
:10343000BBFE70BDD400002070B506460C46154694
:1034400025B10121054880F8B71103E002210348A6
:1034500080F8B711204606F0A7FE70BDD40000200A
:1034600070B506460C46154625B10121054880F881
:10347000C31103E00221034880F8C311204606F07F
:1034800093FE70BDD400002070B506460C4615466C
:1034900025B10121054880F8CF1103E0022103483E
:1034A00080F8CF11204606F07FFE70BDD4000020CA
:1034B00070B506460C46154625B10121054880F831
:1034C000DF1003E00221034880F8DF10204606F0F9
:1034D0006BFE70BDD400002010B50020124981F8A9
:1034E000220007F0F9F901201049C87400201049A2
:1034F0008870C8700F49087048704FF6FF700E4909
:103500008881012008490870487088700020C870C0
:1035100001200871094908700020487001200849FD
:1035200008704870887010BD783600209C360020E6
:1035300046030020D44D00209E5700208C00002020
:103540002C03002010B5012006F0E8FC002006F056
:10355000E5FC10BD04F0B4F800BFFEE710B5002094
:103560000449087007200449087003F073FFFFF74F
:10357000B3FF10BD2C0300208C0000200020164952
:10358000497801B9704720B101280DD002281FD118
:1035900015E01249097829B10121114A1170002161
:1035A000517016E0012000BF0C49497829B1022171
:1035B0000B4A1170172151700BE0022000BF074920
:1035C000897819B10321064A117002E0032000BF77
:1035D00000BF00BF00BFD5E72C03002078360020D5
:1035E0008C0000201CB50446184801909DF8060088
:1035F000801CC0B28DF8060004F0010090B19DF867
:103600000600182802DD02208DF806001048006828
:1036100000900098C00800900C20DDE9001200F036
:10362000C1FB12E09DF80600182802DD01208DF88C
:1036300006000748001D006800900098C008009030
:103640000C20DDE9002100F0ADFB1CBDF3D1011819
:10365000A06600401CB50446184801909DF806007D
:10366000801CC0B28DF8060004F0010090B19DF8F6
:1036700006003F2802DD3E208DF806001048006855
:1036800000900098C00800900D20DDE9001200F0C5
:1036900089FB12E09DF806003F2802DD3D208DF8F1
:1036A00006000748001D006800900098C0080090C0
:1036B0000D20DDE9002100F075FB1CBDF3D13D18A4
:1036C000A86600401CB5784800780A2822DD002052
:1036D000754908707548006801900198C00801900C
:1036E0009DF80600801CC0B28DF806009DF806000B
:1036F000182802DD01208DF806006C48001D0068C6
:1037000000900098C00800900C20DDE9002100F036
:1037100049FB12E06548006865490968884205D19F
:1037200061480078401C6049087006E000205E494E
:1037300008705E4800685E4908605E4800780A28A4
:1037400022DD00205B49087058480068019001980C
:10375000C00801905548001D006800900098C008FE
:1037600000909DF80200801CC0B28DF802009DF808
:103770000200182802DD02208DF802000C20DDE98D
:10378000002100F00FFB14E04848001D00684A4982
:103790000968884205D147480078401C45490870AF
:1037A00007E00020434908704048001D0068424976
:1037B0000860424800780A2823DD00203F4908704D
:1037C0003A480830006801900198C00801909DF8BF
:1037D0000600801CC0B28DF806009DF806003F2848
:1037E00002DD3D208DF8060030480C300068009066
:1037F0000098C00800900D20DDE9002100F0D2FA09
:1038000014E02A48083000682D490968884205D12B
:103810002A480078401C2949087007E00020274901
:10382000087022480830006825490860254800785B
:103830000A2823DD0020234908701C48083000684E
:1038400001900198C008019018480C300068009061
:103850000098C00800909DF80200801CC0B28DF84E
:1038600002009DF806003F2802DD3E208DF806008C
:103870000D20DDE9002100F095FA14E00B48001D51
:10388000006811490968884205D10E480078401C3B
:103890000C49087007E000200A4908700348001D21
:1038A0000068094908601CBD5C030020A066004058
:1038B0004C0300205D030020500300205E03002025
:1038C000540300205F0300205803002010B5044675
:1038D0000B48844209D10121480606F0FFFA002175
:1038E0004FF0007006F0FAFA08E00121880606F0B1
:1038F000F5FA00214FF0806006F0F0FA10BD0000EC
:103900000064004010B50021837A012202FA03F11D
:103910003D4A126842F001023B4B1A603A4A1C329F
:1039200012688A43384B1C331A60027BCAB9364A84
:103930000C3212688A43344B0C331A604288C388B5
:1039400042EA0343304A4032847A42F834300288F3
:10395000838842EA03432C4A4032847A02EBC40251
:103960005360027B012A19D1274A0C3212680A439C
:10397000254B0C331A604288038842EA0343224AEB
:103980004032847A42F83430C288838842EA034362
:103990001D4A4032847A02EBC4025360C27A3AB9BB
:1039A000194A121D12688A43174B1B1D1A6006E044
:1039B000154A121D12680A43134B1B1D1A60028917
:1039C00032B9114A143212688A430F4B14331A6009
:1039D0000289012A06D10C4A143212680A430A4BA2
:1039E00014331A60427B012A06D1074A1C3212683E
:1039F0000A43054B1C331A60034A126822F0010285
:103A0000014B1A6010BD0000006600401AB1436906
:103A10000B43436102E043698B434361704730B518
:103A2000024600200023146824F002041460146885
:103A300044F00104146000E05B1C546804F00104CD
:103A40001CB94FF6FF74A342F6D1546804F0010488
:103A50000CB900206CE08C79012C04D1146844F07E
:103A60008004146003E0146824F080041460CC79AE
:103A7000012C04D1146844F04004146003E014687D
:103A800024F0400414600C7A012C04D1146844F032
:103A90002004146003E0146824F0200414604C7ABD
:103AA000012C04D1146844F01004146003E014687D
:103AB00024F0100414608C7A012C04D1146844F0B2
:103AC0000804146003E0146824F008041460CC7A3D
:103AD000012C04D1146844F00404146003E0146859
:103AE00024F0040414608C78A407CD7844EA0564BB
:103AF0000D7944EA05444D7944EA05540D886D1E5C
:103B00002C43D461146824F001041460002300E005
:103B10005B1C546804F001041CB14FF6FF74A3420F
:103B2000F6D1546804F001040CB1002000E001203B
:103B300030BD10B500F5D87303EB01131B6803F01B
:103B400004031372137A53B900F5D87303EB01130E
:103B50001B6840F2FF7404EA5353136009E000F558
:103B6000D87303EB01131B686FF0604404EAD303BE
:103B7000536000F5D87303EB01131B6803F00203D5
:103B8000537200F5D87303EB01135B6803F00F0366
:103B9000937200F5D87303EB01135B681B0AD374AF
:103BA00000F5D87303EB01139B68D37200F5D8734B
:103BB00003EB01139B681C0A147300F5D87303EB25
:103BC00001139B681C0C547300F5D87303EB0113AD
:103BD0009B681B0E937300F5D87303EB0113DB682E
:103BE000D37300F5D87303EB0113DB681C0A14745C
:103BF00000F5D87303EB0113DB681C0C547400F55B
:103C0000D87303EB0113DB681B0E937421B9C368EF
:103C100043F02003C36003E0036943F02003036122
:103C200010BD00218171C171017241728172C17236
:103C30008170C17003210171022141710121018054
:103C4000704710B502460020936803F08063B3F11B
:103C5000806F00D110E0936803F00063B3F1006F50
:103C600001D1012008E0936803F08053B3F1805F35
:103C700001D1022000E00420042874D002F5C073B2
:103C800003EB00131B6803F0010402F5C07303EBA0
:103C900000131C600B7A7BB94B7A0C8843EA4453BF
:103CA00002F5C07404EB00142468234302F5C074C9
:103CB00004EB0014236010E00B7A4C6843EAC40361
:103CC0004C7A234302F5C07404EB001424682343A8
:103CD00002F5C07404EB001423608B7A03F00F0329
:103CE0008B7202F5C07303EB00135B6823F00F04C3
:103CF00002F5C07303EB00135C6002F5C07303EBC5
:103D000000135B688C7A234302F5C07404EB001443
:103D100063608B7B1C064B7B44EA03440B7B44EAC9
:103D20000323CC7A234302F5C07404EB0014A36090
:103D30008B7C1C064B7C44EA03440B7C44EA032343
:103D4000CC7B234302F5C07404EB0014E36002F55E
:103D5000C07303EB00131B6843F0010402F5C0734A
:103D600003EB00131C6010BD08B5002202210B48B4
:103D7000FFF74CFE0948FFF7A9FD0121480606F0B0
:103D80009DF84FF4C050ADF8000000208DF80300FE
:103D90006946034801F042FE08BD0000006400408F
:103DA000000801402DE9FF4107460D4616468DF8F3
:103DB0000A7001208DF80B008DF80C002C46E400F1
:103DC00044F00404200CADF80000A0B2ADF80200ED
:103DD0003446E40044F00404200CADF80400A0B222
:103DE000ADF806000020ADF8080001208DF80D00A8
:103DF0006846FFF787FDBDE8FF81000000B58BB086
:103E00004FF40060ADF8280048208DF82B000AA977
:103E10004F4801F003FE4FF48050ADF82800032016
:103E20008DF82A0018208DF82B000AA9484801F0C7
:103E3000F5FD0121480606F041F802A806F074F8E5
:103E40004448FFF743FD07A8FFF7EBFE00208DF87D
:103E5000220001208DF8230000208DF824008DF829
:103E600025008DF826008DF827008DF81E008DF8AE
:103E70001F000C208DF8200001208DF8210036490C
:103E80000498B0FBF1F080B2ADF81C0007A93148EE
:103E9000FFF7C5FD08B90BB000BD304A304900201E
:103EA000FFF780FF2F4A30490120FFF77BFF2F4AA1
:103EB0002F490220FFF776FF2E4A2F490320FFF7F4
:103EC00071FF2E4A2E490420FFF76CFF2D4A2E4920
:103ED0000520FFF767FF2D4A2D490620FFF762FFF7
:103EE0002C4A2D490720FFF75DFF2C4A2C4908205A
:103EF000FFF758FF2B4A2C490920FFF753FF2B4AA5
:103F00002249FD390A20FFF74DFF294A29490B2094
:103F1000FFF748FF284A29490C20FFF743FF284AAA
:103F200028490D20FFF73EFF012202210948FFF733
:103F30006DFD14208DF8040007208DF80600012087
:103F40008DF8070001A803F061FB00BFA3E70000A4
:103F5000000801400064004000093D009E29F81857
:103F60009E28F8189E2CF8189E2BF8189E2EF818EC
:103F70009E2DF818D004F1189E15F810D006F118EF
:103F8000D005F118D008F118D007F1188028FF18D3
:103F9000D009F1188021FF188020FF18802FFF180A
:103FA0008022FF188324FF188325FF188310FF1831
:103FB000FB01F1188305FF18F3D10218F3D10118A2
:103FC000F3D13E18F3D13D1810B50446264890F8B9
:103FD0008C0168B90120244981F88C0141032348F0
:103FE00001F0B2FDFFF70AFF00202149088010BD53
:103FF00000F02EFC1F48008800B9F8E71A4890F836
:104000008D01FF2809D000F011F90020184908801F
:10401000FF20154981F88D0122E0154800882044D1
:1040200013490880084600883C2819DB12A0FCF7D9
:10403000D5F94FF400510D4801F084FDFFF794FECF
:10404000002302221946184603F0C8FD4FF4005120
:10405000064801F079FDFFF7D1FE002004490880F1
:10406000FFF730FB00BFC2E710560020000C0140F4
:1040700062030020640300200D0A206D65746572E0
:1040800020627265616B20646F776E20616C617273
:104090006D2C776F2077696C6C2072657374617218
:1040A000742E2E2E0D0A000030B585B0FF256A460D
:1040B00000215048FFF73DFD9DF80A0008280ED169
:1040C000019C4D4820404C49884213D14B488442C2
:1040D00006D34B48844203D8200C401EC5B270E082
:1040E000484884426DD3484884426AD8200C253819
:1040F000C5B266E0454A0198811A90424BD01BDC5C
:10410000434AA0EB020190423DD00BDC41490844F8
:1041100080B34149084400283FD0A0F2D5200028B0
:104120004DD12EE0B1F5807F2FD0B1F5007F2ED09C
:10413000B1F5407F43D12CE0384A881A914217D01C
:1041400009DC3748084468B1B0F5807F0CD0B0F581
:10415000407F34D10AE0B0F5807F0CD0B0F5007F0D
:104160002DD10AE01B252BE01C2529E01D2527E089
:104170001E2525E003E01F2522E0202520E0212543
:104180001EE022251CE023251AE0242518E0252521
:1041900016E0262514E0272512E09DF80B000128E3
:1041A00001D128250AE09DF80B00022801D129251C
:1041B00004E09DF80B00032800D12A2500E000BF91
:1041C00000BF18484555A0F5B07090F88D01FF2844
:1041D00002D1154880F88D51FF2D00D108E0124919
:1041E00001EBC50008220DF10B0103F023F900BF1C
:1041F00005B030BD00640040F3D10018F3D10118C0
:10420000F3D11818F3D13D18F3D13F18D009F118A4
:10421000D005F11862EA07EFA31307F8CE220700D2
:1042200032E1F8FF705700201056002010B586B01C
:104230000024FBE2FE48005DFF2855D0FC48045DE9
:10424000FF210155002C50DB172C4EDCA0F5B0707F
:1042500010F834008DF80000F64800EBC4004078F8
:104260008DF80100BDF80000A100F34A22F811000A
:10427000F04800EBC40080788DF80000ED4800EBBA
:10428000C400C0788DF80100BDF80000012101EBE9
:10429000840122F81100E74800EBC40000798DF892
:1042A0000000E44800EBC40040798DF80100BDF83F
:1042B0000000022101EB840122F81100DD4800EB2F
:1042C000C40080798DF80000DA4800EBC400C079A2
:1042D0008DF80100BDF80000032101EB840122F8F4
:1042E00011002046FFF77EF99EE2182C13DB1A2CF2
:1042F00011DCA4F11800D14901EBC000CD4901EB5C
:10430000C4010A68026049684160A4F11801C8B29A
:10431000FFF7A0F988E2282C3CDB2A2C3ADCC548C0
:1043200090F840010128DFD1C24890F848010228E6
:10433000DAD1C04890F850010328D5D1F120BD4909
:1043400081F84001F22081F84801F32081F8500102
:1043500001F24110016801918188ADF8081080795F
:104360008DF80A00B24817380168CDF80B10818823
:10437000ADF80F1080798DF81100AE48B0F85111EA
:10438000ADF8121090F853018DF8140001A805F053
:1043900007FD49E2A4F11B000D286ED2DFE800F012
:1043A00007335BA1A7D1F9F7F6F5F4F3F200A148C2
:1043B00090F8D800A24908709E4890F8D90048703B
:1043C0009C4890F8DA008DF800009A4890F8DB00DD
:1043D0008DF80100BDF800004880964890F8DC0098
:1043E0000871944890F8DD004871924890F8DE001A
:1043F0008DF800008F4890F8DF008DF80100BDF8BF
:104400000000C8800FE28B4890F8E0008C490872E9
:10441000884890F8E1004872864890F8E200887277
:10442000844890F8E300C872824890F8E40008736A
:10443000804890F8E50048737E4890F8E6008DF8D3
:1044400000007C4890F8E7008DF80100BDF80000FE
:104450007C494881E7E1774890F8E8007A4908719B
:10446000744890F8E90048710846007930B9002096
:1044700008608871C871087232E0D3E1724800792F
:1044800001280CD16B4890F8EE007049086069482B
:1044900090F8EF00486000208860C86020E06A481B
:1044A000007902280CD1634890F8EC006749086055
:1044B000604890F8ED00486000208860C8600FE018
:1044C0006148007903280BD15A4890F8EA005F4907
:1044D0000860584890F8EB00486000208860C86089
:1044E000A1E1544890F8F200564948739BE15148C5
:1044F00090F8F800564988754E4890F8F9005549EB
:1045000008704C4890F8FA008DF80000494890F87F
:10451000FB008DF80100BDF800004880454890F888
:10452000FC008DF80000434890F8FD008DF8010074
:10453000BDF8000088803F4890F8FE004449C875E7
:1045400071E13C4890F8000143498870394890F87F
:1045500001018DF80000374890F802018DF8010044
:10456000BDF800000880334890F803018DF8000082
:10457000304890F804018DF80100BDF8000035497D
:10458000C88050E12BE102E1D8E0ABE0A0E020E000
:10459000FFE7284890F80A012A49C873254890F88F
:1045A0000B018DF80000234890F80C018DF80100F4
:1045B000BDF8000008811F4890F80D018DF800003B
:1045C0001C4890F80E018DF80100BDF80000C8806D
:1045D00029E1184890F8100100F00F008DF8000054
:1045E0009DF80000012808DB9DF80000032804DC8A
:1045F0009DF80000134908730DE09DF800000E2897
:1046000003D09DF800000F2805D19DF8000040F070
:10461000F0000C490873074890F8100100098DF864
:1046200000009DF8000001281FDB9DF8000015E048
:10463000705700201056002084490020444A002072
:10464000C84A0020884A0020D84A00205449002047
:104650006E4A0020E44A002042030020032804DCC4
:104660009DF80000744988730DE09DF800000E2845
:1046700003D09DF800000F2805D19DF8000040F000
:10468000F0006D4988736D4890F811018DF80000B5
:104690006A4890F812018DF80100BDF800006649E3
:1046A0008880664890F813018DF80000634890F800
:1046B00014018DF80100614890F815018DF8020091
:1046C0005E4890F816018DF8030000980860AAE093
:1046D0005A4890F81C0158490874584890F81D0130
:1046E0004874A0E0554890F8200155490870534897
:1046F00090F821014870514890F8220188704F4885
:1047000090F823018DF800004C4890F824018DF8B2
:104710000100BDF800008880484890F825018DF818
:104720000000464890F826018DF80100BDF8000011
:10473000C880424890F82701C87074E03F4890F85C
:1047400028013F4908703D4890F829018DF8000084
:104750003A4890F82A018DF80100BDF80000088160
:10476000364890F82B018DF80000344890F82C0161
:104770008DF80100BDF800004881304890F82D0107
:104780002D4988742D4890F82E01C8744BE02B48B1
:1047900090F830012B490871284890F831018DF8C4
:1047A0000000264890F832018DF80100234890F867
:1047B00033018DF80200214890F834018DF8030090
:1047C000009808601D4890F8350148711B4890F822
:1047D0003601C871194890F83701087223E017486C
:1047E00090F8380118490860144890F83901486079
:1047F000124890F83A018860104890F83B01C86070
:104800000E4890F83C01114908600C4890F83D01B1
:1048100048600A4890F83E018860084890F83F01D7
:10482000C86000E000BF00BF601CC4B22B2C7FF743
:1048300001AD06B010BD0000884A002010560020CF
:104840009C4A0020D84A0020644900207449002076
:104850001CB504A103C9CDE900010449684600F074
:1048600007F81CBDFD20000000000000785634123F
:1048700030B585B004460D46019504208DF808003A
:1048800000208DF8090008208DF80A000822214632
:104890000DF10B0002F0CEFD69460248FFF7D1F999
:1048A00005B030BD006400402DE9FE4F81460C4646
:1048B00093464FF0000A00BF2146484602F032FB03
:1048C00010B90020BDE8FE8F224649466846FBF736
:1048D00041FF00200DF80400684607F004F8054683
:1048E0000E460022054B2846314607F0EFFB0746EF
:1048F00007F082FB82465046E4E7000080842E41A8
:104900002DE9F05F0446884616464FF0040900255D
:10491000AA464FF0010BB4F1006F03D3A0191E4952
:10492000884202D30120BDE8F09F00F041FC2546FB
:1049300004EB060A1948854213D20FE0284605F019
:104940007DFE401C48B1284600F0B2FB8146B9F11B
:10495000040F03D04FF0000B02E02D1D5545EDD3A1
:1049600000BF4746B9F1040F0CD108E02046396872
:1049700000F0E8FB042800D003E0241D3F1D54454F
:10498000F4D300BF00F0D4FBBBF1010F01D1002034
:10499000C9E70120C7E70000000008080000FF1F6A
:1049A00010B502F08DFE022000F00EF9002840D074
:1049B000022000F049F8204800682049098808448E
:1049C0001D490860084640681C49498808441A493E
:1049D00048601B480078401C194908700846007858
:1049E000052826DB00200870134800680521B0FB6D
:1049F000F1F0114908600846006840F22F11484361
:104A0000000B0D490860084600880E4908800A48D6
:104A100040680521B0FBF1F007494860084640684E
:104A200000EB4000C0F31320486008468088054929
:104A3000488002F057FE10BD0000002084000020D6
:104A4000080000208800002000F0805111B10349C7
:104A5000086001E002494860704700000404024019
:104A60000000024021B1026842F00102026004E04D
:104A700002684FF6FE731A400260704701684FF6F5
:104A8000FE72114001600021016041608160C160DF
:104A90004B49884208D14A490839496841F00F0119
:104AA000474A083A51608AE045491431884208D1A2
:104AB00043490839496841F0F001414A083A5160D8
:104AC0007DE03F492831884208D13D49083949688D
:104AD00041F470613A4A083A516070E038493C311B
:104AE000884208D136490839496841F47041344A4E
:104AF000083A516063E032495031884208D1304968
:104B00000839496841F470212D4A083A516056E04D
:104B10002B496431884208D129490839496841F450
:104B20007001274A083A516049E0254978318842A6
:104B300008D123490839496841F07061204A083A90
:104B400051603CE01F49884206D1011F096841F0CD
:104B50000F01021F116032E01A491431884208D156
:104B60001849091F096841F0F001164A121F116027
:104B700025E014492831884208D11249091F0968E3
:104B800041F470610F4A121F116018E00D493C3169
:104B9000884208D10B49091F096841F47041094A4C
:104BA000121F11600BE007495031884207D10549B7
:104BB000091F096841F47021024A121F11607047F1
:104BC000080002400804024001460020002201F0D3
:104BD000805313B1054B1A6801E0054B1A6802EACD
:104BE00001030BB1012000E00020704700040240E7
:104BF000000002401AB103680B43036002E003683F
:104C00008B430360704710B50022026847F6F073CB
:104C10009A430C6A8B6823430C6923434C692343F2
:104C20008C692343CC6923434C6A23438C6A234316
:104C30001A430260CB6843600B6883604B68C360B3
:104C400010BD10B502F03CFD02F04CFD10BD00009F
:104C500000B58DB00121084605F020F91948FFF78D
:104C60000DFF19480290194803900020049002207B
:104C7000059000200690802007904000089080005A
:104C8000099020200A9000020B9000200C9002A9AD
:104C90000C48FFF7B8FF01210A48FFF7E3FE0122A5
:104CA00002210848FFF7A6FF0B208DF8040004201E
:104CB0008DF8060001208DF8070001A802F0A6FC7F
:104CC0000DB000BD080002404C24014084000020CB
:104CD0000149086070470000140401400021234985
:104CE0008279002A3AD00A46126803689A430B4632
:104CF0001A600A1D126803689A430B1D1A60027934
:104D000011440A6803681A430A60184A0832126894
:104D100003689A43154B08331A601A1D126803681A
:104D20009A43124B0C331A604279102A0ED11A1F83
:104D3000126803681A430D4B08331A601A1D126873
:104D400003681A43094B0C331A600DE00749427996
:104D500011440A6803681A430A6005E002791144A5
:104D60000A6803689A430A60704700000004014023
:104D70000021016001710C21417100218171704796
:104D800010B54C48007800B910BD02F063FB4A48EA
:104D9000407D012800DDF7E74848007818B1002081
:104DA00047494870F0E701204549487041488078FC
:104DB00018B142480079002869D1404890F8220093
:104DC000012800D0E0E701F0CDFA18B13DA0FBF7D3
:104DD00005FBD9E73948C07830B101284FD0022807
:104DE0000AD0032851D146E0FEF7C8FB032802D1C0
:104DF00002203249C87049E03748007810B90120D4
:104E0000354908702E48C078012809D102202C4964
:104E1000C87000203149087003202849C87035E067
:104E20002748C078022806D100202C490870244960
:104E30008870C8702AE02048407D012815D1284993
:104E4000087002201C49487504040AE0142300225B
:104E50001146104602F0C2FE204600F0D5F904F5D6
:104E6000006420488442F1D310E000201B49087000
:104E7000134988700AE006201849087006E01AA055
:104E8000FBF7ACFAFEF76AFB00E000BF0FE0094851
:104E9000807801280BD10948007940B10748007992
:104EA000022804D008200D4908701E20487000BF59
:104EB0006AE700002C0300209E570020783600206F
:104EC00046030020B8A8D6FAB6A8CEBBB4F2BFAA53
:104ED000CAA7B0DC200D0A00D44D00208C000020B1
:104EE000B4570020FFBF03000D0A204C3231382098
:104EF00073656E642064617461206661696C2C77EF
:104F0000652077696C6C207265736574206C323132
:104F100038206D6F64756C650D0A000070B504462D
:104F20004FF40000B0EB043F01DA002070BD250310
:104F300005F0EEFD05F0E2FD10210C4800F002FE48
:104F4000202005F027FBC5F3074005F023FBC5F340
:104F5000072005F01FFBE8B205F01CFB10210348F9
:104F600000F0F2FD05F0CAFD0120DFE70008014076
:104F700000B587B0012141F2040004F0BFFFE0203A
:104F8000ADF8180018208DF81B0003208DF81A00CA
:104F900006A91B4800F042FD1020ADF818008DF85E
:104FA0001B0006A9164800F039FD1021144800F036
:104FB000CBFD0020ADF804004FF48270ADF8060080
:104FC0000020ADF80800ADF80A00ADF80C004FF471
:104FD0000070ADF80E000820ADF810000020ADF80C
:104FE00012000720ADF8140001A9064805F008FBDF
:104FF0000121044805F0EAFA012007B000BD0000D5
:1050000000080140003001402DE9F04104460E4601
:1050100017461021104800F095FD032005F0BAFA5C
:10502000C4F3074005F0B6FAC4F3072005F0B2FA5E
:10503000E0B205F0AFFA002505E0FF2005F0AAFA7E
:105040007055681C85B2BD42F7DB1021024800F0A4
:105050007BFD0120BDE8F081000801402DE9F04111
:1050600006460F4614463019B0F5000F02D3002053
:10507000BDE8F081F0B2C0F58075AC4200DC254699
:1050800012E02A463146384605F052FDAC4200D1C6
:105090000BE02F442E44601B84B2B4F5807F02DD08
:1050A0004FF4807500E02546EBE700BF0120DFE705
:1050B00030B5044604254FF4302000F085F805464D
:1050C000042D17D10C48006940F002000A4908611C
:1050D00008464461006940F0400008614FF4302008
:1050E00000F072F805460448006941F6FD71084079
:1050F00001490861284630BD0020024004200B49C8
:10510000C96801F0010109B101200EE00749C96831
:1051100001F0040109B1022007E00449C96801F067
:10512000100109B1032000E0042070470020024074
:105130000348006940F080000149086170470000A1
:105140000020024078B506460C4604250020009059
:10515000E80200F039F80546042D24D1134800690F
:1051600040F00100114908613480E80200F02CF899
:105170000546042D10D1B01C0090200C0099088029
:10518000E80200F021F805460848006941F6FE7182
:1051900008400649086106E00448006941F6FE71CE
:1051A000084002490861284678BD000000200240FE
:1051B0000248034948600348486070472301674537
:1051C00000200240AB89EFCD00B502460423FFF773
:1051D00095FF034603E0FFF791FF0346521E012BA4
:1051E00001D1002AF7D102B90523184600BD0000FD
:1051F00010B501F08FFE0348006880F4807001490B
:10520000086010BD0C1401402DE9F0410446002651
:105210000027FBF771F80746FFF7EAFFFFF7C8FF23
:1052200004F10060FFF744FF0546FFF781FFFFF739
:10523000DFFF3846FBF764F8042D00D10126304625
:10524000BDE8F08130B50346002003F1006400BFE3
:1052500004E025780D54641C451CA8B29042F8DB8C
:1052600030BD2DE9F05F06460F4690464FF0000B2B
:105270004FF0010A06F100643D46FBF73DF8834616
:10528000FFF7B6FFFFF794FF4FF000090EE020464E
:105290002968FFF757FF20682968884202D04FF03D
:1052A000000A05E0241D2D1D09F10409C145EED3B6
:1052B00000BFFFF73DFFFFF79BFF5846FBF720F8C5
:1052C0005046BDE8F09F00003EB509A103C9CDE9F5
:1052D0000101002101A805F057FC04460220064BFD
:1052E000224601A90090262001F01AFF3EBD0000D1
:1052F000302C310D000000000FC8000838B5022422
:105300000220084B0022114600900A2001F008FFFD
:10531000054890F87F00012801D1012400E0002415
:10532000204638BD0FC80008D400002038B502243C
:105330000220084B002211460090092001F0F0FEE7
:10534000054890F87300012801D1012400E00024F1
:10535000204638BD0FC80008D40000200120704747
:1053600030B589B002252C4A07CA06AB07C3002412
:105370002B222146641C01A8425446222146641C6B
:10538000425454222146641C425450222146641C3B
:10539000425447222146641C425445222146641C43
:1053A000425454222146641C42543A222046611C35
:1053B000CCB201A90A5431222046611CCCB201A909
:1053C0000A542C222046611CCCB201A90A54312275
:1053D0002046611CCCB201A90A5400222046611C5F
:1053E000CCB201A90A540B2001AB072206A90090F8
:1053F0002F2001F095FE094890F83B02012801D1C9
:10540000012505E0054890F83B02022800D100255F
:10541000284609B030BD000040C80008D400002074
:1054200010B58CB002240E48828D0E4902A8FAF7FE
:10543000BFFF02A80C49C1F8EC0102200B4B00226F
:1054400011460090292001F06BFE074890F8F30107
:10545000012801D1012400E0002420460CB010BD39
:10546000484B002080C70008D40000200FC8000867
:1054700010B58CB002240E4A0E4902A8FAF798FF24
:1054800002A80D49C1F8040202200C4B002211466B
:1054900000902B2001F044FE074890F80B020128F1
:1054A00001D1012400E0002420460CB010BD000012
:1054B0005E4B00209EC70008D40000200FC80008E3
:1054C00038B502240220084B0022114600903020FB
:1054D00001F026FE054890F84702012801D1012479
:1054E00000E00024204638BD0FC80008D40000208A
:1054F00010B58CB00224144890F82B00124991F892
:105500002A10CDE90010104890F8293090F8282092
:105510000E4902A8FAF74CFF02A80D49C1F8E001B4
:1055200002200C4B002211460090282001F0F8FDCB
:10553000074890F8E701012801D1012400E0002488
:1055400020460CB010BD0000484B002066C7000884
:10555000D40000200FC800081FB50CA207CA01AB79
:1055600007C302240A2001AB00221146009031201B
:1055700001F0D6FD084890F85302012801D101241A
:1055800000E00024204604B010BD00002B4654501B
:1055900053495A453A200000D400002038B502246F
:1055A0000220084B002211460090272001F0B8FD90
:1055B000054890F8DB01012801D1012400E0002416
:1055C000204638BD0FC80008D400002010B58CB0AC
:1055D00002240E4A0E4902A8FAF7EAFE02A80D4973
:1055E000C1F8F80102200C4B0022114600902A203D
:1055F00001F096FD074890F8FF01012801D1012430
:1056000000E0002420460CB010BD00004E4B0020EE
:105610008FC70008D40000200FC8000810B502246E
:105620007B48007808B90524E4E0794890F8C20680
:105630001B286ED2DFE800F00EDBDBDBDBDBDBDB25
:10564000DBDBDBDBDB1F2C394653606E7B8895AFE1
:10565000C3A2D3000D206E4981F8C206002081F854
:10566000C600A1F8B806A1F8C800886081F8C10694
:1056700068494860BCE0FFF771FE0446012C04D184
:105680000E20634981F8C20601E004B9B2E0AFE040
:10569000FFF74CFE0446012C04D10F205C4981F831
:1056A000C20601E004B9A5E0A2E0FFF727FE044628
:1056B000012C04D11020564981F8C20601E004B93A
:1056C00098E095E000F0B6F80446012C04D11120D2
:1056D0004F4981F8C20601E004B98BE088E0FFF78A
:1056E0005DFF0446012C04D11220494981F8C2060D
:1056F00001E004B97EE07BE0FFF7FAFE0446012CEE
:1057000004D11320424981F8C20601E004B971E0D6
:105710006EE06CE0FFF784FE0446012C04D11420F7
:105720003B4981F8C20601E004B963E060E0FFF79D
:105730004DFF0446012C04D11520354981F8C206DD
:1057400001E004B956E053E0FFF792FE0446012C55
:1057500004D116202E4981F8C20601E004B949E0BF
:1057600046E000F0A9F80446012C04D1172028498E
:1057700081F8C20601E004B93CE039E0FFF7ECFE35
:105780000446012C04D11720214981F8C20601E00A
:1057900004B92FE02CE0FFF7E3FD0446012C04D10F
:1057A00018201B4981F8C20608E0022C04D11720FA
:1057B000174981F8C20601E004B91BE018E0FFF7C1
:1057C0007FFE0446012C07D11A20114981F8C20638
:1057D000012081F8C10601E004B90BE008E0FFF701
:1057E00073FD00200A4981F8C206087000E000BF7E
:1057F00000BF00BF4CB91A20054981F8C20601203C
:1058000081F8C60004A0FAF7E9FD204610BD0000AB
:10581000B4570020785E00202121217761726E202C
:105820006674705F757067726164655F6661696CEC
:105830000D0A000038B5002402201A4B15221A491F
:105840000090262001F06CFC184890F8CF01012848
:1058500001D1012401E0204638BD0220114B122263
:1058600013490090262001F05BFC104890F8CF010E
:10587000012801D1012401E02046EDE70220094B77
:1058800004220C490090262001F04AFC074890F8B9
:10589000CF01012801D1012401E02046DCE72046A8
:1058A000DAE700000FC8000828C70008D40000206D
:1058B0003EC7000851C7000830B5A3B0002500243A
:1058C0002B222146641C02A8425446222146641C15
:1058D000425454222146641C425450222146641CE6
:1058E000425447222146641C425445222146641CEE
:1058F000425454222146641C42543A222046611CE0
:10590000CCB202A90A5431222046611CCCB202A9B1
:105910000A542C222046611CCCB202A90A5431221E
:105920002046611CCCB202A90A5400222046611C08
:10593000CCB202A90A540021334805F025F90446E7
:1059400004E03148005D2F2800D104E02000A4F1DC
:105950000101CCB2F5D100BF601CC4B22A480219C3
:105960002A4911A8FAF724FD11A82949C1F8100203
:105970000220284B0022114600902C2001F0D0FB81
:10598000234890F81702012801D1012502E028469A
:1059900023B030BD22461C4907A8FAF7DBFE0020E1
:1059A00007A9085507AA1C4911A8FAF701FD11A873
:1059B0001749C1F81C0200250220164B002211468F
:1059C00000902D2001F0ACFB114890F82302012833
:1059D00001D1012501E02846DAE7FFF7BDFD0546C4
:1059E00000250B2002AB0022114600902E2001F072
:1059F00097FB074890F82F02012801D1012501E00B
:105A00002846C5E72846C3E7864B0020ADC70008F7
:105A1000D40000200FC80008C1C700082DE9F041DC
:105A2000024600250026002000230024002791F8CC
:105A300003C00CF00F0591F803C00CF0100CBCF182
:105A4000000F03D091F802C04CEA050591F800C0A0
:105A5000BCF1000F31D0146800202BE04FF0010C96
:105A60000CFA00F3B1F800C00CEA03069E4220D104
:105A700083004FF00F0C0CFA03F7BC4305FA03FC4C
:105A80004CEA040491F803C0BCF1280F06D14FF092
:105A9000010C0CFA00FCC2F814C00AE091F803C033
:105AA000BCF1480F05D14FF0010C0CFA00FCC2F814
:105AB00010C0401C0828D1D31460B1F800C0BCF15C
:105AC000FF0F34DD546800202EE000F1080C4FF089
:105AD000010808FA0CF3B1F800C00CEA03069E4274
