:020000040800F2
:10000000704D0020B902000851430008813D0008EE
:100010009F4100081D2500086374000800000000CF
:10002000000000000000000000000000896A0008D5
:100030004F2800080000000047030008896E0008F0
:10004000D30200081F500008D302000821680008EE
:10005000D3020008D3020008D3020008D30200082C
:10006000D3020008D3020008D3020008AD2500081F
:10007000D3020008D3020008D3020008D30200080C
:10008000D3020008D3020008D3020008D3020008FC
:10009000D3020008D3020008D3020008D3020008EC
:1000A000D3020008D3020008D3020008D3020008DC
:1000B000D3020008896F0008D3020008D3020008A9
:1000C000D3020008D3020008D3020008D3020008BC
:1000D000D30200084D710008C97100083972000888
:1000E000D3020008D3020008D3020008D30200089C
:1000F000D3020008D3020008D3020008D30200088C
:10010000D3020008D3020008D3020008D30200087B
:1001100055700008D1700008D3020008D30200080F
:10012000D3020008D3020008D3020008D30200085B
:1001300000F002F800F0B0F80AA090E8000C824449
:100140008344AAF10107DA4501D100F0A5F8AFF226
:10015000090EBAE80F0013F0010F18BFFB1A43F0A5
:1001600001031847BC7B0000DC7B00000A444FF011
:10017000000C10F8013B13F0070408BF10F8014B06
:100180001D1108BF10F8015B641E05D010F8016B4B
:10019000641E01F8016BF9D113F0080F1EBF10F8AF
:1001A000014BAD1C0C1B09D16D1E58BF01F801CBD2
:1001B000FAD505E014F8016B01F8016B6D1EF9D555
:1001C0009142D6D37047000000230024002500266A
:1001D000103A28BF78C1FBD8520728BF30C148BFAA
:1001E0000B6070476E2900F07084702900F0E38185
:1001F000662907F0CB83652907F0C883672907F0D4
:10020000C5836129AFF3008003681B0A28BF41F052
:100210008001692900F05481642900F05181752919
:1002200000F04E816F2900F06985782900F0AF81D8
:10023000E92900F00385E42900F00085F52900F0A4
:10024000FD84EF2900F06685F82900F0AE8103688F
:10025000DB0928BF41F08001632900F07284732913
:1002600000F07784E32900F0BB87F32900F0C08712
:10027000002070471FB501F011F804000020002194
:1002800007F06EFB401C60600020002107F052FB6D
:10029000E0601FBD10B510BD00F0D2FF1146FFF7A2
:1002A000E9FF07F0F7FA01F0ABF803B4FFF7F2FF4C
:1002B00003BC07F04FFA000009488047094800478F
:1002C000FEE7FEE7FEE7FEE7FEE7FEE7FEE7FEE706
:1002D000FEE7FEE704480549054A064B7047000063
:1002E000A56E00083101000870470020704D002005
:1002F0007049002070490020EFF3108072B67047FB
:1003000080F310887047204C204D25604FF000048A
:1003100084F309881E4C4FF0010525701D4C4FF0E9
:100320008055256062B6FEE730B41A4C4FF0805518
:10033000256030BC704730B4164C4FF080552560B6
:1003400030BC704700BF72B6EFF3098028B1203887
:1003500080E8F00F10490968086000B50F48804731
:100360005DF804EB0E480F490A7802700A480E49FE
:100370000A680260106890E8F00F203080F3098866
:100380004EF0040E62B6704720ED00E00000FFFF63
:100390006200002004ED00E068000020B148000881
:1003A0005700002058000020700000207047000017
:1003B0000FB41CB5084B06AA7B446946009005980B
:1003C00000F09DFB04460020694600F0ABFB204690
:1003D0001CBC5DF814FB0000690700000FB4044961
:1003E00010B503AA029800F0B9FB10BC5DF814FB2D
:1003F000240000200FB41CB5084B06AA7B446946B4
:100400000090059800F07BFB04460020694600F050
:1004100089FB20461CBC5DF814FB0000250700008A
:1004200070B5044685690068C10601D5302600E034
:100430002026C00707D070BDD4E90121304690477F
:10044000206A401C20626D1EF6D570BD70B5044652
:1004500085690078C00707D170BDD4E9012120204B
:100460009047206A401C20626D1EF6D570BD70B5A5
:100470000C460546012A05D02878800600D5EA6991
:10048000002302E0012305E05B1C934202D2E05C02
:100490000028F9D1A869E618C01AA861286A18448A
:1004A00028622846FFF7BCFF04E0D5E9012114F8D3
:1004B000010B9047B442F8D32846FFF7C7FF70BD41
:1004C0002DE9F0410646002410687529314616A52D
:1004D00010D000F08FFA002802DA404213A507E09E
:1004E00031688A0701D512A502E0490704D511A594
:1004F000012401E000F087FA00210A2206F1240716
:1005000009E0B0FBF2FCB0FBF2F302FB1C00303060
:1005100078541846491C0028F3D123462A46304611
:10052000BDE8F04100F078BA000000002D000000A6
:100530002B00000020000000F0B40D4601880905E2
:1005400002D5214C7C4402E01F4C7C440E34002137
:1005500000F1240608E002F00F071209E75D42EA05
:1005600003721B097754491C52EA0307F3D102783E
:100570000023120704D5702D06D009B102231134CF
:100580002246F0BC00F048BA01231034F8E770B5F9
:1005900004460D462146106800F035FA0246294609
:1005A0002046BDE870400023C6E7D21D22F00703B5
:1005B000D3E90023C0E70368126843F02003036017
:1005C0000823C3610023B7E7F67600002DE9F05F4A
:1005D000894604464FF0000ADFF874B1FB44C0F8C6
:1005E00020A02046E1688847002874D0252806D03E
:1005F000D4E901219047206A401C2062F1E70026DF
:100600005F462046E16888472028054607DB312DF4
:1006100005D2781910F8200C08B10643F1E7B007AD
:1006200001D526F00406C4F81CA00027C4F818A0C1
:100630002A2D09D0284607F086F838B304EB87083E
:10064000303DC8F8185019E059F8041B204604EB57
:1006500087029161E1688847012F054618D1E0695A
:10066000002820DA26F020061DE0D8F8180000EB5C
:10067000800005EB40003038C8F818002046E168DB
:100680008847054607F05FF80028EED1012F0AD011
:100690002E2D08D12046E16888477F1C0546022F91
:1006A00046F02006C4DBA069002803DA404246F089
:1006B0000106A061F00701D026F010066C2D0BD0CA
:1006C000682D09D04C2D39D06A2D35D0742D35D0F8
:1006D0007A2D33D016E038E0E1682F46204688476F
:1006E000B842054609D16C2F26D04FF48060E168EE
:1006F000064320468847054604E06C2F1AD04FF485
:10070000807006430DB3A5F14100192802D82035A9
:1007100046F400664A462946204626604E46FFF7C4
:1007200061FD80B101280BD0F61D26F0070000F115
:10073000080956E74020E4E78020D8E70020D6E704
:1007400006F104094DE7284652E7206ABDE8F09F0C
:1007500086760000032A40F2308010F0030C00F08F
:10076000158011F8013BBCF1020F624498BF11F8EB
:1007700001CB00F8013B38BF11F8013BA2F10402A4
:1007800098BF00F801CB38BF00F8013B11F003031C
:1007900000F02580083AC0F0088051F8043B083A80
:1007A00051F804CBA0E80810F5E7121D5CBF51F822
:1007B000043B40F8043BAFF30080D20724BF11F89C
:1007C000013B11F801CB48BF11F8012B24BF00F801
:1007D000013B00F801CB48BF00F8012B704710B572
:1007E000203AC0F00B80B1E81850203AA0E8185029
:1007F000B1E81850A0E81850BFF4F5AF5FEA027CEA
:1008000024BFB1E81850A0E8185044BF18C918C058
:10081000BDE810405FEA827C24BF51F8043B40F8F9
:10082000043B08BF7047D20728BF31F8023B48BFDE
:1008300011F8012B28BF20F8023B48BF00F8012B1C
:100840007047000010B503681C1404EB21449BB2F0
:1008500089B2194494FBF2F302FB134394FBF2F4C4
:1008600001EB034393FBF2F102FB113193FBF2F333
:1008700001E05B1E11440029FBDB016003EB044037
:1008800010BD2DE9F04704464FF0FF3A86B00068EE
:10089000029060680390A0680490E068019020696D
:1008A0000090656905F18040B0F1004F7DD83C2291
:1008B000002102A8FFF7C6FF3C22014603A8FFF76C
:1008C000C1FF1822014604A8FFF7BCFF411E40F2F9
:1008D000B55201A8FFF7B6FF0C2206466846002174
:1008E000FFF7B0FF00EB860028443E4D00267D4414
:1008F0000FE09A1A491CCDE90012022902D00C29F6
:1009000007D104E0810704D0521C019201E0401C91
:1009100000960099019B6A5C9A42EADD012906D1A2
:100920001C2B04D1810702D00221CDE90016A0F1D1
:1009300046018B2940D20199009B00220F4602E01C
:10094000AE5C521C31449A42FADB012B02DD820775
:1009500000D0491E40F2B55540F26D16C21700EBAB
:10096000927292106A4300F0030505FB0622850788
:100970000A4400D1521E049D02EB4206DDF80C80B1
:10098000A94605EBC605184EC5EB0515DDF808C0F0
:1009900008EB850535442E14ADB2C6EB0616C5EB43
:1009A0000515B6000CEB850500E005E006EB1546E5
:1009B00066F31F45360C03D0504606B0BDE8F087FD
:1009C000C4E904307F1C0720521CC4E9029792FB43
:1009D000F0F3E4E806C800FB132084E8030428468B
:1009E000EBE700008E730000A039CEFD7047704722
:1009F0007047704709684A0501D540B27047C9057C
:100A0000FCD500B2704709684A0501D5C0B27047ED
:100A1000C905FCD580B270472DE9F0470D469946CF
:100A20009246044600F124080168880604D5E0696E
:100A300021F01001216000E00120A84201DD471BE8
:100A400000E00027A1697A1902EB0900081AA061E9
:100A50002078C00602D42046FFF7E2FC002608E01A
:100A6000D4E901211AF806009047206A401C761C40
:100A700020624E45F4DB2078C0060AD52046FFF7F9
:100A8000CFFC06E0D4E9012130209047206A401CC9
:100A90002062381EA7F10107F4DC07E0D4E9012148
:100AA00018F805009047206A401C2062281EA5F116
:100AB0000105F3DC2046FFF7C9FC2078000602D5CB
:100AC0000220BDE8F0870120FBE711680268006A98
:100AD000530501D508700AE0D30501D5088006E06A
:100AE000130603D5C217C1E9000200E00860012027
:100AF0007047000001694A1C02610878704700B520
:100B00008FB0CDE901310021059105497944CDE946
:100B1000031011466846FFF759FD0FB000BD0000F5
:100B2000E5FFFFFF0A6802F8010B0A60704710B585
:100B3000436913B1AFF3008001E0FFF798FC012097
:100B400010BD127800F124010A7000224A700122BF
:100B5000EDE711684FF0FF32E9E70000074B70B591
:100B60000D467B44FFF7CBFF0446284600F044FBCC
:100B700010B14FF0FF3070BD204670BD536C0000C7
:100B80002DE9FF5F15468A460446DFF8AC80F8443D
:100B90000027D8E900103E46CDE9001010E03AF8F1
:100BA00016106A4602A800F02BFB411C07D02178E2
:100BB000890603D5E269391891420DD80744761C9D
:100BC0002078800602D5E069B84205DDAE42E6DB5A
:100BD0003AF816000028E2D1A069C01BA0612046A7
:100BE000FFF71EFCD8E90010CDE90010002017E047
:100BF0003AF818106A4602A800F002FBB0F1FF3F75
:100C000081460BD000250DF1080B05E0D4E9012148
:100C10001BF8050090476D1C4D45F7D308F1010006
:100C2000B0428046E4DB206A384420622046FFF769
:100C30000DFCBDE8FF9F0000E67000002DE9F041CB
:100C40008046D21D22F007020025D2E90002F529D4
:100C500015A614D0011E72F1000106DA0023D0EBB4
:100C6000030063EB020211A608E0D8F800108B071E
:100C700001D50FA602E0490701D50EA601251146B0
:100C8000002408F1240704E000F04EF830323A5511
:100C9000641C50EA0102F7D12B46324621464046F9
:100CA000BDE8F041FFF7B8BE000000002D000000D5
:100CB0002B0000002000000030B4002100F12404CB
:100CC00008E002F00705D208303542EA4372DB083B
:100CD0006554491C52EA0305F3D10468002310A2AD
:100CE000250708D504F020040C4304D0C46901236F
:100CF0000CA2641EC46130BCFFF78EBE10B5044662
:100D000021461068FFF77FFE02462046BDE81040EE
:100D10000023D1E7D21D22F00701D1E90023CBE760
:100D2000000000003000000030B5B0F10A024FEAC8
:100D3000900E71F100034EEA817EB0EB0E0061EB84
:100D400091014FEA101E4EEA017E10EB0E0041EBBE
:100D500011114FEA102E4EEA016E10EB0E0041EB1E
:100D600011214FEA104E4EEA014E10EB0E0041EBFE
:100D70001141401841F100014FEAD00040EA4170B2
:100D80004FEAD10110EB80054FEA810444EA9074E8
:100D900044EB01046D1944EB0404521BA3414FF0D2
:100DA000000348BF0A3200D530BD401C41F10001AC
:100DB00030BD70472DE9FF4F0C461E464FF0FF3700
:100DC0008BB0D2E90001DDF860800A908A46C1F359
:100DD0000A5505B93D46002108464FF00000BAF11A
:100DE000000F00F4400005DA00EB80004FF44001F2
:100DF00001EA50004FEA9059B9F1010F00DDB94600
:100E00000A9850EA4A000ED044F61050A5F2FF3579
:100E100045432F14B8F1000F1ED07542291E1EDD68
:100E2000C9F100021CE0B8F1010F4FF0000001D041
:100E3000302103E0F24305E02154401CB042FBDBCB
:100E400030460022002121540B99C1F80880C1E9E5
:100E500000200FB0BDE8F08FBD1B6D1CDEE74A46D9
:100E600000DA694206A800F05DFA06AB93E80700D5
:100E700003AB83E8070050460A9900F00BFB8DE8AE
:100E80000700A0F500501F3800900398002D09DDE1
:100E900042F21F014A46084403A90390684600F045
:100EA0006AFD08E0A0F500504A461F3803A90390E8
:100EB000684600F074FD8DE807000004000C03D0C4
:100EC0004FF0FF30410800E01046B8F1000F03D0AA
:100ED0000022009215461EE0751E05D4FFF724FF80
:100EE000303262556D1EF9D5B3460122084302D057
:100EF00000227F1C04E02078302801D100227F1ED0
:100F0000002A099786D01DE0112D07DAFFF70CFFA4
:100F1000303262556D1C50EA0102F5D1084302D00F
:100F20000098C8B10EE00021681E05E0235C625CF9
:100F300063542254401E491C8142F7DBAB46A81B78
:100F4000401E0990002004F80B000B98099AC0F885
:100F50000880C0E9002B7CE711264FF0000859E714
:100F60002DE9F04F88460446D21D22F0070191B0CA
:100F7000D1E90001CDE90A0106F0D1FB02460B9848
:100F8000C00F01D02D2007E02068810701D52B205C
:100F900002E0202101EAC000032A099001D0072ABB
:100FA00005DB03464146204600F07CF90BE1207842
:100FB000800601D5E06900E00620B8F1650F8146A2
:100FC00006D0B8F1660F18D0B8F1670F70D131E0D4
:100FD0000020B9F1110F009001DB112301E009F1AC
:100FE00001030AAA01A90CA8FFF7E4FEDDE90C70D1
:100FF000002609F10105834647E001204B46009099
:101000004FF000470AAA01A90CA8FFF7D3FEDDE9BB
:101010000DB00C995D46002610B909F101000D18BC
:10102000B9EB050003D4C0F1FF3609F10105A5EBCA
:1010300009002BE0B9F1010F01DA4FF0010900209E
:10104000B9F1110F0090484601DD112300E003467D
:101050000AAA01A90CA8FFF7ADFEDDE90C704D4608
:1010600000268346207800070AD4AB4500DA5D46A7
:1010700001A8012D04DD411911F8011C302907D008
:101080004F4502DA17F1040F04DA012082460FE01F
:101090006D1EEEE7002F02DCED1B3E4403E0781CE2
:1010A000A84200DD7D1CB81B00F1010A4FF000478B
:1010B0002078000703D4AA4501DB4FF0FF3A002156
:1010C000B7F1004F0DF143088DF8431024D00220F2
:1010D0002B23002F01DA7F422D230A21021EA0F1CB
:1010E000010000DC5FB197FBF1FC97FBF1F201FB23
:1010F0001C7C17460CF1300C08F801CDEEE7A8F186
:10110000010003702188090501D5452100E0652112
:10111000A0F1010800F8011C09980FA9A1EB08072C
:10112000FF1D00B10120411901EBEA70A1693844AB
:10113000081A401EA0612078C00602D42046FFF79E
:101140006FF9099828B1D4E901219047206A401C21
:1011500020622078C00622D52046FFF761F91EE004
:10116000002E04DBB34502DD01A8805D00E03020E5
:10117000D4E901219047206A401C2062761CAAF124
:1011800001005FEA000A0AD100F088F8C06801682F
:10119000405CD4E901219047206A401C2062281E4F
:1011A000A5F10105DCDC07E0D4E9012118F8010B09
:1011B0009047206A401C2062381EA7F10107F3DC2B
:1011C0002046FFF743F9032011B043E610B5436909
:1011D00013B1AFF3008001E0FFF7D2FC012010BD96
:1011E000128800F1240182840022C2840122EDE7EA
:1011F00011684FF0FF32E9E7007B00F08000704794
:1012000070B516460C46054600F040F8036893F8A2
:101210000101012806D0FF2C0FD8185D68B101200C
:101220002C7070BDD3F807013246214603F2071334
:1012300003442846BDE8704018474FF0FF3070BDAA
:10124000754600F0E3F8AE4605006946534620F0C7
:101250000700854618B020B5FFF73CF8BDE82040F0
:101260004FF000064FF000074FF000084FF0000B62
:1012700021F00701AC46ACE8C009ACE8C009ACE815
:10128000C009ACE8C0098D467047000010B500F0F9
:1012900005F8001D10BD00BFC9660000004870477A
:1012A0002C4700202DE9F0411F4604460326016823
:1012B000072A01F4006004DB08B116A505E016A5B5
:1012C00003E008B115A500E015A521F0100020608D
:1012D000A069C01EA0610FB1401EA0612046FFF7AB
:1012E0009FF84FB1D4E9012138469047206A401C4D
:1012F0002062C01C206206E0206AFAE7D4E90121DE
:1013000015F8010B9047761EF8D22046FFF79EF89D
:10131000BDE8F0814E414E006E616E00494E4600C0
:10132000696E66002DE9F047814616468AB033485B
:1013300078440DC88DE80D0030487844801C03AC1B
:101340000DC884E80D0041F69B300844372190FB1E
:10135000F1F290FBF1F5A5F1800501FB12041B3CB5
:1013600002D56442012000E00020DFF890A0804612
:101370000027FA44AAF1BE0A0DE0E00709D0324680
:10138000684607EB47010AEB810100F008FB8DE896
:10139000070064107F1C002CEFD1184F7F44AC3F36
:1013A00018E0E80714D007EB04100DF1180A90E8D4
:1013B0000E008AE80E00C068F04201D1981908902A
:1013C000324606A903A800F0EAFA03AB83E8070057
:1013D0006D10641C002DE4D132466946B8F1000F4F
:1013E00003A802D000F0C7FA01E000F0D8FAC9E97A
:1013F0000001C9F808200AB0BDE8F087D4690000F0
:101400000446AFF300802046FEF74FFF00487047C8
:101410000C4700204FF0013C50F8042B51F8043BDE
:101420009A4221D1A2EB0C03934313EACC1317D1B8
:1014300050F8042B51F8043B9A4215D1A2EB0C034F
:10144000934313EACC130BD150F8042B51F8043B0F
:101450009A4209D1A2EB0C03934313EACC13DBD0DD
:101460004FF00000704700BFD01A01BAB1FA81F105
:1014700001F0180122FA01F0CB40C1F12001DBB2EA
:10148000C0B2C01A2CFA01F3D11A914311EAC31168
:10149000E6D170475FEA400C08BF91F0000F4FEAB9
:1014A0008C234FEAC12243EA51514FEA1C5018BF26
:1014B00000F5F0404FEA300018BF41F000415FEA0C
:1014C0006C5C00F02980BCF1FF3F08BF40F0804019
:1014D0007047130C06BF12044FF0100C4FF0000CB5
:1014E000130E04BF12020CF1080C130F04BF1201FB
:1014F0000CF1040C930F04BF92000CF1020CD30FFB
:1015000004BF52000CF1010C11464FF00002A0F193
:101510001F00A0EB0C00704711F0004F08BF704790
:1015200031F000413FF4D5AF0B0C06BF09044FF07A
:10153000100C4FF0000C0B0E04BF09020CF1080C4C
:101540000B0F04BF09010CF1040C8B0F04BF8900C1
:101550000CF1020CCB0F04BF49000CF1010CCCF1D3
:101560002003A0EB0C0022FA03F302FA0CF241EA8A
:10157000030100F10100704720F07F4C80EA030076
:1015800023F07F47ACEB070303F57C5300F00040EA
:1015900003F1FF032DE980494FEA154B09B44FEAE7
:1015A000144325EA0B4E24EA03480FF2042606EB07
:1015B000132749083E785FEA320203FB0667C7F546
:1015C000000707FB06F64FEA54374FEAD64606F106
:1015D000020607FB066CCCF1005C4FEA1C472CEAC4
:1015E000074C07FB06F40CFB06F504EB15464FEA27
:1015F000961634BF00204FF000404FEAD13706FB6B
:1016000007FC4FEA1C4C0CFB0BF7D21B03FB0CF73F
:1016100061EB07010CFB0EF7B0EB074072EB1742D2
:101620000CFB08F734BFA2EB0742B2EB074261EBB9
:1016300017414FEA0C444FEA910706FB07FC4FEABB
:101640001C4C0CFB0BF7B0EBC74072EB573203FBA3
:101650000CF734BFA2EBC742B2EBC74261EB573184
:101660000CFB0EF7B0EBC70072EB57720CFB08F7E0
:1016700034BFA2EBC702B2EBC70261EB5771039F05
:101680004FEA816141EA921104EBCC044FEAD13771
:101690004FEA826206FB07FC42EA90124FEA806042
:1016A0004FEA1C4C0CFB0BF7D21B03FB0CF761EB56
:1016B00007010CFB0EF7B0EB074072EB17420CFB77
:1016C00008F734BFA2EB0742B2EB074261EB1741C8
:1016D0004FEA8C554FEA910704EB9C2406FB07FC6C
:1016E0004FEA1C4C0CFB0BF7B0EBC74072EB5732C8
:1016F00003FB0CF734BFA2EBC742B2EBC74261EB6E
:1017000057310CFB0EF7B0EBC70072EB57720CFBB6
:1017100008F734BFA2EBC702B2EBC70261EB577107
:1017200015EB4C254FEA816141EA92114FEA826242
:101730004FEAD13742EA901206FB07FC44F100045D
:101740004FEA80604FEA1C4C0CFB0BF7D21B03FBEB
:101750000CF761EB07010CFB0EF7B0EB074072EBE7
:1017600017420CFB08F734BFA2EB0742B2EB07426B
:1017700061EB174115EB1C154FEA813141EA9241AB
:101780004FEA823242EA90424FEA80304FEA0C76CA
:1017900044F1000448EA03434EEA0B484FF0000EC0
:1017A000B2EB080C71EB030724BF624639464EEBDF
:1017B0000E0E4FF0000B0018524149414BEB0B0B42
:1017C000B2EB080C71EB03077BF1000B24BF624600
:1017D00039464EEB0E0E4FF0000B001852414941B6
:1017E0004BEB0B0BB2EB080C71EB03077BF1000B1F
:1017F00024BF624639464EEB0E0E51EA020718BF6F
:1018000046F0010616EB0E7655F1000254F1000188
:1018100003D5BDE88901BDE80088BDE88901BDE8C0
:101820000048B619524141EB0101A3F10103704791
:1018300080807F7E7D7C7B7A79787776767574730D
:10184000727171706F6E6E6D6C6C6B6A6A696868CC
:10185000676666656464636362616160605F5F5E62
:101860005E5D5D5C5C5B5B5A5A59595858575756D8
:10187000565555555454535352525251515050503D
:101880004F4F4F4E4E4D4D4D4C4C4C4B4B4B4A4A8F
:101890004A494949484848474747474646464545D3
:1018A000454444444443434343424242424141410C
:1018B000002B26D4770021D01CB54FEA370703B49C
:1018C0004FF010004FF010014FF000000FBCBDE8CA
:1018D00010400BF1010BBBF1010F08BF5FEA1707C6
:1018E00022BF12F1010211F101014FF0004143F159
:1018F000000300F0004043EA00007047F9D35708A6
:10190000DAE746EA064613F1400F4FEA16461FDDB6
:1019100013F1200FDFBF16430A46002120335B423C
:10192000C8D0C3F1200746EA064602FA07F74FEA95
:10193000164646EA0706C3F1200722FA03F201FA27
:1019400007F721FA03F14FF0000342EA0702B1E77B
:1019500046EA020646EA06464FEA164646EA010607
:10196000BCBF46EA0646360C4FF000034FF00002BB
:101970004FF000019EE72DE9C048934630B491E84E
:10198000380007C831EA400C48BF34EA430C03D59D
:10199000FFF7F2FDFFF78CFFF0BCBDE800882DE9F2
:1019A000C048934630B491E8380007C810F0804F23
:1019B00008BF13F0804F03D100F005F8FFF778FF60
:1019C000F0BCBDE8008820F07F4780EA030023F0E8
:1019D0007F4C07EB0C03A3F57C5300F00040A3F110
:1019E000FE0392F0000F00F0B38095F0000F00F0BE
:1019F00077802DE901494FEA11404FEA144621EA68
:101A0000004800FB06FC24EA064708FB06F607FB35
:101A100008F800FB07F718EB06484CEB164C4FEAAA
:101A2000124B18EB07484FEA15464CEB174022EAD9
:101A30000B4E0BFB06FC25EA06470EFB06F607FBE2
:101A40000EFE0BFB07F71EEB064E4CEB164C4FF051
:101A500000061EEB074E4CEB174B18EB0B0840F142
:101A6000000018EB0E0B58EB000840F100008F1A35
:101A70004FF000013CBFC943661B14BFB5EB040C1B
:101A800000213CBFC943F61B4FEA17444EEA8E0EB5
:101A900027EA04454FEA1C4704FB07622CEA074C7F
:101AA00005FB07F70CFB05F604FB0CFC16EB0746E1
:101AB00042EB174216EB0C4642EB1C421BEB0606B0
:101AC00058EB0202414146EA9E0601D5BDE8018974
:101AD000B619524141EB0101A3F10103BDE80189AF
:101AE0004FEA14454FEA114724EA054621EA074C1C
:101AF00005FB07F406FB07F70CFB06F105FB0CFCE6
:101B000011EB074144EB17444FEA124711EB0C412C
:101B100044EB1C4422EA074C05FB07F206FB07F7DF
:101B20000CFB06F605FB0CFC16EB074642EB1742D6
:101B300016EB0C4642EB1C456A1854F1000148BFF5
:101B40007047B619524141EB0101A3F101037047FF
:101B500095F0000F37D04FEA11424FEA144721EABF
:101B6000024624EA074C02FB07F106FB07F70CFBD1
:101B700006F402FB0CFC14EB074441EB17414FEA5F
:101B8000154714EB0C4441EB1C4125EA074C02FBC2
:101B900007F506FB07F70CFB06F602FB0CFC16EB41
:101BA000074645EB174516EB0C4645EB1C42121950
:101BB00051F1000148BF7047B619524141EB010194
:101BC000A3F1010370474FEA14454FEA114724EA95
:101BD000054621EA074C05FB07F106FB07F70CFB5E
:101BE00006F24FF0000605FB0CFC12EB074241EB3E
:101BF000174112EB0C4251EB1C4148BF7047921841
:101C000041EB0101A3F10103704721B1826842F069
:101C10000102826003E0826822F001028260704764
:101C200021B1826842F48072826003E0826822F40B
:101C3000807282607047014600208A6802F00402C8
:101C40000AB1012000E000207047014600208A68A8
:101C500002F008020AB1012000E0002070470000F5
:101C600030B502460020002350680F4C20400D790B
:101C70000C6844EA05242043506090680B4C2040D7
:101C8000D1E902542C434D7944EA45042043906045
:101C9000D06A20F470000C7C641EE4B2234340EA56
:101CA0000350D06230BD0000FFFEF0FFFDF7F1FFF2
:101CB000F0B504460D4600200021092D11DDE06835
:101CC000A5F10A0606EB4607072606FA07F1884340
:101CD000A5F10A0606EB460603FA06F10843E060A2
:101CE0000CE0206905EB4507072606FA07F1884353
:101CF00005EB450603FA06F108432061072A0FDACF
:101D0000606B561E06EB86071F2606FA07F188430E
:101D1000561E06EB860605FA06F10843606322E0CC
:101D20000D2A0FDA206BD61F06EB86071F2606FA50
:101D300007F18843D61F06EB860605FA06F108432D
:101D4000206310E0E06AA2F10D0606EB86071F266D
:101D500006FA07F18843A2F10D0606EB860605FA9E
:101D600006F10843E062F0BD816841F0080181603E
:101D70007047816841F004018160704700B587B009
:101D80000121480204F058FC0920ADF804000020AD
:101D90008DF8070001A91F4800F046FF00200290BF
:101DA00001208DF80C008DF80D004FF46020049098
:101DB0000020059002208DF8180002A91648FFF7B0
:101DC0004FFF072301220A211348FFF771FF072362
:101DD00002220D211048FFF76BFF01210E48FFF78B
:101DE0001FFF01210C48FFF710FF0B48FFF7BCFF56
:101DF00000BF0948FFF729FF0028FAD10648FFF77E
:101E0000B8FF00BF0448FFF716FF0028FAD107B05B
:101E100000BD0000001001400024014070B50646DE
:101E20000C46154625B10121054880F8BB1003E09A
:101E30000221034880F8BB10204604F049FD70BD24
:101E4000D40000202DE9FE4304460D46174611A29A
:101E500007CA8DE807000221114880F87F10A7B15A
:101E60000021684604F0CCFF80462B4622464146BE
:101E7000684604F0D5FFC6B2002E06DDA05D31280D
:101E800003D10121064880F87F10284604F020FD88
:101E9000BDE8FE832B43474154543A200000000024
:101EA000D400002070B506460C46154625B1012128
:101EB000054880F80F1103E00221034880F80F1154
:101EC000204604F005FD70BDD400002070B5064624
:101ED0000C46154625B10121054880F82B1003E07A
:101EE0000221034880F82B10204604F0F1FC70BD5D
:101EF000D400002070B506460C46154625B10121D8
:101F0000054880F8331103E00221034880F83311BB
:101F1000204604F0DDFC70BDD40000207CB50546F1
:101F20000C4616460EA103C9CDE9000126B10121D8
:101F30000D4880F81B110FE023462A46072168460A
:101F400004F06EFF002803DD0121074880F81B1113
:101F50000221054880F81B11204604F0B9FC7CBD25
:101F6000414C524541445900D400002070B506460A
:101F70000C46154625B10121054880F83F1103E0C4
:101F80000221034880F83F11204604F0A1FC70BDF7
:101F9000D400002070B506460C46154625B1012137
:101FA000054880F8271103E00221034880F8271133
:101FB000204604F08DFC70BDD400002070B50646AC
:101FC0000C46154625B10121054880F84B1103E068
:101FD0000221034880F84B11204604F079FC70BDC3
:101FE000D400002070B506460C46154625B10121E7
:101FF000054880F8DF1003E00221034880F8DF1075
:10200000204604F065FC70BDD400002070B5064683
:102010000C46154625B10121054880F8AF1003E0B4
:102020000221034880F8AF10204604F051FC70BD37
:10203000D400002070B506460C46154625B1012196
:10204000054880F88B1003E00221034880F88B10CC
:10205000204604F03DFC70BDD40000202DE9FC4179
:1020600005460C4616460DA103C9CDE9000186B10F
:1020700001210C4880F897100021684604F0C0FE4A
:10208000804623462A464146684604F0C9FEC7B248
:1020900000BF204604F01CFCBDE8FC81434D474CCA
:1020A0003A200000D400002070B506460C461546C4
:1020B00025B10121054880F8A31003E0022103485F
:1020C00080F8A310204604F003FC70BDD40000206B
:1020D00070B506460C46154625B10121054880F825
:1020E000371003E00221034880F83710204604F03F
:1020F000EFFB70BDD400002070B506460C461546B7
:1021000025B10121054880F8431003E0022103486E
:1021100080F84310204604F0DBFB70BDD4000020A3
:1021200070B506460C46154625B10121054880F8D4
:102130004F1003E00221034880F84F10204604F0BE
:10214000C7FB70BDD40000202DE9FC4104460E46BB
:10215000174614A103C9CDE900010221134880F8F4
:102160007310CFB10021684604F04AFE8046334622
:1021700022464146684604F053FEC5B2002D0BDDF1
:10218000A81C205C312803D0A81C205C352803D172
:102190000121064880F87310304604F099FBBDE831
:1021A000FC8100002B435245473A2000D400002018
:1021B0002DE9FC4704460F46914626A103C9CDE907
:1021C00000010221254880F86710B9F1000F3BD0CB
:1021D0000021684604F014FE82463B4622465146E2
:1021E000684604F01DFEC5B2002D2DDD4FF000083D
:1021F000681C205C2C280AD16019012101F0E5FD42
:10220000B8B1605D3038C6B24FF0010811E0601916
:10221000022101F0DAFD60B1605DA0F1300606EB4D
:1022200086004600681C205C30383044C6B24FF04F
:102230000108B8F1000F03D01F2E01DC0848067317
:102240000121064880F86710384604F041FBBDE8DC
:10225000FC8700002B4353513A200000D40000209B
:102260003036002070B506460C46154625B10121D2
:10227000054880F8EB1003E00221034880F8EB10DA
:10228000204604F025FB70BDD400002070B5064642
:102290000C4615461DB101210448C17402E002211B
:1022A0000248C174204604F013FB70BDD400002026
:1022B0002DE9FC4104460D46164619A103C9CDE996
:1022C00000012B4622460821684604F0A9FD074676
:1022D000002F15DD7EB1E05D312804D103211248C5
:1022E00080F8631116E0E05D302813D104210E4818
:1022F00080F863110EE002210B4880F8631109E0B9
:1023000026B10121084880F8631103E00221064844
:1023100080F86311284604F0DBFABDE8FC81000078
:102320002B45475053503A20D400002070B5064644
:102330000C4615461DB101200449C87102E0022077
:102340000249C871204604F0C3FA70BDD4000020D1
:1023500070B506460C46154625B10121054880F8A2
:10236000571103E00221034880F85711204604F07A
:10237000AFFA70BDD40000202DE9FC4704460E469C
:10238000904616A103C9CDE900010221154880F845
:102390005B10B8F1000F1CD00021684604F030FD3E
:1023A0008146334622464946684604F039FDC5B2A7
:1023B000002D0EDD60190F2101F007FD074647B122
:1023C00061190F22084801F0DFFE0121054880F85D
:1023D0005B10304604F07CFABDE8FC87494D454966
:1023E0003A200000D40000203D36002070B506469B
:1023F0000C4615461DB101210448C17702E00221B7
:102400000248C177204604F063FA70BDD400002072
:1024100070B506460C46154625B10121054880F8E1
:10242000031103E00221034880F80311204604F061
:102430004FFA70BDD400002070B506460C46154614
:1024400025B10121054880F8F71003E00221034877
:1024500080F8F710204604F03BFA70BDD40000204D
:1024600070B506460C46154625B10121054880F891
:10247000D31003E00221034880F8D310204604F073
:1024800027FA70BDD400002070B506460C461546EC
:1024900025B10121054880F86F1103E002210348AE
:1024A00080F86F11204604F013FA70BDD4000020AC
:1024B00070B506460C46154625B10121054880F841
:1024C000C71003E00221034880F8C710204604F03B
:1024D000FFF970BDD4000020012009490870487040
:1024E00088700020C870012008710649087000201B
:1024F00048700120044908704870887070470000D7
:10250000303600208C0000204802002010B5012049
:1025100004F0A2F8002004F09FF810BD01F078FF4D
:1025200000BFFEE710B500200449087007200449E9
:10253000087001F039FEFFF7CFFF10BD4802002000
:102540008C00002000201649497801B9704720B15D
:1025500001280DD002281FD115E01249097829B1B0
:102560000121114A11700021517016E0012000BFB5
:102570000C49497829B102210B4A1170152151707B
:102580000BE0022000BF0749897819B10321064AF0
:10259000117002E0032000BF00BF00BF00BFD5E7FD
:1025A00048020020303600208C00002010B501F0D9
:1025B0002FFF022000F00EF9002840D0022000F08A
:1025C00049F8204800682049098808441D490860E6
:1025D000084640681C49498808441A4948601B4815
:1025E0000078401C1949087008460078052826DB49
:1025F00000200870134800680521B0FBF1F0114974
:1026000008600846006840F22F114843000B0D494E
:102610000860084600880E4908800A48406805217D
:10262000B0FBF1F0074948600846406800EB4010F5
:10263000C0F3D3204860084680880549488001F0EF
:10264000F9FE10BD000000208400002008000020DA
:102650008800002000F0805111B10349086001E0BA
:102660000249486070470000040402400000024034
:1026700021B1026842F00102026004E002684FF6F4
:10268000FE731A400260704701684FF6FE721140F7
:1026900001600021016041608160C1604B49884256
:1026A00008D14A490839496841F00F01474A083AB8
:1026B00051608AE045491431884208D143490839BC
:1026C000496841F0F001414A083A51607DE03F49D4
:1026D0002831884208D13D490839496841F4706180
:1026E0003A4A083A516070E038493C31884208D192
:1026F00036490839496841F47041344A083A516012
:1027000063E032495031884208D13049083949687C
:1027100041F470212D4A083A516056E02B4964314A
:10272000884208D129490839496841F47001274A8B
:10273000083A516049E025497831884208D1234957
:102740000839496841F07061204A083A51603CE01C
:102750001F49884206D1011F096841F00F01021F7D
:10276000116032E01A491431884208D11849091F12
:10277000096841F0F001164A121F116025E0144962
:102780002831884208D11249091F096841F4706153
:102790000F4A121F116018E00D493C31884208D1E0
:1027A0000B49091F096841F47041094A121F116061
:1027B0000BE007495031884207D10549091F0968D4
:1027C00041F47021024A121F116070470800024054
:1027D0000804024001460020002201F0805313B19A
:1027E000054B1A6801E0054B1A6802EA01030BB1B8
:1027F000012000E000207047000402400000024079
:102800001AB103680B43036002E003688B43036063
:10281000704710B50022026847F6F0739A430C6ABD
:102820008B6823430C6923434C6923438C692343FE
:10283000CC6923434C6A23438C6A23431A430260C6
:10284000CB6843600B6883604B68C36010BD10B5F4
:1028500001F0DEFD01F0EEFD10BD000000B58DB011
:102860000121084603F0C8FE1948FFF70DFF19487B
:102870000290194803900020049002200590002047
:10288000069080200790400008908000099020204A
:102890000A9000020B9000200C9002A90C48FFF750
:1028A000B8FF01210A48FFF7E3FE01220221084890
:1028B000FFF7A6FF0B208DF8040004208DF806001A
:1028C00001208DF8070001A801F048FD0DB000BD02
:1028D000080002404C2401408400002001490860A7
:1028E0007047000014040140002123498279002A26
:1028F0003AD00A46126803689A430B461A600A1DCA
:10290000126803689A430B1D1A60027911440A6821
:1029100003681A430A60184A0832126803689A4327
:10292000154B08331A601A1D126803689A43124B3C
:102930000C331A604279102A0ED11A1F12680368EC
:102940001A430D4B08331A601A1D126803681A43A4
:10295000094B0C331A600DE00749427911440A68AB
:1029600003681A430A6005E0027911440A680368A3
:102970009A430A6070470000000401400021016092
:1029800001710C21417100218171704710B52948F6
:10299000007800B910BD01F007FC2748007818B195
:1029A000002026494870F5E7012024494870214855
:1029B000807818B12048007900282CD11E48C078B2
:1029C00030B101281CD002280AD0032821D113E0FD
:1029D000FFF7B8FD032802D102201749C87019E09B
:1029E0001748007810B901201549087000201549D2
:1029F0000870124988700DE006201249087009E03D
:102A000011A0FDF7EBFCFFF78DFD00200B4988704E
:102A100000E000BF0BE007488078012807D1064896
:102A2000007920B10820074908701C20487000BFB9
:102A3000B0E7000048020020303600206402002089
:102A40008C3D00208C0000200D0A204C32313820B3
:102A500073656E642064617461206661696C2C77B3
:102A6000652077696C6C207265736574206C3231F7
:102A700038206D6F64756C650D0A000070B50446F2
:102A80004FF40000B0EB043F01DA002070BD2503D5
:102A900004F07AF904F06EF910210C4800F04FF9B7
:102AA000202003F09DFFC5F3074003F099FFC5F315
:102AB000072003F095FFE8B203F092FF10210348CE
:102AC00000F03FF904F056F90120DFE7000801406B
:102AD00000B587B0012141F2040003F0ADFDE02014
:102AE000ADF8180018208DF81B0003208DF81A008F
:102AF00006A91B4800F098F81020ADF818008DF8D2
:102B00001B0006A9164800F08FF81021144800F0A9
:102B100018F90020ADF804004FF48270ADF80600FB
:102B20000020ADF80800ADF80A00ADF80C004FF435
:102B30000070ADF80E000820ADF810000020ADF8D0
:102B400012000720ADF8140001A9064803F07EFF2B
:102B50000121044803F060FF012007B000BD000020
:102B600000080140003001402DE9F04104460E46C6
:102B700017461021104800F0E2F8032003F030FF60
:102B8000C4F3074003F02CFFC4F3072003F028FF31
:102B9000E0B203F025FF002505E0FF2003F020FF51
:102BA0007055681C85B2BD42F7DB1021024800F069
:102BB000C8F80120BDE8F081000801402DE9F0418E
:102BC00006460F4614463019B0F5000F02D3002018
:102BD000BDE8F081F0B2C0F58075AC4200DC25465E
:102BE00012E02A463146384604F0DEF8AC4200D105
:102BF0000BE02F442E44601B84B2B4F5807F02DDCD
:102C00004FF4807500E02546EBE700BF0120DFE7C9
:102C100010B501F0B9F80348006880F004000149DC
:102C2000086010BD0C1801402DE9F0410246002556
:102C30000026002000230024002791F803C00CF098
:102C40000F0591F803C00CF0100CBCF1000F03D07D
:102C500091F802C04CEA050591F800C0BCF1000FE4
:102C600031D0146800202BE04FF0010C0CFA00F377
:102C7000B1F800C00CEA03069E4220D183004FF059
:102C80000F0C0CFA03F7BC4305FA03FC4CEA0404EE
:102C900091F803C0BCF1280F06D14FF0010C0CFADB
:102CA00000FCC2F814C00AE091F803C0BCF1480F60
:102CB00005D14FF0010C0CFA00FCC2F810C0401C0A
:102CC0000828D1D31460B1F800C0BCF1FF0F34DD87
:102CD000546800202EE000F1080C4FF0010808FABB
:102CE0000CF3B1F800C00CEA03069E4221D1830028
:102CF0004FF00F0C0CFA03F7BC4305FA03FC4CEA47
:102D0000040491F803C0BCF1280F05D100F1080CB0
:102D100008FA0CF8C2F8148091F803C0BCF1480F0F
:102D200007D100F1080C4FF0010808FA0CF8C2F8BE
:102D30001080401C0828CED35460BDE8F08141616A
:102D4000704701617047000008B501217D2003F044
:102D500073FC4FF6FF70ADF8000048208DF80300BB
:102D600069463E48FFF760FF69463D48FFF75CFF54
:102D700069463C48FFF758FF69463B48FFF754FF58
:102D800069463A48FFF750FF4FF40050ADF8000095
:102D900003208DF8020010208DF8030069463248A8
:102DA000FFF742FF4FF48050ADF8000003208DF88C
:102DB000020010208DF8030069462948FFF734FF10
:102DC0000420ADF8000003208DF8020004208DF8E7
:102DD000030069462548FFF727FF8020ADF8000073
:102DE00003208DF8020010208DF8030069461D486D
:102DF000FFF71AFF1020ADF8000003208DF8020045
:102E000010208DF8030069461748FFF70DFF4FF4B7
:102E10000050ADF8000003208DF8020010208DF85E
:102E2000030069460E48FFF7FFFE4020ADF80000A2
:102E300004208DF8030069460C48FFF7F5FE4FF4B7
:102E400000510948FFF77DFF80210648FFF779FF11
:102E50004FF400510248FFF774FF08BD000801401D
:102E6000000C014000100140001401400018014016
:102E700038B5022447484078123805287BD2DFE86D
:102E800000F01D3751036B000220434B0022114616
:102E90000090152001F04AF8404890F803010128FD
:102EA00003D112203B49487007E03C4890F80301E9
:102EB000022801D1012469E068E000BF0220364BFE
:102EC000002211460090122001F030F8334890F8AB
:102ED000DF00012803D113202E49487007E02F4856
:102EE00090F8DF00022801D101244FE04EE000BF3E
:102EF0000220294B002211460090132001F016F801
:102F0000264890F8EB00012803D11420214948708D
:102F100007E0224890F8EB00022801D1012435E0B7
:102F200034E000BF02201C4B002211460090142008
:102F300000F0FCFF194890F8F700012803D1162093
:102F40001449487007E0154890F8F700022801D1AD
:102F500001241BE01AE000BF02200F4B00221146A3
:102F60000090162000F0E2FF0C4890F80F010128B5
:102F700002D100240AE007E0084890F80F01022877
:102F800001D1012402E001E0012400BF00BF20467E
:102F900038BD00008C000020067C0008D400002012
:102FA00000B58FB0154840891449097A134AD2797F
:102FB000CDE900210290114883794279104903A894
:102FC000FDF7F6F903A80F49C1F8140102200E4BD2
:102FD000002211460090172000F0A8FF094890F841
:102FE0001B01022802D101200FB000BD054890F856
:102FF0001B0108B90220F7E70020F5E73036002072
:103000008E000020D4000020067C000808B50220B5
:103010000A4B002211460090192000F087FF084853
:1030200090F83301022801D1012008BD044890F82E
:10303000330108B90220F8E70020F6E7067C000813
:10304000D400002008B502200A4B0022114600904F
:10305000152000F06BFF084890F80301022801D109
:10306000012008BD044890F8030108B90220F8E7E0
:103070000020F6E7067C0008D400002038B50224C2
:10308000704840780D286FD2DFE800F0071ED63672
:10309000BFD6D6D650718BD6A50002206A4B00222F
:1030A00011460090104600F041FF6848C0790128A1
:1030B00002D16449487006E06448C079022801D111
:1030C0000124BBE0BAE000BF02205F4B00221146A2
:1030D0000090012000F02AFF5C48C07C012803D149
:1030E00003205849487006E05848C07C022801D1A6
:1030F0000124A3E0A2E000BF0220534B00221146AE
:103100000090032000F012FF504890F82B00012897
:1031100003D108204B49487007E04C4890F82B0039
:10312000022801D1012489E088E000BF00230222A7
:103130001946184601F0FAFB0220434B00221146C3
:103140000090082000F0F2FE404890F86700012847
:1031500003D109203B49487008E03C4890F86700DB
:10316000022802D1012469E066E067E000BF022086
:10317000354B002211460090092000F0D7FE33485D
:1031800090F87300012803D10A202E49487007E007
:103190002E4890F87300022801D101244EE04DE042
:1031A00000BF0220284B0022114600900A2000F0A8
:1031B000BDFE264890F87F00012803D10C2021494C
:1031C000487007E0214890F87F00022801D10124CF
:1031D00034E033E000BF02201B4B00221146009078
:1031E0000C2000F0A3FE194890F89700012803D1A5
:1031F00004201449487007E0144890F8970002280A
:1032000001D101241AE019E000BF02200E4B002278
:1032100011460090042000F089FE0C4890F8370019
:10322000012801D1002409E0084890F8370002285D
:1032300001D1012402E001E0012400BF00BF2046CB
:1032400038BD00008C000020067C0008D40000205F
:103250002DE9F0418CB007460D4631A00068019081
:103260002A46304902A8FDF7A3F802A82E49C1F862
:103270002001002101A803F0C3FD804601AB00221C
:1032800011460090182000F051FE274890F82701C1
:10329000022806D125A0FDF7A1F801200CB0BDE859
:1032A000F08126A0FDF79AF8002605E0B95D29A077
:1032B000FDF794F8701C86B2AE42F7DB27A0FDF74D
:1032C0008DF8642300221146104601F02FFB002DDB
:1032D00024DD2946384600F045F802211FA000F001
:1032E00041F8642300221146104601F01FFB2821FB
:1032F00002A800F0AFFE0446002C0FDD204603F0CC
:10330000E7FA214602A800F027FF234602AA072178
:10331000134803F085FD08B90120BFE70020BDE791
:103320003E000000B5000020D400002061636B2047
:103330006572726F72200D0A000000000D0A2047AE
:103340005052532073656E64206461746120697308
:103350003A0D0A00252E3258200000000D0A000008
:103360000C7C000870B505460E4600240CE0295D73
:10337000074804F072F800BF8021054803F0A0FF61
:103380000028F9D0601C84B2B442F0DB70BD0000AC
:103390000048004010B5C178102903DAC17808311F
:1033A000C17061E0C1780831C170C178182291FB09
:1033B000F2F302FB1311C1708178491C817081788E
:1033C0001C2951DD41780D294DD2DFE801F04C0771
:1033D00015083609370A0B380C39420000BF00BF08
:1033E00000BF00BF00BF81781F2904DD012181706B
:1033F0004178491C417036E00178CA1701EB92729E
:103400009210A1EB82027AB90278642392FBF3F462
:1034100003FB142242B181781D290DDD0121817049
:103420004178491C417007E081781C2904DD0121A5
:1034300081704178491C417015E000BF00BF00BF9A
:1034400081781E2904DD012181704178491C417079
:1034500009E081781F2905DD012181704170017823
:10346000491C017000BF00BF10BD00002DE9FF4FD7
:1034700083B082468B4616460024A04659465046E5
:1034800000F08AFC0190019800B9CFE0002512E01D
:103490001AF805002E2807D004EB840044001AF81F
:1034A00005003038044404E0ABEB0500401EC7B211
:1034B00003E0681CC5B25D45EADB00BF681CC5B20D
:1034C0000EB1012E0BD100200290052F01DD052742
:1034D00005E0052F03DAC7F10500C0B202900EB176
:1034E000012E37D16420B4FBF0F100FB1148B4FB8E
:1034F000F0F444434FF0000911E004EB8400440071
:1035000008EB88004FEA40082846691CCDB21AF83B
:1035100000003038804409F1010000F0FF09B9458E
:10352000EBDB4FF000090AE004EB8400440008EBF9
:1035300088004FEA400809F1010000F0FF090298F5
:103540008145F1DB08F1050808EB88080320B8FB8A
:10355000F0F812E04FF000090DE004EB84004400A5
:103560002846691CCDB21AF800003038044409F12D
:10357000010000F0FF09B945EFDB4EB944440A20D1
:10358000B4FBF0F42B4884424BD9002001904DE06D
:10359000012E09D144440A20B4FBF0F426488442A9
:1035A0003FD90020019041E0022E14D1002504E013
:1035B0000A20B4FBF0F4681CC5B2BD42F8DB40F24F
:1035C0003C7044434FF47A70B4FBF0F4FF2C28D9DC
:1035D000002001902AE0032E0ED1002504E00A20ED
:1035E000B4FBF0F4681CC5B2BD42F8DB6408B42C2F
:1035F00017D90020019019E0042E0FD1002504E016
:103600000A20B4FBF0F4681CC5B2BD42F8DB42F2FC
:103610000F70844205D90020019007E0002001903E
:1036200004E0069804600120019000BF019807B0F3
:10363000BDE8F08F804A5D050095BA0A00B585B0F7
:103640001FA2204901A8FCF7B3FE01A81E49C1F83A
:103650005C0102201D4B0022114600901D2000F04D
:1036600065FC194890F86301042802D1002005B0D8
:1036700000BD154890F86301022801D10120F6E74A
:1036800013A2104901A8FCF793FE01A80E49C1F846
:103690005C0102200D4B0022114600901D2000F01D
:1036A00045FC094890F86301022801D10120DEE7BA
:1036B000054890F8630108B90220D8E70020D6E752
:1036C0003F000000C5000020D4000020067C000858
:1036D0003D3000002DE9F04106460C4606213046FB
:1036E00000F073FB8046B8F1000F00D12DE00025FB
:1036F00011E016F81500303800EB8000470001207B
:1037000000EB4500305C30383844C7B2C5F10200E8
:103710002754681CC5B2032DEBDB20780E280EDB86
:10372000207863280BDA60780C2808DC60780128A0
:1037300005DBA0781F2802DCA078012802DA4FF010
:10374000000801E04FF0010800BF4046BDE8F081ED
:103750002DE9F74FD6B004465798642801DD642060
:103760005790002700250CE0605D2C2804D13846D6
:10377000791CCFB252A90D540D2F00DB04E0681C58
:10378000C5B257988542EFDB00BF0B2F04D00D2F39
:1037900002D059B0BDE8F08F589801287ED120782A
:1037A0002C2845D09DF84801062841DB9DF84F01A3
:1037B000401C205C2C283BD09DF850019DF84F11F7
:1037C000401A062834DB0DF24311204600F00CFAB3
:1037D0004F909DF84F112144481C50A9FFF77AFFE4
:1037E00082464F9820B3BAF1000F21D050A8FFF7BE
:1037F000D1FD062250A9DD4800F0C6FC9DF8450128
:103800009DF844119DF843219DF84231CDE90032E5
:10381000CDE902109DF841319DF84021D4A105A8C1
:10382000FCF7E8FDC0B2049005A8049900F094FCF0
:103830009DF84801401C205C412809D0CB480C3839
:10384000C07C20F00100401CC8490C39C87407E056
:10385000C6480C38C07C20F00100C4490C39C8743B
:103860009DF84A019DF84911401A401EC0B24E9081
:103870009DF84C019DF84B11401A401EC0B24D906E
:103880009DF84901401C205C2C2879D04E980028D6
:1038900076DD9DF84B01401C205C00E0DCE02C282C
:1038A0006ED04D9800287EDD9DF84A01401C205CBA
:1038B0004E2805D09DF84901401C205C532872D148
:1038C0009DF84C01401C205C452805D09DF84B011B
:1038D000401C205C572866D19DF849112144481CA2
:1038E00049AB00224E99FFF7C1FD4F909DF84B1157
:1038F0002144481C48AB01224D99FFF7B7FD824691
:103900004F98E8B3BAF1000F4DD09DF84A01401C22
:10391000205C4E2808D195480C38C07C20F002006D
:1039200092490C39C87408E090480C38C07C20F0EB
:103930000200801C8D490C39C8749DF84C01401C54
:10394000205C452808D189480C38C07C20F0040050
:1039500086490C39C87408E084480C38C07C20F0D3
:103960000400001D81490C39C87480490C394998FC
:103970000860489848609DF84C01401C205C00E0BD
:1039800011E04899CDE900109DF84A01401C235CE4
:1039900082A105A8499AFCF72DFDC0B2049005A8A4
:1039A000049900F0D9FB9DF84E019DF84D11401A85
:1039B000401EC0B24C909DF84D01401C205C2C284C
:1039C0001CD04C98002819DD9DF84D112144481C4D
:1039D00047AB02224C99FFF749FD064676B1634991
:1039E0000C394798887271A105A8479AFCF702FD27
:1039F000C0B2049005A8049900F0AEFB9DF84F01F9
:103A00009DF84E11401A401EC0B24B909DF84E01D9
:103A1000401C205C2C281ED04B9800281BDD9DF8F4
:103A20004E112144481C46AB03224B99FFF71EFD63
:103A30000646002EEFD04D490C394698C87246987C
:103A400042005DA105A8FCF7D5FCC0B2049005A812
:103A5000049900F081FB87E0589802287ED19DF8F8
:103A60004E019DF84D11401A401E00F0FF089DF8D0
:103A70004D01401C205C2C2831D0B8F1000F2EDD08
:103A8000B8F1020F2BDC9DF84D112144481C414632
:103A900000F09BF906460EB34FF0000900250CE03C
:103AA00009EB89004FEA40099DF84D01401C28446C
:103AB000205C30388144681CC5B24545F0DB2B4999
:103AC0000C3981F812904A463FA105A8FCF792FCF8
:103AD000C0B2049005A8049900F03EFB03E000206A
:103AE00022490C3988749DF852019DF85111401AF1
:103AF000401E00F0FF0B9DF85101401C205C2C285B
:103B000032D0BBF1000F2FDD00204A9001259DF837
:103B10005101401C205C2D2806D1E8034A90022563
:103B2000ABF1010000F0FF0B9DF851112144481941
:103B300045AB04225946FFF799FC064676B14599F4
:103B40004A980843459009490C394598088123A1B2
:103B500005A8459AFCF74EFCC0B200E004E00490D2
:103B600005A8049900F0F8FA00BF12E660360020BC
:103B70000D0A25303264C4EA25303264D4C22530BF
:103B80003264C8D52025303264CAB125303264B7DA
:103B9000D625303264C3EB0900000000256C642593
:103BA0006320256C6425630900000000CBD9B6C8EA
:103BB000A3BA253033640900BABDCFF2A3BA2530C9
:103BC000336420B6C80D0A00BFC9D3C3CEC0D0C766
:103BD000CAFD3A202530326409000000BAA3B0CEF5
:103BE0003A2025640D0A00002DE9F04106460D46F5
:103BF0000621304600F0E9F8074607B923E0002423
:103C000012E016F81400303800EB80004FEA40084C
:103C1000012000EB4400305C3038404400F0FF08E5
:103C200005F80480601CC4B2032CEADB287818284D
:103C300005DA68783C2802DAA8783C2801DB0027FE
:103C400000E0012700BF3846BDE8F08110B586B01E
:103C50000224454840781C2804D01D281DD01E2869
:103C60007CD15DE00220414B0022114600901C20D7
:103C700000F05CF93E4890F85701012803D11D205F
:103C80003949487008E03A4890F85701022802D1B3
:103C9000012006B010BD63E000BF36A2364902A87D
:103CA000FCF786FB02A83249C1F85C0102202F4BC9
:103CB0000022114600901D2000F038F92C4890F8A1
:103CC0006301032803D11E202749487029E02848B2
:103CD00090F86301022801D10120DAE727A22649E2
:103CE00002A8FCF765FB02A82149C1F85C0102208B
:103CF0001E4B0022114600901D2000F017F91C48B1
:103D000090F86301012803D11E201749487008E08C
:103D1000174890F86301022801D10120B9E71FE09C
:103D200000BF002305221946184600F0FFFD0220BF
:103D30000E4B0022114600901E2000F0F7F80C48B0
:103D400090F86F01012802D1002406E006E008483F
:103D500090F86F01022800D1012401E0012400BF86
:103D600000BF204695E700008C000020067C00087C
:103D7000D40000203F000000C50000203D310000BD
:103D800000F046FB00BFFEE74AF6AA2001490860A2
:103D9000704700000030004010B502460B4601207D
:103DA00000210BE0545C302C02DB545C392C03DD29
:103DB000545C2E2C00D003E04C1CE1B29942F1DBA4
:103DC00000BF994200D0002010BD10B502460B463E
:103DD0000120002108E0545C302C02DB545C392CBB
:103DE00000DD03E04C1CE1B29942F4DB00BF9942D4
:103DF00000D0002010BD000008B50121612002F0B4
:103E00001BFC4FF48070ADF8000003208DF8020019
:103E100010208DF8030069460948FEF705FF4FF4AE
:103E20000040ADF8000003208DF8020010208DF84E
:103E3000030069460348FEF7F7FE00F005F808BDE9
:103E400000140140001801401FB5324A07CA01ABF7
:103E500007C34FF400413048FEF771FF4FF4807103
:103E60002E48FEF76CFF002305221946184600F085
:103E70005DFD4FF480712948FEF763FF00230122A6
:103E80001946184600F052FD4FF400412248FEF753
:103E900058FF002305221946184600F047FD4FF44D
:103EA00000411D48FEF74BFF00230122194618462A
:103EB00000F03CFD002418E00020009001A850F81C
:103EC000241000231A46164803F0D0FA0220154B9E
:103ED000002211460090104600F028F81248C079E0
:103EE000012800D103E0601CC4B2032CE4DB00BF56
:103EF0007CB102200B4B00221146009000F016F816
:103F00000020034602464FF416410090044803F097
:103F1000ADFA1FBD287C00080018014000140140C4
:103F200000480040067C0008D40000202DE9F04F36
:103F3000ADF2E45D04460F46154698464FF0000B7F
:103F400000260020019004EB4401414A02EB81016C
:103F5000C871814665E004EB44013D4A52F82100F6
:103F6000002102F04DFF04EB4401394A009052F861
:103F700021000099FFF7F6F9002D03DD29463846A8
:103F8000FFF7F0F904EB4401314A52F82100002117
:103F900002F036FF04EB44012D4A009052F8210054
:103FA000009900F0D9F8002D03DD2946384600F0CD
:103FB000D3F84FF0000A23E0642300221146104694
:103FC00000F0B4FC40F2DC5102A800F043F80646D1
:103FD000002E11DD314602A800F0BEF8334602AAD9
:103FE0004046DDF8081602F01BFF019001980028FA
:103FF00002DD4FF0010B0BE00AF1010000F0FF0AB7
:1040000004EB4400124901EB800080885045D3DC6A
:1040100000BFBBF1000F00D00BE009F1010000F080
:10402000FF0904EB44000A4901EB80008079484510
:1040300091DC00BF04EB4400054901EB80005A46C7
:104040003146836802A898470DF2E45DBDE8F08F21
:10405000D400002070B503460C4600221648408864
:10406000154DAD88A84224D01348408800F2DC509A
:10407000114DAD88401B40F2DC5590FBF5F605FB79
:10408000160082B2A24201DD002070BD00210EE0C8
:1040900009488088084440F2DC5590FBF5F605FBA2
:1040A0001600054DAD68285C5854481C81B29142F9
:1040B000EEDB1046E9E70000042C00200024FFF7A7
:1040C0009BFEFEF709FA26222146641C2048425432
:1040D00050222146641C425405222146641C42544D
:1040E00018222146641C425460222146641C42541A
:1040F00044222146641C4254AA222146641C425494
:1041000000222046611CCCB211490A5416200855E1
:104110006220C87720200F4908840D48C861DA2042
:1041200048715E210B4881719921C1719221017200
:1041300042F2AF600749488101F096FE07E0002394
:1041400002221946184600F0F1FBFEF71FFCF6E7C5
:104150009C3600203036002070B505460E460024FF
:104160000CE0295D074803F078F900BF802105487D
:1041700003F0A6F80028F9D0601C84B2B442F0DB4A
:1041800070BD00000038014010B50346002003E078
:104190000C5C1C54441CA0B29042F9DB10BD00F032
:1041A00037F900BFFEE7000010B502245C48007834
:1041B0000A286FD2DFE800F0A20517293B664D7987
:1041C0007C90FEF75BFF04461CB90020554908703F
:1041D00008E0022C03D102205249087002E00120BD
:1041E000504908708BE0FEF743FE04461CB90020DE
:1041F0004C49487008E0022C03D10220494948701C
:1042000002E001204749487079E0FEF7C9FE044604
:104210001CB900204349887008E0022C03D1022019
:104220004049887002E001203E49887067E0FEF74F
:10423000EDFE04461CB901203A49487008E0022C02
:1042400003D102203749487002E003203549487005
:1042500055E03448008C10B13248C06918B932A01A
:10426000FCF7BCF810BD2F4A118CD069FEF7F0FFA7
:1042700004461CB902202B49C87002E001202949DC
:10428000C8703CE0FEF7DEFE044624B90120254953
:10429000887009E032E0022C03D1022021498870A5
:1042A00002E003201F49887029E0FFF7CDFD26E0DA
:1042B000FFF7CCFC04462CB900201A4908711849B4
:1042C000087008E0022C03D102201649087102E0B0
:1042D00001201449087112E0FFF7B0F904461CB937
:1042E00001201049087108E0022C03D102200D4979
:1042F000087102E003200B49087100E000BF00BF15
:1043000007480078012805D00CB1012C02D100200B
:104310000349087002F0BEFB02F030FC00BFA1E7C9
:104320008C00002030360020675F677072735F6416
:104330006174615F7374727563742E53656E644447
:104340006174613D3D4E554C4C200D0A000000004B
:1043500010B500F05DF800F06DF810BD70B50021EB
:1043600000230F22C47804B3154C246804F4E064DD
:10437000C4F5E064210AC1F10403CA40447804FA98
:1043800003F184781440214309010E4C0678A155AD
:10439000047804F01F050124AC4005786D11AD00D0
:1043A00005F1E025C5F8004109E0047804F01F0597
:1043B0000124AC40044D0678761145F8264070BDC6
:1043C0000CED00E000E400E080E100E00249014380
:1043D000024A1160704700000000FA050CED00E091
:1043E00010B500F013F800F09FFB00F0C7FB00F0E1
:1043F000E7FB00F06FFB00F041FB00F07BFC00F0FE
:104400001FFC00F045FC00F002F810BD704770473B
:1044100006480078012808D105480078FF2804D212
:1044200003480078401C0249087070476200002071
:104430005500002010B500241A480078012830D11A
:10444000FBF75AFF04461848007820B11648007858
:10445000401E1549087014480078F8B913480078D0
:10446000E0B900F0A9FC12481249097850F821007F
:10447000114908600F4800781049097888420DD02A
:104480000D480068806B401C0B49096888630C4824
:104490000068401C0A490860FBF74DFF2046FBF707
:1044A0002FFF10BD620000205500002056000020A4
:1044B00084260020580000207000002057000020B3
:1044C0003C00002010B50B48007890B900F074FC57
:1044D000094800780949087009480749097850F8DF
:1044E0002100084908600846006807490860FBF792
:1044F0000AFF10BD62000020580000205700002075
:104500008426002070000020680000207047000012
:104510002DE9FE4F06460F4690461C464FF0000917
:10452000FBF7EAFE81461F48007828B14846FBF7B2
:10453000E7FE3C20BDE8FE8F1B4850F8240060BB1E
:104540000120194941F824004846FBF7D9FE002311
:1045500042463946304600F009F982460020009074
:1045600001900346024651460290204600F03AFC74
:10457000054635B90D48007801280CD100F0E2FB62
:1045800009E0FBF7B9FE81460020074941F8240005
:104590004846FBF7B5FE2846CCE74846FBF7B0FE99
:1045A0002820C7E755000020842600206200002054
:1045B0002DE9F04F85B081468A4693461C46DDE9D9
:1045C0000F78129D00200390FBF796FE039023487E
:1045D000007830B10398FBF793FE3C2005B0BDE8AE
:1045E000F08F1F4850F8240088BB01201C4941F877
:1045F00024000398FBF784FE2A464146384600F023
:1046000001FD2B465A465146484600F0AFF804904B
:104610001198CDE9008002953A4620460E9B0499F8
:1046200000F0E0FB064636B90E48007801280CD1B0
:1046300000F088FB09E0FBF75FFE039000200849CB
:1046400041F824000398FBF75BFE3046C6E7FFE71E
:104650000398FBF755FE2820C0E700005500002016
:104660008426002062000020704770472DE9F04149
:1046700006460F4614464FF000081548007818B15A
:1046800012202070BDE8F081FBF736FE8046FF2E39
:1046900003D11048006890F832600F4850F8265057
:1046A0002DB94046FBF72CFE43202070EAE7012D90
:1046B00005D14046FBF724FE43202070E2E7EF647B
:1046C0004046FBF71DFE0020207000BFDAE7000027
:1046D000550000206800002084260020704700005C
:1046E0002DE9F04707460D464FF0000A00202860EC
:1046F0006860FBF701FE8246FF2F03D1194800686E
:1047000090F83270184850F827402CB95046FBF703
:10471000F7FD4320BDE8F087012C04D15046FBF79C
:10472000EFFD4320F6E7207C00F0010020B9504661
:10473000FBF7E6FD4520EDE70026D4F80C90D4F811
:1047400008805046FBF7DCFD00E0761C58F8041B9F
:104750000029FAD0B0002860A9EB0600800068604C
:104760000020D7E7680000208426002070B50446AA
:1047700010464FF080750560051F28462C606FF0CD
:104780000106051F28462E604FF01236051F2846E9
:104790002E604FF00336051F28462E604FF002367C
:1047A000051F28462E607610051F28462E60051F1F
:1047B000284629604FF01136051F28462E604FF01D
:1047C0001036051F28462E604FF00936051F284673
:1047D0002E604FF00836051F28462E604FF0073632
:1047E000051F28462E604FF00636051F28462E600E
:1047F0004FF00536051F28462E604FF00436051F82
:1048000028462E6070BD00002DE9F04105464FF0AE
:104810000008FBF771FD8046FF2D05D12048006898
:1048200090F83250012608E01D48006890F83200E8
:10483000A84201D1012600E000261A4850F8254080
:104840002CB94046FBF75CFD4820BDE8F081012C07
:1048500004D14046FBF754FD4320F6E794F834704A
:104860001148C05D94F8351088430F49C855084673
:10487000C05D30B994F836100C48007888430B4975
:10488000087094F8300040F0080084F8300040468A
:10489000FBF736FD012E01D100F054FA0020D4E7D9
:1048A00068000020842600205A00002059000020C3
:1048B0007047000070B5054600261748007800B123
:1048C00070BD1648007800B1FAE71DB3FBF714FD80
:1048D00006461348006890F834401248005D1049BD
:1048E000096891F8351088430E4908550846005D5F
:1048F00040B90B48006890F836100B4800788843A0
:104900000949087006480068C5623046FBF7F8FCA4
:1049100000F018FA00BFD3E7550000205600002031
:10492000680000205A000020590000202DE9F041C5
:1049300004460D4616461F461248007810B1552011
:10494000BDE8F0811048007808B13220F8E7B81CC3
:10495000C82148434FF47A71B0FBF1F14FF4616024
:104960006043C5EB051200EB8200304400EBC0024F
:1049700002EB001001EBC0084046FFF79BFF002050
:10498000DEE70000550000205600002070B500262C
:1049900000F072F8FBF7B0FC064631480068401C96
:1049A0002F4908603046FBF7ABFC2E480078012801
:1049B00053D12D48007820B1012804D0022809D114
:1049C00003E001250BE0002509E00125012026492F
:1049D000087004E0012500202349087000BF00BFD3
:1049E00005B970BD2148046833E0FBF785FC064635
:1049F000E06A50B3E06A401EE062E06A28BB94F8C7
:104A0000300000F0370040B114F8300F00F0C8005B
:104A1000207001206070303C02E0002084F83100FA
:104A200094F8300000F0080078B93434A0781049C8
:104A3000097808430E49087020780E49085C6178AF
:104A4000084314F834190B4A505464693046FBF794
:104A500057FC94F832003F28C7D100BFC1E70000DF
:104A600080000020620000207800002074000020F8
:104A7000590000205A000020704700002DE9F04145
:104A80005021114800F02CF900250DE0681C86B279
:104A90000D4800EB051400EB06170020207067603E
:104AA0000AA0E060681C85B2042DEFD3064800EB35
:104AB000051400202070606004A0E06002480449F2
:104AC0000860BDE8F0810000342200203F000000B3
:104AD0004400002070B5C821114800F001F90023FE
:104AE0000FE0581C85B203EB83000D4901EB8004F5
:104AF00005EB850001EB8006002020706660581CE5
:104B000083B2092BEDD303EB8300054901EB80044D
:104B100000202070606008460249086070BD0000F7
:104B20006C2100204000002000200A4908600A494A
:104B300008700A4908700A4908700A4908700A4949
:104B400008600A4908600A4908600A4908600A4979
:104B5000087070478000002055000020560000209B
:104B600063000020620000203C0000206400002060
:104B7000500000204C0000205400002000210A4A70
:104B80001170002004E00021084A1154411CC8B2F1
:104B90000828F8D30021064A1170064A1170064A07
:104BA0001160064A11607047590000205A00002029
:104BB00057000020580000207000002068000020EE
:104BC00070B54FF47C71194800F08AF84FF4807189
:104BD000174800F085F8002413E0601CC5B2C4EB50
:104BE000C40000EB4000114901EB8003C5EBC50098
:104BF00000EB400001EB80065E610EA0D864601CF3
:104C0000C4B20B2CE9D3C4EBC40000EB400007494D
:104C100001EB80030020586106A0D86400200649FB
:104C2000086002480549086070BD00008427002024
:104C3000842600203F000000740000206C0000204B
:104C400000B587B00320002180220A4BCDE9013254
:104C5000CDE903104FF6FF703F23074A0090074845
:104C6000FFF7A6FC06AA06A13F20FFF7FFFC07B04E
:104C700000BD00008424002080260020194F000879
:104C800075432F4F532D49492049646C650000003E
:104C900000B587B00320002180220A4BCDE9013204
:104CA000CDE903104FF6FE703E23074A00900748F7
:104CB000FFF77EFC06AA06A13E20FFF7D7FC07B04F
:104CC00000BD00008422002080240020414F000805
:104CD00075432F4F532D49492053746174000000D0
:104CE00004E0002200F8012B4A1E91B20029F8D1FD
:104CF000704700002DE9F04178211048FFF7F0FFE0
:104D000000240DE0601C86B204EB44000B4901EB6B
:104D1000C00506EB460001EBC0072F60601C84B2A3
:104D2000042CEFD304EB4400044901EBC005002040
:104D30002860084602490860BDE8F081742B002015
:104D40007C00002010B50024FBF7D6FA0446134877
:104D50000078F8B912480078E0B900F02DF8114851
:104D60001149097850F82100104908600E48007870
:104D70000F49097888420DD00C480068806B401CB0
:104D80000A49096888630B480068401C09490860A3
:104D9000FBF7CAFA2046FBF7B3FA10BD5500002016
:104DA00056000020842600205800002070000020BB
:104DB000570000203C0000200649074A1278885C12
:104DC0000649095C034A515C01EBC001044A1170B9
:104DD0007047000090790008590000205A00002018
:104DE000580000202DE9F84F05460F469046994699
:104DF000DDE90AAB00200090FBF77EFA00903F4807
:104E00000468002C74D0183454F8040C3B49086032
:104E10000098FBF775FA44F8187CA57600202076F8
:104E20006076606144F814BC44F80CAC44F8108C13
:104E30000C9824F8080C24F8069C0020E077E81071
:104E4000207705F00700E076217F01208840A077D9
:104E5000E17E01208840607700206060E060A06013
:104E60002062A0626062E062206325A06063183C5B
:104E7000002606E0002104F1500040F82610701CC6
:104E8000C6B2002EF6D02046FFF740FB2046FFF7C3
:104E9000EBFBFBF731FA00901A4840F825401A481E
:104EA000006860610020A0611748006810B11648D2
:104EB00000688461144804603434A0781349097888
:104EC00008431249087020781149085C617808434A
:104ED00014F834190E4A50540E480078401C0D49FD
:104EE00008700098FBF70CFA0020BDE8F88FFFE788
:104EF0000098FBF705FA4220F7E700006C0000205D
:104F00003F0000008426002074000020590000208B
:104F10005A00002063000020002400BF00BFFBF700
:104F2000EBF9044605480068401C04490860204627
:104F3000FBF7E6F9FFF799FBF1E7000064000020BA
:104F4000002400BF02E02820FFF7B4FC19480078D5
:104F50000028F8D0184800686421B0FBF1F0164929
:104F600008600846006828B9002014490870FF202E
:104F7000FFF74AFC00BFFBF7BFF904461048006882
:104F80001049086000200E4908602046FBF7B8F978
:104F90000C48006808490968B0FBF1F0C0F16400F2
:104FA00006490870FFF79AFB00F00EF81420FFF78F
:104FB00081FCE0E7540000204C0000204800002065
:104FC00064000020500000207CB5002514E06946F4
:104FD0002846FFF785FB064666B9094850F8254084
:104FE00044B1012C06D0D4E9020100EB81006064D9
:104FF0000198A064681CC5B23F2DE8D97CBD0000B3
:105000008426002002F0010343B102F002032BB119
:1050100002E0491E002308C00029FAD1704710B5EC
:105020004FF48030FDF75AFC042000F00BF808B173
:1050300000BFFEE710BD0000014908627047000094
:1050400000000E4201460020034A52680A400AB19D
:10505000012000E000207047007000400149086115
:105060007047000000000E4201460020034A10680D
:1050700020F0E0000843106070470000007000401E
:1050800032E0C823002211461046FFF74FFC681C8F
:105090004EF6602190FBF1F201FB120085B22C4626
:1050A0001248C07C124908701048406848600F4898
:1050B00000688860962094FBF0F100FB1140022804
:1050C00005D10C480079012801D101F0B3F9052080
:1050D00094FBF0F100FB1140032805D1012000F002
:1050E000D7FE012001F082FFCBE7000054360020FC
:1050F000743A00208C3D002030B501460020072581
:105100000446401C0D55684B1D780446401C0D5547
:105110001D790446401C0D55DD780446401C0D5594
:105120009D780446401C0D555D780446401C0D5585
:105130001D7A0446401C0D55002222E05B4B53F8BB
:1051400022301B0E0446451CE8B20B55574B53F852
:105150002230C3F307450346441CE0B2CD54534B01
:1051600033F82230C3F307250346441CE0B2CD5484
:105170004E4B13F822500346441CE0B2CD54531C4E
:10518000DAB2494B1B7A9342D8DC474B5D7A03462F
:10519000441CE0B2CD54002222E0454B53F82230AB
:1051A0001B0E0446451CE8B20B55414B53F8223008
:1051B000C3F307450346441CE0B2CD543C4B33F8DF
:1051C0002230C3F307250346441CE0B2CD54384BCC
:1051D00013F822500346441CE0B2CD54531CDAB2FB
:1051E000314B5B7A9342D8DC2F4B9D7A0346441CAB
:1051F000E0B2CD54002222E02E4B53F822301B0E99
:105200000446451CE8B20B552A4B53F82230C3F331
:1052100007450346441CE0B2CD54264B33F82230F8
:10522000C3F307250346441CE0B2CD54214B13F8C9
:1052300022500346441CE0B2CD54531CDAB21A4B40
:105240009B7A9342D8DC184BDD7A0446431CD8B2D3
:105250000D55002222E0184B53F822301B0E044655
:10526000451CE8B20B55144B53F82230C3F30745E5
:105270000346441CE0B2CD540F4B33F82230C3F345
:1052800007250346441CE0B2CD540B4B13F82250C3
:105290000346441CE0B2CD54531CDAB2024BDB7A15
:1052A0009342D8DC30BD0000903A0020F438002052
:1052B0001C390020443900206C3900202DE9F041D0
:1052C0000546002409222146641C6A540222214614
:1052D000641C6A54002621E0134802782146601CB1
:1052E000C4B26A54104882782046611CCCB22A5459
:1052F0000D4842782046611CCCB22A540A4B5A8889
:1053000006EB8603094F07EB83012819FBF722FA06
:10531000054880782044C4B2701CC6B2022EDBDB84
:105320002046BDE8F081000060020020E439002042
:105330002DE9F0410546002408222146641C6A54E8
:1053400002222146641C6A5400264BE02848027859
:105350002046611CCCB22A54254882782046611C24
:10536000CCB22A54224842782146601CC4B26A5406
:105370001F4802792046611CCCB22A541C48C278CE
:105380002046611CCCB22A54194882792046611CFF
:10539000CCB22A54164842792046611CCCB22A5419
:1053A0001348027A2046611CCCB22A541048C279B4
:1053B0002046611CCCB22A540D48827A2046611CDA
:1053C000CCB22A540A4B9A7A06EB8603094F07EBB4
:1053D000C3012819FBF7BEF90548807A2044C4B2FE
:1053E000701CC6B2022EB1DB2046BDE8F081000081
:1053F0009C3A0020943900202DE9F04105460E46E4
:1054000017462C46232004F8010B04F8010B04F87E
:10541000017BFE2004F8010B112207492046FBF70F
:1054200099F91134012004F8010B301204F8010B32
:1054300004F8016BBDE8F0810C3A002070B5044619
:105440000D462946204602F05DF9605570BD00000A
:10545000FEB505460F460026002409E0285D3B28DE
:1054600004D13046711CCEB20DF80040601CC4B2AD
:10547000BC42F3DB0A2E00D0D7E09DF8000050B10B
:105480009DF8002029466948FBF764F900219DF842
:105490000020664881549DF80000401CC4B29DF86D
:1054A0000100001BC6B24EB1291932465F483E3892
:1054B000FBF750F900205D493E3988559DF8010001
:1054C000401CC4B29DF80200001BC6B24EB129199F
:1054D000324656483838FBF73DF9002153483838F2
:1054E00081559DF80200401CC4B29DF80300001BCA
:1054F000C6B24EB1291932464C482838FBF72AF972
:1055000000214A48283881559DF80300401CC4B248
:105510009DF80400001BC6B2BEB1042E0FD10020BE
:1055200042493E3981F82600002140483E3880F843
:105530002710291932462830FBF70CF905E0291904
:1055400032463A481838FBF705F99DF80400401C2C
:10555000C4B29DF80500001BC6B2022E07D1601C24
:10556000285C295D00EB012030493E3988859DF893
:105570000500401CC4B29DF80600001BC6B2042EF4
:105580000FD1285D0106601C285C01EB0041A01CC6
:10559000285C01EB0021E01C285C084423493E39CB
:1055A00008639DF80600401CC4B29DF80700001B6C
:1055B000C6B2052E07DB28191C493E3902684A632A
:1055C000007981F838009DF80700401CC4B29DF8AE
:1055D0000800001BC6B2052E06DB29191348401F20
:1055E0000A680260097901719DF80800401CC4B284
:1055F0009DF80900001BC6B2042E10D1285D0106DB
:10560000601C285C01EB0041A01C285C01EB002120
:10561000E01C285C084405493E39C1F8800001209F
:1056200002493E3981F8840000BFFEBD3A3B0020AC
:105630002DE9F04705468946AF7895F803800024A8
:105640001BE0C4EB041000EB80011C4800EBC10020
:105650008678BE420FD11A48005D01280BD1002187
:1056600017480155B8F1010F04D0414615A0FAF7CB
:10567000B5FE21E003E0601CC4B2042CE1DB00BFF6
:10568000042C00D118E0012F04D0032F10D0042FD8
:105690000FD106E003200949891F08700120087115
:1056A00008E005200549891F08700020087101E005
:1056B00000E000BF00BF00BFBDE8F087923D0020C2
:1056C0000647002041434B204552524F5220494447
:1056D000203D2025640D0A002DE9F04104460D46C9
:1056E0002026E77F082F1AD2DFE807F019040F10F1
:1056F0001112131406F11800854205DDA81BC1B272
:1057000004F12000FFF7A4FE0AE009E008E007E04A
:1057100006E005E00120044981F8500000E000BFE8
:1057200000BFBDE8F0810000A83A002070B5044633
:105730000E46E57F294604F1200000F07DFD70BD96
:105740002DE9F04788B006468A4696F81F9006F184
:1057500020044FF00008B0E014F8017B112F71D243
:10576000DFE807F0A409131D272C46A4A4505660B7
:105770006A7177939E0014F8015B14F8011B01EB2A
:10578000052085B25048058092E014F8015B14F8BA
:10579000011B01EB052085B24B48458088E014F8D9
:1057A000015B14F8011B01EB052085B2464885809A
:1057B0007EE014F8010B4449887179E0002509E086
:1057C000605D10B9681C044406E0605D0DF80500DA
:1057D000681C85B21E2DF3DB00BF1E2D07D03A4991
:1057E0008D71084682796946C01DFAF7B3FF5FE004
:1057F00014F8015B14F8011B01EB052085B2324857
:10580000C58455E014F8010B2F4981F828004FE0BA
:1058100014F8015B14F8011B01EB052085B22A483E
:10582000458545E014F8015B14F8011B01EB0520E8
:1058300085B2254885853BE014F8010B224981F8A3
:105840002E0035E032E014F8010B1F4981F82F00DB
:105850002EE0002509E0605D10B9681C044406E0F4
:10586000605D0DF80500681C85B21E2DF3DB00BFDE
:105870001E2D09D0144981F82F50084690F82F208A
:1058800069463030FAF766FF12E014F8015B14F84D
:10589000011B01EB052085B20B48A0F84E5007E034
:1058A00014F8010B084981F8500001E0641E00BFA4
:1058B00000BF08F1010000F0FF08C845FFF64CAF3B
:1058C00008B0BDE8F0870000A83A002010B50146F6
:1058D000002004240346401CCC540B4A1478034691
:1058E000401CCC5494780346401CCC545478034656
:1058F000401CCC5414790346401CCC54D478034645
:10590000401CCC5410BD00005A02002010B50146C6
:10591000002006240346401CCC54244A1478034635
:10592000401CCC5454780346401CCC54D4780346D5
:10593000401CCC5494780346401CCC541479034644
:10594000401CCC5454790346401CCC54D4790246B4
:10595000431CD8B28C54154A94790246431CD8B2E1
:105960008C54124A147A0246431CD8B28C540F4A03
:10597000547A0246431CD8B28C540C4A947A02469C
:10598000431CD8B28C54094AD47A0246431CD8B27C
:105990008C54064A147B0246431CD8B28C54034AEA
:1059A000547B0246431CD8B28C5410BD803A002070
:1059B00070B50546002403222146641C6A54384809
:1059C00042782146641C6A5402782146641C6A5459
:1059D000C2782146641C6A5482782146641C6A5449
:1059E00042792146641C6A5402792146641C6A5437
:1059F00002202B49C8800846C2792046611CCCB2DF
:105A00002A54274882792046611CCCB22A54244962
:105A1000CA8828192349FAF79DFE21488079204435
:105A2000C4B21F48427A2046611CCCB22A541C489A
:105A3000027A2046611CCCB22A541948827A204648
:105A4000611CCCB22A541648027B2046611CCCB2A1
:105A50002A541348C27A2046611CCCB22A541048FA
:105A6000827B2046611CCCB22A540D48C27B204662
:105A7000611CCCB22A540A48827B2046611CCCB2FD
:105A80002A540748827C2046611CCCB22A54044820
:105A9000C27C2046611CCCB22A54204670BD000056
:105AA0005E3A00205102002070B506460C461546AD
:105AB000032D00D11EE0104800782A2819D02A2092
:105AC0000D490870201248708C700846C570224637
:105AD0003146001DFEF758FB201D81B2064801F03B
